{
  "contractName": "Controller",
  "abi": [
    {
      "inputs": [
        {
          "internalType": "contract Avatar",
          "name": "_avatar",
          "type": "address"
        }
      ],
      "payable": false,
      "stateMutability": "nonpayable",
      "type": "constructor"
    },
    {
      "anonymous": false,
      "inputs": [
        {
          "indexed": true,
          "internalType": "address",
          "name": "_globalConstraint",
          "type": "address"
        },
        {
          "indexed": false,
          "internalType": "bytes32",
          "name": "_params",
          "type": "bytes32"
        },
        {
          "indexed": false,
          "internalType": "enum GlobalConstraintInterface.CallPhase",
          "name": "_when",
          "type": "uint8"
        }
      ],
      "name": "AddGlobalConstraint",
      "type": "event"
    },
    {
      "anonymous": false,
      "inputs": [
        {
          "indexed": true,
          "internalType": "address",
          "name": "_sender",
          "type": "address"
        },
        {
          "indexed": true,
          "internalType": "address",
          "name": "_from",
          "type": "address"
        },
        {
          "indexed": false,
          "internalType": "uint256",
          "name": "_amount",
          "type": "uint256"
        }
      ],
      "name": "BurnReputation",
      "type": "event"
    },
    {
      "anonymous": false,
      "inputs": [
        {
          "indexed": true,
          "internalType": "address",
          "name": "_sender",
          "type": "address"
        },
        {
          "indexed": true,
          "internalType": "address",
          "name": "_to",
          "type": "address"
        },
        {
          "indexed": false,
          "internalType": "uint256",
          "name": "_amount",
          "type": "uint256"
        }
      ],
      "name": "MintReputation",
      "type": "event"
    },
    {
      "anonymous": false,
      "inputs": [
        {
          "indexed": true,
          "internalType": "address",
          "name": "_sender",
          "type": "address"
        },
        {
          "indexed": true,
          "internalType": "address",
          "name": "_beneficiary",
          "type": "address"
        },
        {
          "indexed": false,
          "internalType": "uint256",
          "name": "_amount",
          "type": "uint256"
        }
      ],
      "name": "MintTokens",
      "type": "event"
    },
    {
      "anonymous": false,
      "inputs": [
        {
          "indexed": true,
          "internalType": "address",
          "name": "_sender",
          "type": "address"
        },
        {
          "indexed": true,
          "internalType": "address",
          "name": "_scheme",
          "type": "address"
        }
      ],
      "name": "RegisterScheme",
      "type": "event"
    },
    {
      "anonymous": false,
      "inputs": [
        {
          "indexed": true,
          "internalType": "address",
          "name": "_globalConstraint",
          "type": "address"
        },
        {
          "indexed": false,
          "internalType": "uint256",
          "name": "_index",
          "type": "uint256"
        },
        {
          "indexed": false,
          "internalType": "bool",
          "name": "_isPre",
          "type": "bool"
        }
      ],
      "name": "RemoveGlobalConstraint",
      "type": "event"
    },
    {
      "anonymous": false,
      "inputs": [
        {
          "indexed": true,
          "internalType": "address",
          "name": "_sender",
          "type": "address"
        },
        {
          "indexed": true,
          "internalType": "address",
          "name": "_scheme",
          "type": "address"
        }
      ],
      "name": "UnregisterScheme",
      "type": "event"
    },
    {
      "anonymous": false,
      "inputs": [
        {
          "indexed": true,
          "internalType": "address",
          "name": "_oldController",
          "type": "address"
        },
        {
          "indexed": false,
          "internalType": "address",
          "name": "_newController",
          "type": "address"
        }
      ],
      "name": "UpgradeController",
      "type": "event"
    },
    {
      "payable": false,
      "stateMutability": "nonpayable",
      "type": "fallback"
    },
    {
      "constant": true,
      "inputs": [],
      "name": "avatar",
      "outputs": [
        {
          "internalType": "contract Avatar",
          "name": "",
          "type": "address"
        }
      ],
      "payable": false,
      "stateMutability": "view",
      "type": "function"
    },
    {
      "constant": true,
      "inputs": [
        {
          "internalType": "uint256",
          "name": "",
          "type": "uint256"
        }
      ],
      "name": "globalConstraintsPost",
      "outputs": [
        {
          "internalType": "address",
          "name": "gcAddress",
          "type": "address"
        },
        {
          "internalType": "bytes32",
          "name": "params",
          "type": "bytes32"
        }
      ],
      "payable": false,
      "stateMutability": "view",
      "type": "function"
    },
    {
      "constant": true,
      "inputs": [
        {
          "internalType": "uint256",
          "name": "",
          "type": "uint256"
        }
      ],
      "name": "globalConstraintsPre",
      "outputs": [
        {
          "internalType": "address",
          "name": "gcAddress",
          "type": "address"
        },
        {
          "internalType": "bytes32",
          "name": "params",
          "type": "bytes32"
        }
      ],
      "payable": false,
      "stateMutability": "view",
      "type": "function"
    },
    {
      "constant": true,
      "inputs": [
        {
          "internalType": "address",
          "name": "",
          "type": "address"
        }
      ],
      "name": "globalConstraintsRegisterPost",
      "outputs": [
        {
          "internalType": "bool",
          "name": "isRegistered",
          "type": "bool"
        },
        {
          "internalType": "uint256",
          "name": "index",
          "type": "uint256"
        }
      ],
      "payable": false,
      "stateMutability": "view",
      "type": "function"
    },
    {
      "constant": true,
      "inputs": [
        {
          "internalType": "address",
          "name": "",
          "type": "address"
        }
      ],
      "name": "globalConstraintsRegisterPre",
      "outputs": [
        {
          "internalType": "bool",
          "name": "isRegistered",
          "type": "bool"
        },
        {
          "internalType": "uint256",
          "name": "index",
          "type": "uint256"
        }
      ],
      "payable": false,
      "stateMutability": "view",
      "type": "function"
    },
    {
      "constant": true,
      "inputs": [],
      "name": "nativeReputation",
      "outputs": [
        {
          "internalType": "contract Reputation",
          "name": "",
          "type": "address"
        }
      ],
      "payable": false,
      "stateMutability": "view",
      "type": "function"
    },
    {
      "constant": true,
      "inputs": [],
      "name": "nativeToken",
      "outputs": [
        {
          "internalType": "contract DAOToken",
          "name": "",
          "type": "address"
        }
      ],
      "payable": false,
      "stateMutability": "view",
      "type": "function"
    },
    {
      "constant": true,
      "inputs": [],
      "name": "newController",
      "outputs": [
        {
          "internalType": "address",
          "name": "",
          "type": "address"
        }
      ],
      "payable": false,
      "stateMutability": "view",
      "type": "function"
    },
    {
      "constant": true,
      "inputs": [
        {
          "internalType": "address",
          "name": "",
          "type": "address"
        }
      ],
      "name": "schemes",
      "outputs": [
        {
          "internalType": "bytes32",
          "name": "paramsHash",
          "type": "bytes32"
        },
        {
          "internalType": "bytes4",
          "name": "permissions",
          "type": "bytes4"
        }
      ],
      "payable": false,
      "stateMutability": "view",
      "type": "function"
    },
    {
      "constant": false,
      "inputs": [
        {
          "internalType": "uint256",
          "name": "_amount",
          "type": "uint256"
        },
        {
          "internalType": "address",
          "name": "_to",
          "type": "address"
        },
        {
          "internalType": "address",
          "name": "_avatar",
          "type": "address"
        }
      ],
      "name": "mintReputation",
      "outputs": [
        {
          "internalType": "bool",
          "name": "",
          "type": "bool"
        }
      ],
      "payable": false,
      "stateMutability": "nonpayable",
      "type": "function"
    },
    {
      "constant": false,
      "inputs": [
        {
          "internalType": "uint256",
          "name": "_amount",
          "type": "uint256"
        },
        {
          "internalType": "address",
          "name": "_from",
          "type": "address"
        },
        {
          "internalType": "address",
          "name": "_avatar",
          "type": "address"
        }
      ],
      "name": "burnReputation",
      "outputs": [
        {
          "internalType": "bool",
          "name": "",
          "type": "bool"
        }
      ],
      "payable": false,
      "stateMutability": "nonpayable",
      "type": "function"
    },
    {
      "constant": false,
      "inputs": [
        {
          "internalType": "uint256",
          "name": "_amount",
          "type": "uint256"
        },
        {
          "internalType": "address",
          "name": "_beneficiary",
          "type": "address"
        },
        {
          "internalType": "address",
          "name": "_avatar",
          "type": "address"
        }
      ],
      "name": "mintTokens",
      "outputs": [
        {
          "internalType": "bool",
          "name": "",
          "type": "bool"
        }
      ],
      "payable": false,
      "stateMutability": "nonpayable",
      "type": "function"
    },
    {
      "constant": false,
      "inputs": [
        {
          "internalType": "address",
          "name": "_scheme",
          "type": "address"
        },
        {
          "internalType": "bytes32",
          "name": "_paramsHash",
          "type": "bytes32"
        },
        {
          "internalType": "bytes4",
          "name": "_permissions",
          "type": "bytes4"
        },
        {
          "internalType": "address",
          "name": "_avatar",
          "type": "address"
        }
      ],
      "name": "registerScheme",
      "outputs": [
        {
          "internalType": "bool",
          "name": "",
          "type": "bool"
        }
      ],
      "payable": false,
      "stateMutability": "nonpayable",
      "type": "function"
    },
    {
      "constant": false,
      "inputs": [
        {
          "internalType": "address",
          "name": "_scheme",
          "type": "address"
        },
        {
          "internalType": "address",
          "name": "_avatar",
          "type": "address"
        }
      ],
      "name": "unregisterScheme",
      "outputs": [
        {
          "internalType": "bool",
          "name": "",
          "type": "bool"
        }
      ],
      "payable": false,
      "stateMutability": "nonpayable",
      "type": "function"
    },
    {
      "constant": false,
      "inputs": [
        {
          "internalType": "address",
          "name": "_avatar",
          "type": "address"
        }
      ],
      "name": "unregisterSelf",
      "outputs": [
        {
          "internalType": "bool",
          "name": "",
          "type": "bool"
        }
      ],
      "payable": false,
      "stateMutability": "nonpayable",
      "type": "function"
    },
    {
      "constant": false,
      "inputs": [
        {
          "internalType": "address",
          "name": "_globalConstraint",
          "type": "address"
        },
        {
          "internalType": "bytes32",
          "name": "_params",
          "type": "bytes32"
        },
        {
          "internalType": "address",
          "name": "_avatar",
          "type": "address"
        }
      ],
      "name": "addGlobalConstraint",
      "outputs": [
        {
          "internalType": "bool",
          "name": "",
          "type": "bool"
        }
      ],
      "payable": false,
      "stateMutability": "nonpayable",
      "type": "function"
    },
    {
      "constant": false,
      "inputs": [
        {
          "internalType": "address",
          "name": "_globalConstraint",
          "type": "address"
        },
        {
          "internalType": "address",
          "name": "_avatar",
          "type": "address"
        }
      ],
      "name": "removeGlobalConstraint",
      "outputs": [
        {
          "internalType": "bool",
          "name": "",
          "type": "bool"
        }
      ],
      "payable": false,
      "stateMutability": "nonpayable",
      "type": "function"
    },
    {
      "constant": false,
      "inputs": [
        {
          "internalType": "address",
          "name": "_newController",
          "type": "address"
        },
        {
          "internalType": "contract Avatar",
          "name": "_avatar",
          "type": "address"
        }
      ],
      "name": "upgradeController",
      "outputs": [
        {
          "internalType": "bool",
          "name": "",
          "type": "bool"
        }
      ],
      "payable": false,
      "stateMutability": "nonpayable",
      "type": "function"
    },
    {
      "constant": false,
      "inputs": [
        {
          "internalType": "address",
          "name": "_contract",
          "type": "address"
        },
        {
          "internalType": "bytes",
          "name": "_data",
          "type": "bytes"
        },
        {
          "internalType": "contract Avatar",
          "name": "_avatar",
          "type": "address"
        },
        {
          "internalType": "uint256",
          "name": "_value",
          "type": "uint256"
        }
      ],
      "name": "genericCall",
      "outputs": [
        {
          "internalType": "bool",
          "name": "",
          "type": "bool"
        },
        {
          "internalType": "bytes",
          "name": "",
          "type": "bytes"
        }
      ],
      "payable": false,
      "stateMutability": "nonpayable",
      "type": "function"
    },
    {
      "constant": false,
      "inputs": [
        {
          "internalType": "uint256",
          "name": "_amountInWei",
          "type": "uint256"
        },
        {
          "internalType": "address payable",
          "name": "_to",
          "type": "address"
        },
        {
          "internalType": "contract Avatar",
          "name": "_avatar",
          "type": "address"
        }
      ],
      "name": "sendEther",
      "outputs": [
        {
          "internalType": "bool",
          "name": "",
          "type": "bool"
        }
      ],
      "payable": false,
      "stateMutability": "nonpayable",
      "type": "function"
    },
    {
      "constant": false,
      "inputs": [
        {
          "internalType": "contract IERC20",
          "name": "_externalToken",
          "type": "address"
        },
        {
          "internalType": "address",
          "name": "_to",
          "type": "address"
        },
        {
          "internalType": "uint256",
          "name": "_value",
          "type": "uint256"
        },
        {
          "internalType": "contract Avatar",
          "name": "_avatar",
          "type": "address"
        }
      ],
      "name": "externalTokenTransfer",
      "outputs": [
        {
          "internalType": "bool",
          "name": "",
          "type": "bool"
        }
      ],
      "payable": false,
      "stateMutability": "nonpayable",
      "type": "function"
    },
    {
      "constant": false,
      "inputs": [
        {
          "internalType": "contract IERC20",
          "name": "_externalToken",
          "type": "address"
        },
        {
          "internalType": "address",
          "name": "_from",
          "type": "address"
        },
        {
          "internalType": "address",
          "name": "_to",
          "type": "address"
        },
        {
          "internalType": "uint256",
          "name": "_value",
          "type": "uint256"
        },
        {
          "internalType": "contract Avatar",
          "name": "_avatar",
          "type": "address"
        }
      ],
      "name": "externalTokenTransferFrom",
      "outputs": [
        {
          "internalType": "bool",
          "name": "",
          "type": "bool"
        }
      ],
      "payable": false,
      "stateMutability": "nonpayable",
      "type": "function"
    },
    {
      "constant": false,
      "inputs": [
        {
          "internalType": "contract IERC20",
          "name": "_externalToken",
          "type": "address"
        },
        {
          "internalType": "address",
          "name": "_spender",
          "type": "address"
        },
        {
          "internalType": "uint256",
          "name": "_value",
          "type": "uint256"
        },
        {
          "internalType": "contract Avatar",
          "name": "_avatar",
          "type": "address"
        }
      ],
      "name": "externalTokenApproval",
      "outputs": [
        {
          "internalType": "bool",
          "name": "",
          "type": "bool"
        }
      ],
      "payable": false,
      "stateMutability": "nonpayable",
      "type": "function"
    },
    {
      "constant": false,
      "inputs": [
        {
          "internalType": "string",
          "name": "_metaData",
          "type": "string"
        },
        {
          "internalType": "contract Avatar",
          "name": "_avatar",
          "type": "address"
        }
      ],
      "name": "metaData",
      "outputs": [
        {
          "internalType": "bool",
          "name": "",
          "type": "bool"
        }
      ],
      "payable": false,
      "stateMutability": "nonpayable",
      "type": "function"
    },
    {
      "constant": true,
      "inputs": [
        {
          "internalType": "address",
          "name": "_avatar",
          "type": "address"
        }
      ],
      "name": "getNativeReputation",
      "outputs": [
        {
          "internalType": "address",
          "name": "",
          "type": "address"
        }
      ],
      "payable": false,
      "stateMutability": "view",
      "type": "function"
    },
    {
      "constant": true,
      "inputs": [
        {
          "internalType": "address",
          "name": "_scheme",
          "type": "address"
        },
        {
          "internalType": "address",
          "name": "_avatar",
          "type": "address"
        }
      ],
      "name": "isSchemeRegistered",
      "outputs": [
        {
          "internalType": "bool",
          "name": "",
          "type": "bool"
        }
      ],
      "payable": false,
      "stateMutability": "view",
      "type": "function"
    },
    {
      "constant": true,
      "inputs": [
        {
          "internalType": "address",
          "name": "_scheme",
          "type": "address"
        },
        {
          "internalType": "address",
          "name": "_avatar",
          "type": "address"
        }
      ],
      "name": "getSchemeParameters",
      "outputs": [
        {
          "internalType": "bytes32",
          "name": "",
          "type": "bytes32"
        }
      ],
      "payable": false,
      "stateMutability": "view",
      "type": "function"
    },
    {
      "constant": true,
      "inputs": [
        {
          "internalType": "address",
          "name": "_scheme",
          "type": "address"
        },
        {
          "internalType": "address",
          "name": "_avatar",
          "type": "address"
        }
      ],
      "name": "getSchemePermissions",
      "outputs": [
        {
          "internalType": "bytes4",
          "name": "",
          "type": "bytes4"
        }
      ],
      "payable": false,
      "stateMutability": "view",
      "type": "function"
    },
    {
      "constant": true,
      "inputs": [
        {
          "internalType": "address",
          "name": "_globalConstraint",
          "type": "address"
        },
        {
          "internalType": "address",
          "name": "",
          "type": "address"
        }
      ],
      "name": "getGlobalConstraintParameters",
      "outputs": [
        {
          "internalType": "bytes32",
          "name": "",
          "type": "bytes32"
        }
      ],
      "payable": false,
      "stateMutability": "view",
      "type": "function"
    },
    {
      "constant": true,
      "inputs": [
        {
          "internalType": "address",
          "name": "_avatar",
          "type": "address"
        }
      ],
      "name": "globalConstraintsCount",
      "outputs": [
        {
          "internalType": "uint256",
          "name": "",
          "type": "uint256"
        },
        {
          "internalType": "uint256",
          "name": "",
          "type": "uint256"
        }
      ],
      "payable": false,
      "stateMutability": "view",
      "type": "function"
    },
    {
      "constant": true,
      "inputs": [
        {
          "internalType": "address",
          "name": "_globalConstraint",
          "type": "address"
        },
        {
          "internalType": "address",
          "name": "_avatar",
          "type": "address"
        }
      ],
      "name": "isGlobalConstraintRegistered",
      "outputs": [
        {
          "internalType": "bool",
          "name": "",
          "type": "bool"
        }
      ],
      "payable": false,
      "stateMutability": "view",
      "type": "function"
    }
  ],
  "bytecode": "0x60806040523480156200001157600080fd5b5060405162006cf938038062006cf9833981810160405260208110156200003757600080fd5b810190808051906020019092919050505080600160006101000a81548173ffffffffffffffffffffffffffffffffffffffff021916908373ffffffffffffffffffffffffffffffffffffffff160217905550600160009054906101000a900473ffffffffffffffffffffffffffffffffffffffff1673ffffffffffffffffffffffffffffffffffffffff1663e1758bd86040518163ffffffff1660e01b815260040160206040518083038186803b158015620000f257600080fd5b505afa15801562000107573d6000803e3d6000fd5b505050506040513d60208110156200011e57600080fd5b8101908080519060200190929190505050600260006101000a81548173ffffffffffffffffffffffffffffffffffffffff021916908373ffffffffffffffffffffffffffffffffffffffff160217905550600160009054906101000a900473ffffffffffffffffffffffffffffffffffffffff1673ffffffffffffffffffffffffffffffffffffffff166389ae1c906040518163ffffffff1660e01b815260040160206040518083038186803b158015620001d857600080fd5b505afa158015620001ed573d6000803e3d6000fd5b505050506040513d60208110156200020457600080fd5b8101908080519060200190929190505050600360006101000a81548173ffffffffffffffffffffffffffffffffffffffff021916908373ffffffffffffffffffffffffffffffffffffffff16021790555060405180604001604052806000801b8152602001601f60e01b7bffffffffffffffffffffffffffffffffffffffffffffffffffffffff19168152506000803373ffffffffffffffffffffffffffffffffffffffff1673ffffffffffffffffffffffffffffffffffffffff1681526020019081526020016000206000820151816000015560208201518160010160006101000a81548163ffffffff021916908360e01c02179055509050503373ffffffffffffffffffffffffffffffffffffffff163373ffffffffffffffffffffffffffffffffffffffff167f546816e99403df442acb68ef69562682a50762c20a3fb6b472f7af9923736cfc60405160405180910390a35061698f806200036a6000396000f3fe608060405234801561001057600080fd5b50600436106101e55760003560e01c806389ae1c901161010f578063e08738da116100a2578063e8c98b2211610071578063e8c98b2214610fca578063eaf994b21461103f578063f76488be146110c5578063fb4856a214611141576101e5565b8063e08738da14610dd3578063e1758bd814610e4b578063e4537a7414610e95578063e869d45f14610f1b576101e5565b8063b9a04cdd116100de578063b9a04cdd14610a98578063c9b62eb114610b3e578063d1b7089a14610bef578063db6149ce14610d36576101e5565b806389ae1c90146108985780638da03997146108e25780639b51e35a146109665780639be2faed14610a1c576101e5565b806351803cd8116101875780636c525b13116101565780636c525b13146106f45780636e94d27814610750578063814784f6146107d6578063824f2f1f14610839576101e5565b806351803cd8146104f85780635aef7de61461059e578063634965da146105e85780636407e4321461066e576101e5565b80633a02263c116101c35780633a02263c1461034157806342427bf81461038b5780634422d372146104075780634f52b5be1461047c576101e5565b8063039de01d146101ea578063177eebb0146102665780631c4d5608146102c9575b600080fd5b61024c6004803603604081101561020057600080fd5b81019080803573ffffffffffffffffffffffffffffffffffffffff169060200190929190803573ffffffffffffffffffffffffffffffffffffffff169060200190929190505050611207565b604051808215151515815260200191505060405180910390f35b6102a86004803603602081101561027c57600080fd5b81019080803573ffffffffffffffffffffffffffffffffffffffff16906020019092919050505061179d565b60405180831515151581526020018281526020019250505060405180910390f35b61032b600480360360408110156102df57600080fd5b81019080803573ffffffffffffffffffffffffffffffffffffffff169060200190929190803573ffffffffffffffffffffffffffffffffffffffff1690602001909291905050506117ce565b6040518082815260200191505060405180910390f35b610349611876565b604051808273ffffffffffffffffffffffffffffffffffffffff1673ffffffffffffffffffffffffffffffffffffffff16815260200191505060405180910390f35b6103ed600480360360408110156103a157600080fd5b81019080803573ffffffffffffffffffffffffffffffffffffffff169060200190929190803573ffffffffffffffffffffffffffffffffffffffff16906020019092919050505061189c565b604051808215151515815260200191505060405180910390f35b6104336004803603602081101561041d57600080fd5b810190808035906020019092919050505061217f565b604051808373ffffffffffffffffffffffffffffffffffffffff1673ffffffffffffffffffffffffffffffffffffffff1681526020018281526020019250505060405180910390f35b6104de6004803603604081101561049257600080fd5b81019080803573ffffffffffffffffffffffffffffffffffffffff169060200190929190803573ffffffffffffffffffffffffffffffffffffffff1690602001909291905050506121d0565b604051808215151515815260200191505060405180910390f35b6105846004803603608081101561050e57600080fd5b81019080803573ffffffffffffffffffffffffffffffffffffffff169060200190929190803573ffffffffffffffffffffffffffffffffffffffff16906020019092919080359060200190929190803573ffffffffffffffffffffffffffffffffffffffff16906020019092919050505061292f565b604051808215151515815260200191505060405180910390f35b6105a6612e11565b604051808273ffffffffffffffffffffffffffffffffffffffff1673ffffffffffffffffffffffffffffffffffffffff16815260200191505060405180910390f35b610654600480360360608110156105fe57600080fd5b8101908080359060200190929190803573ffffffffffffffffffffffffffffffffffffffff169060200190929190803573ffffffffffffffffffffffffffffffffffffffff169060200190929190505050612e37565b604051808215151515815260200191505060405180910390f35b6106da6004803603606081101561068457600080fd5b8101908080359060200190929190803573ffffffffffffffffffffffffffffffffffffffff169060200190929190803573ffffffffffffffffffffffffffffffffffffffff1690602001909291905050506132e4565b604051808215151515815260200191505060405180910390f35b6107366004803603602081101561070a57600080fd5b81019080803573ffffffffffffffffffffffffffffffffffffffff1690602001909291905050506137f6565b604051808215151515815260200191505060405180910390f35b6107bc6004803603606081101561076657600080fd5b8101908080359060200190929190803573ffffffffffffffffffffffffffffffffffffffff169060200190929190803573ffffffffffffffffffffffffffffffffffffffff169060200190929190505050613936565b604051808215151515815260200191505060405180910390f35b610818600480360360208110156107ec57600080fd5b81019080803573ffffffffffffffffffffffffffffffffffffffff169060200190929190505050613e48565b60405180831515151581526020018281526020019250505060405180910390f35b61087b6004803603602081101561084f57600080fd5b81019080803573ffffffffffffffffffffffffffffffffffffffff169060200190929190505050613e79565b604051808381526020018281526020019250505060405180910390f35b6108a0613eed565b604051808273ffffffffffffffffffffffffffffffffffffffff1673ffffffffffffffffffffffffffffffffffffffff16815260200191505060405180910390f35b610924600480360360208110156108f857600080fd5b81019080803573ffffffffffffffffffffffffffffffffffffffff169060200190929190505050613f13565b604051808273ffffffffffffffffffffffffffffffffffffffff1673ffffffffffffffffffffffffffffffffffffffff16815260200191505060405180910390f35b6109c86004803603604081101561097c57600080fd5b81019080803573ffffffffffffffffffffffffffffffffffffffff169060200190929190803573ffffffffffffffffffffffffffffffffffffffff169060200190929190505050613f9b565b60405180827bffffffffffffffffffffffffffffffffffffffffffffffffffffffff19167bffffffffffffffffffffffffffffffffffffffffffffffffffffffff1916815260200191505060405180910390f35b610a7e60048036036040811015610a3257600080fd5b81019080803573ffffffffffffffffffffffffffffffffffffffff169060200190929190803573ffffffffffffffffffffffffffffffffffffffff169060200190929190505050614050565b604051808215151515815260200191505060405180910390f35b610b2460048036036080811015610aae57600080fd5b81019080803573ffffffffffffffffffffffffffffffffffffffff169060200190929190803573ffffffffffffffffffffffffffffffffffffffff16906020019092919080359060200190929190803573ffffffffffffffffffffffffffffffffffffffff1690602001909291905050506140bf565b604051808215151515815260200191505060405180910390f35b610bd560048036036040811015610b5457600080fd5b8101908080359060200190640100000000811115610b7157600080fd5b820183602082011115610b8357600080fd5b80359060200191846001830284011164010000000083111715610ba557600080fd5b9091929391929390803573ffffffffffffffffffffffffffffffffffffffff1690602001909291905050506145a1565b604051808215151515815260200191505060405180910390f35b610cb060048036036080811015610c0557600080fd5b81019080803573ffffffffffffffffffffffffffffffffffffffff16906020019092919080359060200190640100000000811115610c4257600080fd5b820183602082011115610c5457600080fd5b80359060200191846001830284011164010000000083111715610c7657600080fd5b9091929391929390803573ffffffffffffffffffffffffffffffffffffffff16906020019092919080359060200190929190505050614786565b604051808315151515815260200180602001828103825283818151815260200191508051906020019080838360005b83811015610cfa578082015181840152602081019050610cdf565b50505050905090810190601f168015610d275780820380516001836020036101000a031916815260200191505b50935050505060405180910390f35b610d7860048036036020811015610d4c57600080fd5b81019080803573ffffffffffffffffffffffffffffffffffffffff169060200190929190505050614d36565b60405180838152602001827bffffffffffffffffffffffffffffffffffffffffffffffffffffffff19167bffffffffffffffffffffffffffffffffffffffffffffffffffffffff191681526020019250505060405180910390f35b610e3560048036036040811015610de957600080fd5b81019080803573ffffffffffffffffffffffffffffffffffffffff169060200190929190803573ffffffffffffffffffffffffffffffffffffffff169060200190929190505050614d67565b6040518082815260200191505060405180910390f35b610e53614ec5565b604051808273ffffffffffffffffffffffffffffffffffffffff1673ffffffffffffffffffffffffffffffffffffffff16815260200191505060405180910390f35b610f0160048036036060811015610eab57600080fd5b81019080803573ffffffffffffffffffffffffffffffffffffffff16906020019092919080359060200190929190803573ffffffffffffffffffffffffffffffffffffffff169060200190929190505050614eeb565b604051808215151515815260200191505060405180910390f35b610fb060048036036080811015610f3157600080fd5b81019080803573ffffffffffffffffffffffffffffffffffffffff1690602001909291908035906020019092919080357bffffffffffffffffffffffffffffffffffffffffffffffffffffffff19169060200190929190803573ffffffffffffffffffffffffffffffffffffffff169060200190929190505050615550565b604051808215151515815260200191505060405180910390f35b610ff660048036036020811015610fe057600080fd5b8101908080359060200190929190505050615c26565b604051808373ffffffffffffffffffffffffffffffffffffffff1673ffffffffffffffffffffffffffffffffffffffff1681526020018281526020019250505060405180910390f35b6110ab6004803603606081101561105557600080fd5b8101908080359060200190929190803573ffffffffffffffffffffffffffffffffffffffff169060200190929190803573ffffffffffffffffffffffffffffffffffffffff169060200190929190505050615c77565b604051808215151515815260200191505060405180910390f35b611127600480360360408110156110db57600080fd5b81019080803573ffffffffffffffffffffffffffffffffffffffff169060200190929190803573ffffffffffffffffffffffffffffffffffffffff169060200190929190505050616189565b604051808215151515815260200191505060405180910390f35b6111ed600480360360a081101561115757600080fd5b81019080803573ffffffffffffffffffffffffffffffffffffffff169060200190929190803573ffffffffffffffffffffffffffffffffffffffff169060200190929190803573ffffffffffffffffffffffffffffffffffffffff16906020019092919080359060200190929190803573ffffffffffffffffffffffffffffffffffffffff169060200190929190505050616296565b604051808215151515815260200191505060405180910390f35b6000600260e01b7bffffffffffffffffffffffffffffffffffffffffffffffffffffffff1916600260e01b6000803373ffffffffffffffffffffffffffffffffffffffff1673ffffffffffffffffffffffffffffffffffffffff16815260200190815260200160002060010160009054906101000a900460e01b167bffffffffffffffffffffffffffffffffffffffffffffffffffffffff1916146112ab57600080fd5b7f756e7265676973746572536368656d650000000000000000000000000000000060008090505b60058054905081101561141b57600581815481106112ec57fe5b906000526020600020906002020160000160009054906101000a900473ffffffffffffffffffffffffffffffffffffffff1673ffffffffffffffffffffffffffffffffffffffff1663c1786ab2336005848154811061134757fe5b906000526020600020906002020160010154856040518463ffffffff1660e01b8152600401808473ffffffffffffffffffffffffffffffffffffffff1673ffffffffffffffffffffffffffffffffffffffff1681526020018381526020018281526020019350505050602060405180830381600087803b1580156113ca57600080fd5b505af11580156113de573d6000803e3d6000fd5b505050506040513d60208110156113f457600080fd5b810190808051906020019092919050505061140e57600080fd5b80806001019150506112d2565b83600160009054906101000a900473ffffffffffffffffffffffffffffffffffffffff1673ffffffffffffffffffffffffffffffffffffffff168173ffffffffffffffffffffffffffffffffffffffff161461147657600080fd5b60001515611483876167ad565b151514156114945760009350611646565b600060e01b7bffffffffffffffffffffffffffffffffffffffffffffffffffffffff19166000803373ffffffffffffffffffffffffffffffffffffffff1673ffffffffffffffffffffffffffffffffffffffff16815260200190815260200160002060010160009054906101000a900460e01b196000808973ffffffffffffffffffffffffffffffffffffffff1673ffffffffffffffffffffffffffffffffffffffff16815260200190815260200160002060010160009054906101000a900460e01b16601f60e01b167bffffffffffffffffffffffffffffffffffffffffffffffffffffffff19161461158757600080fd5b8573ffffffffffffffffffffffffffffffffffffffff163373ffffffffffffffffffffffffffffffffffffffff167f10bb2cf04cb8b902a8e736d494f1a51003be6d4b16ef6fb95ce62c38445023bf60405160405180910390a36000808773ffffffffffffffffffffffffffffffffffffffff1673ffffffffffffffffffffffffffffffffffffffff1681526020019081526020016000206000808201600090556001820160006101000a81549063ffffffff02191690555050600193505b50600090505b600680549050811015611795576006818154811061166657fe5b906000526020600020906002020160000160009054906101000a900473ffffffffffffffffffffffffffffffffffffffff1673ffffffffffffffffffffffffffffffffffffffff16638043154d33600684815481106116c157fe5b906000526020600020906002020160010154856040518463ffffffff1660e01b8152600401808473ffffffffffffffffffffffffffffffffffffffff1673ffffffffffffffffffffffffffffffffffffffff1681526020018381526020018281526020019350505050602060405180830381600087803b15801561174457600080fd5b505af1158015611758573d6000803e3d6000fd5b505050506040513d602081101561176e57600080fd5b810190808051906020019092919050505061178857600080fd5b808060010191505061164c565b505092915050565b60076020528060005260406000206000915090508060000160009054906101000a900460ff16908060010154905082565b600081600160009054906101000a900473ffffffffffffffffffffffffffffffffffffffff1673ffffffffffffffffffffffffffffffffffffffff168173ffffffffffffffffffffffffffffffffffffffff161461182b57600080fd5b6000808573ffffffffffffffffffffffffffffffffffffffff1673ffffffffffffffffffffffffffffffffffffffff1681526020019081526020016000206000015491505092915050565b600460009054906101000a900473ffffffffffffffffffffffffffffffffffffffff1681565b6000600860e01b7bffffffffffffffffffffffffffffffffffffffffffffffffffffffff1916600860e01b6000803373ffffffffffffffffffffffffffffffffffffffff1673ffffffffffffffffffffffffffffffffffffffff16815260200190815260200160002060010160009054906101000a900460e01b167bffffffffffffffffffffffffffffffffffffffffffffffffffffffff19161461194057600080fd5b81600160009054906101000a900473ffffffffffffffffffffffffffffffffffffffff1673ffffffffffffffffffffffffffffffffffffffff168173ffffffffffffffffffffffffffffffffffffffff161461199b57600080fd5b600073ffffffffffffffffffffffffffffffffffffffff16600460009054906101000a900473ffffffffffffffffffffffffffffffffffffffff1673ffffffffffffffffffffffffffffffffffffffff16146119f657600080fd5b600073ffffffffffffffffffffffffffffffffffffffff168473ffffffffffffffffffffffffffffffffffffffff161415611a3057600080fd5b83600460006101000a81548173ffffffffffffffffffffffffffffffffffffffff021916908373ffffffffffffffffffffffffffffffffffffffff160217905550600160009054906101000a900473ffffffffffffffffffffffffffffffffffffffff1673ffffffffffffffffffffffffffffffffffffffff1663f2fde38b856040518263ffffffff1660e01b8152600401808273ffffffffffffffffffffffffffffffffffffffff1673ffffffffffffffffffffffffffffffffffffffff168152602001915050600060405180830381600087803b158015611b1257600080fd5b505af1158015611b26573d6000803e3d6000fd5b505050508373ffffffffffffffffffffffffffffffffffffffff16600160009054906101000a900473ffffffffffffffffffffffffffffffffffffffff1673ffffffffffffffffffffffffffffffffffffffff16638da5cb5b6040518163ffffffff1660e01b815260040160206040518083038186803b158015611ba957600080fd5b505afa158015611bbd573d6000803e3d6000fd5b505050506040513d6020811015611bd357600080fd5b810190808051906020019092919050505073ffffffffffffffffffffffffffffffffffffffff1614611c0457600080fd5b3073ffffffffffffffffffffffffffffffffffffffff16600260009054906101000a900473ffffffffffffffffffffffffffffffffffffffff1673ffffffffffffffffffffffffffffffffffffffff16638da5cb5b6040518163ffffffff1660e01b815260040160206040518083038186803b158015611c8357600080fd5b505afa158015611c97573d6000803e3d6000fd5b505050506040513d6020811015611cad57600080fd5b810190808051906020019092919050505073ffffffffffffffffffffffffffffffffffffffff161415611e6e57600260009054906101000a900473ffffffffffffffffffffffffffffffffffffffff1673ffffffffffffffffffffffffffffffffffffffff1663f2fde38b856040518263ffffffff1660e01b8152600401808273ffffffffffffffffffffffffffffffffffffffff1673ffffffffffffffffffffffffffffffffffffffff168152602001915050600060405180830381600087803b158015611d7b57600080fd5b505af1158015611d8f573d6000803e3d6000fd5b505050508373ffffffffffffffffffffffffffffffffffffffff16600260009054906101000a900473ffffffffffffffffffffffffffffffffffffffff1673ffffffffffffffffffffffffffffffffffffffff16638da5cb5b6040518163ffffffff1660e01b815260040160206040518083038186803b158015611e1257600080fd5b505afa158015611e26573d6000803e3d6000fd5b505050506040513d6020811015611e3c57600080fd5b810190808051906020019092919050505073ffffffffffffffffffffffffffffffffffffffff1614611e6d57600080fd5b5b3073ffffffffffffffffffffffffffffffffffffffff16600360009054906101000a900473ffffffffffffffffffffffffffffffffffffffff1673ffffffffffffffffffffffffffffffffffffffff16638da5cb5b6040518163ffffffff1660e01b815260040160206040518083038186803b158015611eed57600080fd5b505afa158015611f01573d6000803e3d6000fd5b505050506040513d6020811015611f1757600080fd5b810190808051906020019092919050505073ffffffffffffffffffffffffffffffffffffffff1614156120d857600360009054906101000a900473ffffffffffffffffffffffffffffffffffffffff1673ffffffffffffffffffffffffffffffffffffffff1663f2fde38b856040518263ffffffff1660e01b8152600401808273ffffffffffffffffffffffffffffffffffffffff1673ffffffffffffffffffffffffffffffffffffffff168152602001915050600060405180830381600087803b158015611fe557600080fd5b505af1158015611ff9573d6000803e3d6000fd5b505050508373ffffffffffffffffffffffffffffffffffffffff16600360009054906101000a900473ffffffffffffffffffffffffffffffffffffffff1673ffffffffffffffffffffffffffffffffffffffff16638da5cb5b6040518163ffffffff1660e01b815260040160206040518083038186803b15801561207c57600080fd5b505afa158015612090573d6000803e3d6000fd5b505050506040513d60208110156120a657600080fd5b810190808051906020019092919050505073ffffffffffffffffffffffffffffffffffffffff16146120d757600080fd5b5b3073ffffffffffffffffffffffffffffffffffffffff167fdb7cbacf8df312d794506c0cc9af07f64d29ca075796ea2e950a3832cc9a63dd600460009054906101000a900473ffffffffffffffffffffffffffffffffffffffff16604051808273ffffffffffffffffffffffffffffffffffffffff1673ffffffffffffffffffffffffffffffffffffffff16815260200191505060405180910390a2600191505092915050565b6005818154811061218c57fe5b90600052602060002090600202016000915090508060000160009054906101000a900473ffffffffffffffffffffffffffffffffffffffff16908060010154905082565b6000600460e01b7bffffffffffffffffffffffffffffffffffffffffffffffffffffffff1916600460e01b6000803373ffffffffffffffffffffffffffffffffffffffff1673ffffffffffffffffffffffffffffffffffffffff16815260200190815260200160002060010160009054906101000a900460e01b167bffffffffffffffffffffffffffffffffffffffffffffffffffffffff19161461227457600080fd5b81600160009054906101000a900473ffffffffffffffffffffffffffffffffffffffff1673ffffffffffffffffffffffffffffffffffffffff168173ffffffffffffffffffffffffffffffffffffffff16146122cf57600080fd5b6122d761684f565b6122df61686b565b60008673ffffffffffffffffffffffffffffffffffffffff1663e2b0caef6040518163ffffffff1660e01b8152600401602060405180830381600087803b15801561232957600080fd5b505af115801561233d573d6000803e3d6000fd5b505050506040513d602081101561235357600080fd5b8101908080519060200190929190505050905060008090506000600281111561237857fe5b82600281111561238457fe5b14806123a5575060028081111561239757fe5b8260028111156123a357fe5b145b1561260757600760008973ffffffffffffffffffffffffffffffffffffffff1673ffffffffffffffffffffffffffffffffffffffff1681526020019081526020016000206040518060400160405290816000820160009054906101000a900460ff161515151581526020016001820154815250509350836000015115612606576001600580549050038460200151101561258d5760056001600580549050038154811061244e57fe5b90600052602060002090600202016040518060400160405290816000820160009054906101000a900473ffffffffffffffffffffffffffffffffffffffff1673ffffffffffffffffffffffffffffffffffffffff1673ffffffffffffffffffffffffffffffffffffffff16815260200160018201548152505092508260058560200151815481106124db57fe5b906000526020600020906002020160008201518160000160006101000a81548173ffffffffffffffffffffffffffffffffffffffff021916908373ffffffffffffffffffffffffffffffffffffffff16021790555060208201518160010155905050836020015160076000856000015173ffffffffffffffffffffffffffffffffffffffff1673ffffffffffffffffffffffffffffffffffffffff168152602001908152602001600020600101819055505b60058054809190600190036125a2919061689e565b50600760008973ffffffffffffffffffffffffffffffffffffffff1673ffffffffffffffffffffffffffffffffffffffff168152602001908152602001600020600080820160006101000a81549060ff021916905560018201600090555050600190505b5b6001600281111561261457fe5b82600281111561262057fe5b1480612641575060028081111561263357fe5b82600281111561263f57fe5b145b156128a357600860008973ffffffffffffffffffffffffffffffffffffffff1673ffffffffffffffffffffffffffffffffffffffff1681526020019081526020016000206040518060400160405290816000820160009054906101000a900460ff1615151515815260200160018201548152505093508360000151156128a25760016006805490500384602001511015612829576006600160068054905003815481106126ea57fe5b90600052602060002090600202016040518060400160405290816000820160009054906101000a900473ffffffffffffffffffffffffffffffffffffffff1673ffffffffffffffffffffffffffffffffffffffff1673ffffffffffffffffffffffffffffffffffffffff168152602001600182015481525050925082600685602001518154811061277757fe5b906000526020600020906002020160008201518160000160006101000a81548173ffffffffffffffffffffffffffffffffffffffff021916908373ffffffffffffffffffffffffffffffffffffffff16021790555060208201518160010155905050836020015160086000856000015173ffffffffffffffffffffffffffffffffffffffff1673ffffffffffffffffffffffffffffffffffffffff168152602001908152602001600020600101819055505b600680548091906001900361283e919061689e565b50600860008973ffffffffffffffffffffffffffffffffffffffff1673ffffffffffffffffffffffffffffffffffffffff168152602001908152602001600020600080820160006101000a81549060ff021916905560018201600090555050600190505b5b8015612921578773ffffffffffffffffffffffffffffffffffffffff167fcdf1a50ea6b7de555bd409f8a4a53ea43c6dc6b4caa961889da9e005f21bbaa98560200151600060028111156128f357fe5b8560028111156128ff57fe5b1460405180838152602001821515151581526020019250505060405180910390a25b809550505050505092915050565b6000600160e01b7bffffffffffffffffffffffffffffffffffffffffffffffffffffffff1916600160e01b6000803373ffffffffffffffffffffffffffffffffffffffff1673ffffffffffffffffffffffffffffffffffffffff16815260200190815260200160002060010160009054906101000a900460e01b167bffffffffffffffffffffffffffffffffffffffffffffffffffffffff1916146129d357600080fd5b7f65787465726e616c546f6b656e496e637265617365417070726f76616c00000060008090505b600580549050811015612b435760058181548110612a1457fe5b906000526020600020906002020160000160009054906101000a900473ffffffffffffffffffffffffffffffffffffffff1673ffffffffffffffffffffffffffffffffffffffff1663c1786ab23360058481548110612a6f57fe5b906000526020600020906002020160010154856040518463ffffffff1660e01b8152600401808473ffffffffffffffffffffffffffffffffffffffff1673ffffffffffffffffffffffffffffffffffffffff1681526020018381526020018281526020019350505050602060405180830381600087803b158015612af257600080fd5b505af1158015612b06573d6000803e3d6000fd5b505050506040513d6020811015612b1c57600080fd5b8101908080519060200190929190505050612b3657600080fd5b80806001019150506129fa565b83600160009054906101000a900473ffffffffffffffffffffffffffffffffffffffff1673ffffffffffffffffffffffffffffffffffffffff168173ffffffffffffffffffffffffffffffffffffffff1614612b9e57600080fd5b600160009054906101000a900473ffffffffffffffffffffffffffffffffffffffff1673ffffffffffffffffffffffffffffffffffffffff1663ab751f718989896040518463ffffffff1660e01b8152600401808473ffffffffffffffffffffffffffffffffffffffff1673ffffffffffffffffffffffffffffffffffffffff1681526020018373ffffffffffffffffffffffffffffffffffffffff1673ffffffffffffffffffffffffffffffffffffffff1681526020018281526020019350505050602060405180830381600087803b158015612c7b57600080fd5b505af1158015612c8f573d6000803e3d6000fd5b505050506040513d6020811015612ca557600080fd5b8101908080519060200190929190505050935050600090505b600680549050811015612e075760068181548110612cd857fe5b906000526020600020906002020160000160009054906101000a900473ffffffffffffffffffffffffffffffffffffffff1673ffffffffffffffffffffffffffffffffffffffff16638043154d3360068481548110612d3357fe5b906000526020600020906002020160010154856040518463ffffffff1660e01b8152600401808473ffffffffffffffffffffffffffffffffffffffff1673ffffffffffffffffffffffffffffffffffffffff1681526020018381526020018281526020019350505050602060405180830381600087803b158015612db657600080fd5b505af1158015612dca573d6000803e3d6000fd5b505050506040513d6020811015612de057600080fd5b8101908080519060200190929190505050612dfa57600080fd5b8080600101915050612cbe565b5050949350505050565b600160009054906101000a900473ffffffffffffffffffffffffffffffffffffffff1681565b6000600160e01b7bffffffffffffffffffffffffffffffffffffffffffffffffffffffff1916600160e01b6000803373ffffffffffffffffffffffffffffffffffffffff1673ffffffffffffffffffffffffffffffffffffffff16815260200190815260200160002060010160009054906101000a900460e01b167bffffffffffffffffffffffffffffffffffffffffffffffffffffffff191614612edb57600080fd5b7f73656e644574686572000000000000000000000000000000000000000000000060008090505b60058054905081101561304b5760058181548110612f1c57fe5b906000526020600020906002020160000160009054906101000a900473ffffffffffffffffffffffffffffffffffffffff1673ffffffffffffffffffffffffffffffffffffffff1663c1786ab23360058481548110612f7757fe5b906000526020600020906002020160010154856040518463ffffffff1660e01b8152600401808473ffffffffffffffffffffffffffffffffffffffff1673ffffffffffffffffffffffffffffffffffffffff1681526020018381526020018281526020019350505050602060405180830381600087803b158015612ffa57600080fd5b505af115801561300e573d6000803e3d6000fd5b505050506040513d602081101561302457600080fd5b810190808051906020019092919050505061303e57600080fd5b8080600101915050612f02565b83600160009054906101000a900473ffffffffffffffffffffffffffffffffffffffff1673ffffffffffffffffffffffffffffffffffffffff168173ffffffffffffffffffffffffffffffffffffffff16146130a657600080fd5b600160009054906101000a900473ffffffffffffffffffffffffffffffffffffffff1673ffffffffffffffffffffffffffffffffffffffff1663cb16d4a288886040518363ffffffff1660e01b8152600401808381526020018273ffffffffffffffffffffffffffffffffffffffff1673ffffffffffffffffffffffffffffffffffffffff16815260200192505050602060405180830381600087803b15801561314f57600080fd5b505af1158015613163573d6000803e3d6000fd5b505050506040513d602081101561317957600080fd5b8101908080519060200190929190505050935050600090505b6006805490508110156132db57600681815481106131ac57fe5b906000526020600020906002020160000160009054906101000a900473ffffffffffffffffffffffffffffffffffffffff1673ffffffffffffffffffffffffffffffffffffffff16638043154d336006848154811061320757fe5b906000526020600020906002020160010154856040518463ffffffff1660e01b8152600401808473ffffffffffffffffffffffffffffffffffffffff1673ffffffffffffffffffffffffffffffffffffffff1681526020018381526020018281526020019350505050602060405180830381600087803b15801561328a57600080fd5b505af115801561329e573d6000803e3d6000fd5b505050506040513d60208110156132b457600080fd5b81019080805190602001909291905050506132ce57600080fd5b8080600101915050613192565b50509392505050565b6000600160e01b7bffffffffffffffffffffffffffffffffffffffffffffffffffffffff1916600160e01b6000803373ffffffffffffffffffffffffffffffffffffffff1673ffffffffffffffffffffffffffffffffffffffff16815260200190815260200160002060010160009054906101000a900460e01b167bffffffffffffffffffffffffffffffffffffffffffffffffffffffff19161461338857600080fd5b7f6d696e74546f6b656e730000000000000000000000000000000000000000000060008090505b6005805490508110156134f857600581815481106133c957fe5b906000526020600020906002020160000160009054906101000a900473ffffffffffffffffffffffffffffffffffffffff1673ffffffffffffffffffffffffffffffffffffffff1663c1786ab2336005848154811061342457fe5b906000526020600020906002020160010154856040518463ffffffff1660e01b8152600401808473ffffffffffffffffffffffffffffffffffffffff1673ffffffffffffffffffffffffffffffffffffffff1681526020018381526020018281526020019350505050602060405180830381600087803b1580156134a757600080fd5b505af11580156134bb573d6000803e3d6000fd5b505050506040513d60208110156134d157600080fd5b81019080805190602001909291905050506134eb57600080fd5b80806001019150506133af565b83600160009054906101000a900473ffffffffffffffffffffffffffffffffffffffff1673ffffffffffffffffffffffffffffffffffffffff168173ffffffffffffffffffffffffffffffffffffffff161461355357600080fd5b8573ffffffffffffffffffffffffffffffffffffffff163373ffffffffffffffffffffffffffffffffffffffff167f21f9c9a1a1f9a311a50f15fec5c1faa9e21fc9edf964f0fdecba5bd490484c5e896040518082815260200191505060405180910390a3600260009054906101000a900473ffffffffffffffffffffffffffffffffffffffff1673ffffffffffffffffffffffffffffffffffffffff166340c10f1987896040518363ffffffff1660e01b8152600401808373ffffffffffffffffffffffffffffffffffffffff1673ffffffffffffffffffffffffffffffffffffffff16815260200182815260200192505050602060405180830381600087803b15801561366157600080fd5b505af1158015613675573d6000803e3d6000fd5b505050506040513d602081101561368b57600080fd5b8101908080519060200190929190505050935050600090505b6006805490508110156137ed57600681815481106136be57fe5b906000526020600020906002020160000160009054906101000a900473ffffffffffffffffffffffffffffffffffffffff1673ffffffffffffffffffffffffffffffffffffffff16638043154d336006848154811061371957fe5b906000526020600020906002020160010154856040518463ffffffff1660e01b8152600401808473ffffffffffffffffffffffffffffffffffffffff1673ffffffffffffffffffffffffffffffffffffffff1681526020018381526020018281526020019350505050602060405180830381600087803b15801561379c57600080fd5b505af11580156137b0573d6000803e3d6000fd5b505050506040513d60208110156137c657600080fd5b81019080805190602001909291905050506137e057600080fd5b80806001019150506136a4565b50509392505050565b600081600160009054906101000a900473ffffffffffffffffffffffffffffffffffffffff1673ffffffffffffffffffffffffffffffffffffffff168173ffffffffffffffffffffffffffffffffffffffff161461385357600080fd5b60001515613860336167ad565b151514156138715760009150613930565b6000803373ffffffffffffffffffffffffffffffffffffffff1673ffffffffffffffffffffffffffffffffffffffff1681526020019081526020016000206000808201600090556001820160006101000a81549063ffffffff021916905550503373ffffffffffffffffffffffffffffffffffffffff163373ffffffffffffffffffffffffffffffffffffffff167f10bb2cf04cb8b902a8e736d494f1a51003be6d4b16ef6fb95ce62c38445023bf60405160405180910390a3600191505b50919050565b6000600160e01b7bffffffffffffffffffffffffffffffffffffffffffffffffffffffff1916600160e01b6000803373ffffffffffffffffffffffffffffffffffffffff1673ffffffffffffffffffffffffffffffffffffffff16815260200190815260200160002060010160009054906101000a900460e01b167bffffffffffffffffffffffffffffffffffffffffffffffffffffffff1916146139da57600080fd5b7f6275726e52657075746174696f6e00000000000000000000000000000000000060008090505b600580549050811015613b4a5760058181548110613a1b57fe5b906000526020600020906002020160000160009054906101000a900473ffffffffffffffffffffffffffffffffffffffff1673ffffffffffffffffffffffffffffffffffffffff1663c1786ab23360058481548110613a7657fe5b906000526020600020906002020160010154856040518463ffffffff1660e01b8152600401808473ffffffffffffffffffffffffffffffffffffffff1673ffffffffffffffffffffffffffffffffffffffff1681526020018381526020018281526020019350505050602060405180830381600087803b158015613af957600080fd5b505af1158015613b0d573d6000803e3d6000fd5b505050506040513d6020811015613b2357600080fd5b8101908080519060200190929190505050613b3d57600080fd5b8080600101915050613a01565b83600160009054906101000a900473ffffffffffffffffffffffffffffffffffffffff1673ffffffffffffffffffffffffffffffffffffffff168173ffffffffffffffffffffffffffffffffffffffff1614613ba557600080fd5b8573ffffffffffffffffffffffffffffffffffffffff163373ffffffffffffffffffffffffffffffffffffffff167f186d8887e1b22f9d9b16849c36baa748950d09d9c9b67a4a6ea140eaad00c21c896040518082815260200191505060405180910390a3600360009054906101000a900473ffffffffffffffffffffffffffffffffffffffff1673ffffffffffffffffffffffffffffffffffffffff16639dc29fac87896040518363ffffffff1660e01b8152600401808373ffffffffffffffffffffffffffffffffffffffff1673ffffffffffffffffffffffffffffffffffffffff16815260200182815260200192505050602060405180830381600087803b158015613cb357600080fd5b505af1158015613cc7573d6000803e3d6000fd5b505050506040513d6020811015613cdd57600080fd5b8101908080519060200190929190505050935050600090505b600680549050811015613e3f5760068181548110613d1057fe5b906000526020600020906002020160000160009054906101000a900473ffffffffffffffffffffffffffffffffffffffff1673ffffffffffffffffffffffffffffffffffffffff16638043154d3360068481548110613d6b57fe5b906000526020600020906002020160010154856040518463ffffffff1660e01b8152600401808473ffffffffffffffffffffffffffffffffffffffff1673ffffffffffffffffffffffffffffffffffffffff1681526020018381526020018281526020019350505050602060405180830381600087803b158015613dee57600080fd5b505af1158015613e02573d6000803e3d6000fd5b505050506040513d6020811015613e1857600080fd5b8101908080519060200190929190505050613e3257600080fd5b8080600101915050613cf6565b50509392505050565b60086020528060005260406000206000915090508060000160009054906101000a900460ff16908060010154905082565b60008082600160009054906101000a900473ffffffffffffffffffffffffffffffffffffffff1673ffffffffffffffffffffffffffffffffffffffff168173ffffffffffffffffffffffffffffffffffffffff1614613ed757600080fd5b6005805490506006805490509250925050915091565b600360009054906101000a900473ffffffffffffffffffffffffffffffffffffffff1681565b600081600160009054906101000a900473ffffffffffffffffffffffffffffffffffffffff1673ffffffffffffffffffffffffffffffffffffffff168173ffffffffffffffffffffffffffffffffffffffff1614613f7057600080fd5b600360009054906101000a900473ffffffffffffffffffffffffffffffffffffffff16915050919050565b600081600160009054906101000a900473ffffffffffffffffffffffffffffffffffffffff1673ffffffffffffffffffffffffffffffffffffffff168173ffffffffffffffffffffffffffffffffffffffff1614613ff857600080fd5b6000808573ffffffffffffffffffffffffffffffffffffffff1673ffffffffffffffffffffffffffffffffffffffff16815260200190815260200160002060010160009054906101000a900460e01b91505092915050565b600081600160009054906101000a900473ffffffffffffffffffffffffffffffffffffffff1673ffffffffffffffffffffffffffffffffffffffff168173ffffffffffffffffffffffffffffffffffffffff16146140ad57600080fd5b6140b6846167ad565b91505092915050565b6000600160e01b7bffffffffffffffffffffffffffffffffffffffffffffffffffffffff1916600160e01b6000803373ffffffffffffffffffffffffffffffffffffffff1673ffffffffffffffffffffffffffffffffffffffff16815260200190815260200160002060010160009054906101000a900460e01b167bffffffffffffffffffffffffffffffffffffffffffffffffffffffff19161461416357600080fd5b7f65787465726e616c546f6b656e5472616e73666572000000000000000000000060008090505b6005805490508110156142d357600581815481106141a457fe5b906000526020600020906002020160000160009054906101000a900473ffffffffffffffffffffffffffffffffffffffff1673ffffffffffffffffffffffffffffffffffffffff1663c1786ab233600584815481106141ff57fe5b906000526020600020906002020160010154856040518463ffffffff1660e01b8152600401808473ffffffffffffffffffffffffffffffffffffffff1673ffffffffffffffffffffffffffffffffffffffff1681526020018381526020018281526020019350505050602060405180830381600087803b15801561428257600080fd5b505af1158015614296573d6000803e3d6000fd5b505050506040513d60208110156142ac57600080fd5b81019080805190602001909291905050506142c657600080fd5b808060010191505061418a565b83600160009054906101000a900473ffffffffffffffffffffffffffffffffffffffff1673ffffffffffffffffffffffffffffffffffffffff168173ffffffffffffffffffffffffffffffffffffffff161461432e57600080fd5b600160009054906101000a900473ffffffffffffffffffffffffffffffffffffffff1673ffffffffffffffffffffffffffffffffffffffff1663dab0efff8989896040518463ffffffff1660e01b8152600401808473ffffffffffffffffffffffffffffffffffffffff1673ffffffffffffffffffffffffffffffffffffffff1681526020018373ffffffffffffffffffffffffffffffffffffffff1673ffffffffffffffffffffffffffffffffffffffff1681526020018281526020019350505050602060405180830381600087803b15801561440b57600080fd5b505af115801561441f573d6000803e3d6000fd5b505050506040513d602081101561443557600080fd5b8101908080519060200190929190505050935050600090505b600680549050811015614597576006818154811061446857fe5b906000526020600020906002020160000160009054906101000a900473ffffffffffffffffffffffffffffffffffffffff1673ffffffffffffffffffffffffffffffffffffffff16638043154d33600684815481106144c357fe5b906000526020600020906002020160010154856040518463ffffffff1660e01b8152600401808473ffffffffffffffffffffffffffffffffffffffff1673ffffffffffffffffffffffffffffffffffffffff1681526020018381526020018281526020019350505050602060405180830381600087803b15801561454657600080fd5b505af115801561455a573d6000803e3d6000fd5b505050506040513d602081101561457057600080fd5b810190808051906020019092919050505061458a57600080fd5b808060010191505061444e565b5050949350505050565b6000601060e01b7bffffffffffffffffffffffffffffffffffffffffffffffffffffffff1916601060e01b6000803373ffffffffffffffffffffffffffffffffffffffff1673ffffffffffffffffffffffffffffffffffffffff16815260200190815260200160002060010160009054906101000a900460e01b167bffffffffffffffffffffffffffffffffffffffffffffffffffffffff19161461464557600080fd5b81600160009054906101000a900473ffffffffffffffffffffffffffffffffffffffff1673ffffffffffffffffffffffffffffffffffffffff168173ffffffffffffffffffffffffffffffffffffffff16146146a057600080fd5b600160009054906101000a900473ffffffffffffffffffffffffffffffffffffffff1673ffffffffffffffffffffffffffffffffffffffff1663890ac46c86866040518363ffffffff1660e01b815260040180806020018281038252848482818152602001925080828437600081840152601f19601f8201169050808301925050509350505050602060405180830381600087803b15801561474157600080fd5b505af1158015614755573d6000803e3d6000fd5b505050506040513d602081101561476b57600080fd5b81019080805190602001909291905050509150509392505050565b60006060601060e01b7bffffffffffffffffffffffffffffffffffffffffffffffffffffffff1916601060e01b6000803373ffffffffffffffffffffffffffffffffffffffff1673ffffffffffffffffffffffffffffffffffffffff16815260200190815260200160002060010160009054906101000a900460e01b167bffffffffffffffffffffffffffffffffffffffffffffffffffffffff19161461482c57600080fd5b7f67656e6572696343616c6c00000000000000000000000000000000000000000060008090505b60058054905081101561499c576005818154811061486d57fe5b906000526020600020906002020160000160009054906101000a900473ffffffffffffffffffffffffffffffffffffffff1673ffffffffffffffffffffffffffffffffffffffff1663c1786ab233600584815481106148c857fe5b906000526020600020906002020160010154856040518463ffffffff1660e01b8152600401808473ffffffffffffffffffffffffffffffffffffffff1673ffffffffffffffffffffffffffffffffffffffff1681526020018381526020018281526020019350505050602060405180830381600087803b15801561494b57600080fd5b505af115801561495f573d6000803e3d6000fd5b505050506040513d602081101561497557600080fd5b810190808051906020019092919050505061498f57600080fd5b8080600101915050614853565b85600160009054906101000a900473ffffffffffffffffffffffffffffffffffffffff1673ffffffffffffffffffffffffffffffffffffffff168173ffffffffffffffffffffffffffffffffffffffff16146149f757600080fd5b600160009054906101000a900473ffffffffffffffffffffffffffffffffffffffff1673ffffffffffffffffffffffffffffffffffffffff16632bf164588b8b8b8a6040518563ffffffff1660e01b8152600401808573ffffffffffffffffffffffffffffffffffffffff1673ffffffffffffffffffffffffffffffffffffffff168152602001806020018381526020018281038252858582818152602001925080828437600081840152601f19601f82011690508083019250505095505050505050600060405180830381600087803b158015614ad457600080fd5b505af1158015614ae8573d6000803e3d6000fd5b505050506040513d6000823e3d601f19601f820116820180604052506040811015614b1257600080fd5b810190808051906020019092919080516040519392919084640100000000821115614b3c57600080fd5b83820191506020820185811115614b5257600080fd5b8251866001820283011164010000000082111715614b6f57600080fd5b8083526020830192505050908051906020019080838360005b83811015614ba3578082015181840152602081019050614b88565b50505050905090810190601f168015614bd05780820380516001836020036101000a031916815260200191505b506040525050509450945050600090505b600680549050811015614d2a5760068181548110614bfb57fe5b906000526020600020906002020160000160009054906101000a900473ffffffffffffffffffffffffffffffffffffffff1673ffffffffffffffffffffffffffffffffffffffff16638043154d3360068481548110614c5657fe5b906000526020600020906002020160010154856040518463ffffffff1660e01b8152600401808473ffffffffffffffffffffffffffffffffffffffff1673ffffffffffffffffffffffffffffffffffffffff1681526020018381526020018281526020019350505050602060405180830381600087803b158015614cd957600080fd5b505af1158015614ced573d6000803e3d6000fd5b505050506040513d6020811015614d0357600080fd5b8101908080519060200190929190505050614d1d57600080fd5b8080600101915050614be1565b50509550959350505050565b60006020528060005260406000206000915090508060000154908060010160009054906101000a900460e01b905082565b6000614d7161684f565b600760008573ffffffffffffffffffffffffffffffffffffffff1673ffffffffffffffffffffffffffffffffffffffff1681526020019081526020016000206040518060400160405290816000820160009054906101000a900460ff161515151581526020016001820154815250509050806000015115614e17576005816020015181548110614dfd57fe5b906000526020600020906002020160010154915050614ebf565b600860008573ffffffffffffffffffffffffffffffffffffffff1673ffffffffffffffffffffffffffffffffffffffff1681526020019081526020016000206040518060400160405290816000820160009054906101000a900460ff161515151581526020016001820154815250509050806000015115614ebd576006816020015181548110614ea357fe5b906000526020600020906002020160010154915050614ebf565b505b92915050565b600260009054906101000a900473ffffffffffffffffffffffffffffffffffffffff1681565b6000600460e01b7bffffffffffffffffffffffffffffffffffffffffffffffffffffffff1916600460e01b6000803373ffffffffffffffffffffffffffffffffffffffff1673ffffffffffffffffffffffffffffffffffffffff16815260200190815260200160002060010160009054906101000a900460e01b167bffffffffffffffffffffffffffffffffffffffffffffffffffffffff191614614f8f57600080fd5b81600160009054906101000a900473ffffffffffffffffffffffffffffffffffffffff1673ffffffffffffffffffffffffffffffffffffffff168173ffffffffffffffffffffffffffffffffffffffff1614614fea57600080fd5b60008573ffffffffffffffffffffffffffffffffffffffff1663e2b0caef6040518163ffffffff1660e01b8152600401602060405180830381600087803b15801561503457600080fd5b505af1158015615048573d6000803e3d6000fd5b505050506040513d602081101561505e57600080fd5b810190808051906020019092919050505090506000600281111561507e57fe5b81600281111561508a57fe5b14806150ab575060028081111561509d57fe5b8160028111156150a957fe5b145b156152a857600760008773ffffffffffffffffffffffffffffffffffffffff1673ffffffffffffffffffffffffffffffffffffffff16815260200190815260200160002060000160009054906101000a900460ff1661524157600560405180604001604052808873ffffffffffffffffffffffffffffffffffffffff168152602001878152509080600181540180825580915050906001820390600052602060002090600202016000909192909190915060008201518160000160006101000a81548173ffffffffffffffffffffffffffffffffffffffff021916908373ffffffffffffffffffffffffffffffffffffffff160217905550602082015181600101555050506040518060400160405280600115158152602001600160058054905003815250600760008873ffffffffffffffffffffffffffffffffffffffff1673ffffffffffffffffffffffffffffffffffffffff16815260200190815260200160002060008201518160000160006101000a81548160ff021916908315150217905550602082015181600101559050506152a7565b846005600760008973ffffffffffffffffffffffffffffffffffffffff1673ffffffffffffffffffffffffffffffffffffffff168152602001908152602001600020600101548154811061529157fe5b9060005260206000209060020201600101819055505b5b600160028111156152b557fe5b8160028111156152c157fe5b14806152e257506002808111156152d457fe5b8160028111156152e057fe5b145b156154df57600860008773ffffffffffffffffffffffffffffffffffffffff1673ffffffffffffffffffffffffffffffffffffffff16815260200190815260200160002060000160009054906101000a900460ff1661547857600660405180604001604052808873ffffffffffffffffffffffffffffffffffffffff168152602001878152509080600181540180825580915050906001820390600052602060002090600202016000909192909190915060008201518160000160006101000a81548173ffffffffffffffffffffffffffffffffffffffff021916908373ffffffffffffffffffffffffffffffffffffffff160217905550602082015181600101555050506040518060400160405280600115158152602001600160068054905003815250600860008873ffffffffffffffffffffffffffffffffffffffff1673ffffffffffffffffffffffffffffffffffffffff16815260200190815260200160002060008201518160000160006101000a81548160ff021916908315150217905550602082015181600101559050506154de565b846006600860008973ffffffffffffffffffffffffffffffffffffffff1673ffffffffffffffffffffffffffffffffffffffff16815260200190815260200160002060010154815481106154c857fe5b9060005260206000209060020201600101819055505b5b8573ffffffffffffffffffffffffffffffffffffffff167f78800d7333b8d0174a0845569e3913b7ce4a3c03ca444dd9904172fc14f2fdad86836040518083815260200182600281111561552f57fe5b60ff1681526020019250505060405180910390a26001925050509392505050565b6000600260e01b7bffffffffffffffffffffffffffffffffffffffffffffffffffffffff1916600260e01b6000803373ffffffffffffffffffffffffffffffffffffffff1673ffffffffffffffffffffffffffffffffffffffff16815260200190815260200160002060010160009054906101000a900460e01b167bffffffffffffffffffffffffffffffffffffffffffffffffffffffff1916146155f457600080fd5b7f7265676973746572536368656d6500000000000000000000000000000000000060008090505b600580549050811015615764576005818154811061563557fe5b906000526020600020906002020160000160009054906101000a900473ffffffffffffffffffffffffffffffffffffffff1673ffffffffffffffffffffffffffffffffffffffff1663c1786ab2336005848154811061569057fe5b906000526020600020906002020160010154856040518463ffffffff1660e01b8152600401808473ffffffffffffffffffffffffffffffffffffffff1673ffffffffffffffffffffffffffffffffffffffff1681526020018381526020018281526020019350505050602060405180830381600087803b15801561571357600080fd5b505af1158015615727573d6000803e3d6000fd5b505050506040513d602081101561573d57600080fd5b810190808051906020019092919050505061575757600080fd5b808060010191505061561b565b83600160009054906101000a900473ffffffffffffffffffffffffffffffffffffffff1673ffffffffffffffffffffffffffffffffffffffff168173ffffffffffffffffffffffffffffffffffffffff16146157bf57600080fd5b6157c76168d0565b6000808a73ffffffffffffffffffffffffffffffffffffffff1673ffffffffffffffffffffffffffffffffffffffff168152602001908152602001600020604051806040016040529081600082015481526020016001820160009054906101000a900460e01b7bffffffffffffffffffffffffffffffffffffffffffffffffffffffff19167bffffffffffffffffffffffffffffffffffffffffffffffffffffffff1916815250509050600060e01b7bffffffffffffffffffffffffffffffffffffffffffffffffffffffff19166000803373ffffffffffffffffffffffffffffffffffffffff1673ffffffffffffffffffffffffffffffffffffffff16815260200190815260200160002060010160009054906101000a900460e01b1982602001518918601f60e01b16167bffffffffffffffffffffffffffffffffffffffffffffffffffffffff19161461591c57600080fd5b600060e01b7bffffffffffffffffffffffffffffffffffffffffffffffffffffffff19166000803373ffffffffffffffffffffffffffffffffffffffff1673ffffffffffffffffffffffffffffffffffffffff16815260200190815260200160002060010160009054906101000a900460e01b19826020015116601f60e01b167bffffffffffffffffffffffffffffffffffffffffffffffffffffffff1916146159c557600080fd5b876000808b73ffffffffffffffffffffffffffffffffffffffff1673ffffffffffffffffffffffffffffffffffffffff16815260200190815260200160002060000181905550600160e01b87176000808b73ffffffffffffffffffffffffffffffffffffffff1673ffffffffffffffffffffffffffffffffffffffff16815260200190815260200160002060010160006101000a81548163ffffffff021916908360e01c02179055508873ffffffffffffffffffffffffffffffffffffffff163373ffffffffffffffffffffffffffffffffffffffff167f546816e99403df442acb68ef69562682a50762c20a3fb6b472f7af9923736cfc60405160405180910390a3600194505050600090505b600680549050811015615c1c5760068181548110615aed57fe5b906000526020600020906002020160000160009054906101000a900473ffffffffffffffffffffffffffffffffffffffff1673ffffffffffffffffffffffffffffffffffffffff16638043154d3360068481548110615b4857fe5b906000526020600020906002020160010154856040518463ffffffff1660e01b8152600401808473ffffffffffffffffffffffffffffffffffffffff1673ffffffffffffffffffffffffffffffffffffffff1681526020018381526020018281526020019350505050602060405180830381600087803b158015615bcb57600080fd5b505af1158015615bdf573d6000803e3d6000fd5b505050506040513d6020811015615bf557600080fd5b8101908080519060200190929190505050615c0f57600080fd5b8080600101915050615ad3565b5050949350505050565b60068181548110615c3357fe5b90600052602060002090600202016000915090508060000160009054906101000a900473ffffffffffffffffffffffffffffffffffffffff16908060010154905082565b6000600160e01b7bffffffffffffffffffffffffffffffffffffffffffffffffffffffff1916600160e01b6000803373ffffffffffffffffffffffffffffffffffffffff1673ffffffffffffffffffffffffffffffffffffffff16815260200190815260200160002060010160009054906101000a900460e01b167bffffffffffffffffffffffffffffffffffffffffffffffffffffffff191614615d1b57600080fd5b7f6d696e7452657075746174696f6e00000000000000000000000000000000000060008090505b600580549050811015615e8b5760058181548110615d5c57fe5b906000526020600020906002020160000160009054906101000a900473ffffffffffffffffffffffffffffffffffffffff1673ffffffffffffffffffffffffffffffffffffffff1663c1786ab23360058481548110615db757fe5b906000526020600020906002020160010154856040518463ffffffff1660e01b8152600401808473ffffffffffffffffffffffffffffffffffffffff1673ffffffffffffffffffffffffffffffffffffffff1681526020018381526020018281526020019350505050602060405180830381600087803b158015615e3a57600080fd5b505af1158015615e4e573d6000803e3d6000fd5b505050506040513d6020811015615e6457600080fd5b8101908080519060200190929190505050615e7e57600080fd5b8080600101915050615d42565b83600160009054906101000a900473ffffffffffffffffffffffffffffffffffffffff1673ffffffffffffffffffffffffffffffffffffffff168173ffffffffffffffffffffffffffffffffffffffff1614615ee657600080fd5b8573ffffffffffffffffffffffffffffffffffffffff163373ffffffffffffffffffffffffffffffffffffffff167f837f2931e3df0592458212be4e470025f197feb7a8e39deb5b7f1f1d42e6f262896040518082815260200191505060405180910390a3600360009054906101000a900473ffffffffffffffffffffffffffffffffffffffff1673ffffffffffffffffffffffffffffffffffffffff166340c10f1987896040518363ffffffff1660e01b8152600401808373ffffffffffffffffffffffffffffffffffffffff1673ffffffffffffffffffffffffffffffffffffffff16815260200182815260200192505050602060405180830381600087803b158015615ff457600080fd5b505af1158015616008573d6000803e3d6000fd5b505050506040513d602081101561601e57600080fd5b8101908080519060200190929190505050935050600090505b600680549050811015616180576006818154811061605157fe5b906000526020600020906002020160000160009054906101000a900473ffffffffffffffffffffffffffffffffffffffff1673ffffffffffffffffffffffffffffffffffffffff16638043154d33600684815481106160ac57fe5b906000526020600020906002020160010154856040518463ffffffff1660e01b8152600401808473ffffffffffffffffffffffffffffffffffffffff1673ffffffffffffffffffffffffffffffffffffffff1681526020018381526020018281526020019350505050602060405180830381600087803b15801561612f57600080fd5b505af1158015616143573d6000803e3d6000fd5b505050506040513d602081101561615957600080fd5b810190808051906020019092919050505061617357600080fd5b8080600101915050616037565b50509392505050565b600081600160009054906101000a900473ffffffffffffffffffffffffffffffffffffffff1673ffffffffffffffffffffffffffffffffffffffff168173ffffffffffffffffffffffffffffffffffffffff16146161e657600080fd5b600760008573ffffffffffffffffffffffffffffffffffffffff1673ffffffffffffffffffffffffffffffffffffffff16815260200190815260200160002060000160009054906101000a900460ff168061628d5750600860008573ffffffffffffffffffffffffffffffffffffffff1673ffffffffffffffffffffffffffffffffffffffff16815260200190815260200160002060000160009054906101000a900460ff165b91505092915050565b6000600160e01b7bffffffffffffffffffffffffffffffffffffffffffffffffffffffff1916600160e01b6000803373ffffffffffffffffffffffffffffffffffffffff1673ffffffffffffffffffffffffffffffffffffffff16815260200190815260200160002060010160009054906101000a900460e01b167bffffffffffffffffffffffffffffffffffffffffffffffffffffffff19161461633a57600080fd5b7f65787465726e616c546f6b656e5472616e7366657246726f6d0000000000000060008090505b6005805490508110156164aa576005818154811061637b57fe5b906000526020600020906002020160000160009054906101000a900473ffffffffffffffffffffffffffffffffffffffff1673ffffffffffffffffffffffffffffffffffffffff1663c1786ab233600584815481106163d657fe5b906000526020600020906002020160010154856040518463ffffffff1660e01b8152600401808473ffffffffffffffffffffffffffffffffffffffff1673ffffffffffffffffffffffffffffffffffffffff1681526020018381526020018281526020019350505050602060405180830381600087803b15801561645957600080fd5b505af115801561646d573d6000803e3d6000fd5b505050506040513d602081101561648357600080fd5b810190808051906020019092919050505061649d57600080fd5b8080600101915050616361565b83600160009054906101000a900473ffffffffffffffffffffffffffffffffffffffff1673ffffffffffffffffffffffffffffffffffffffff168173ffffffffffffffffffffffffffffffffffffffff161461650557600080fd5b600160009054906101000a900473ffffffffffffffffffffffffffffffffffffffff1673ffffffffffffffffffffffffffffffffffffffff1663b756d5a28a8a8a8a6040518563ffffffff1660e01b8152600401808573ffffffffffffffffffffffffffffffffffffffff1673ffffffffffffffffffffffffffffffffffffffff1681526020018473ffffffffffffffffffffffffffffffffffffffff1673ffffffffffffffffffffffffffffffffffffffff1681526020018373ffffffffffffffffffffffffffffffffffffffff1673ffffffffffffffffffffffffffffffffffffffff168152602001828152602001945050505050602060405180830381600087803b15801561661657600080fd5b505af115801561662a573d6000803e3d6000fd5b505050506040513d602081101561664057600080fd5b8101908080519060200190929190505050935050600090505b6006805490508110156167a2576006818154811061667357fe5b906000526020600020906002020160000160009054906101000a900473ffffffffffffffffffffffffffffffffffffffff1673ffffffffffffffffffffffffffffffffffffffff16638043154d33600684815481106166ce57fe5b906000526020600020906002020160010154856040518463ffffffff1660e01b8152600401808473ffffffffffffffffffffffffffffffffffffffff1673ffffffffffffffffffffffffffffffffffffffff1681526020018381526020018281526020019350505050602060405180830381600087803b15801561675157600080fd5b505af1158015616765573d6000803e3d6000fd5b505050506040513d602081101561677b57600080fd5b810190808051906020019092919050505061679557600080fd5b8080600101915050616659565b505095945050505050565b60008060e01b7bffffffffffffffffffffffffffffffffffffffffffffffffffffffff1916600160e01b6000808573ffffffffffffffffffffffffffffffffffffffff1673ffffffffffffffffffffffffffffffffffffffff16815260200190815260200160002060010160009054906101000a900460e01b167bffffffffffffffffffffffffffffffffffffffffffffffffffffffff191614159050919050565b6040518060400160405280600015158152602001600081525090565b6040518060400160405280600073ffffffffffffffffffffffffffffffffffffffff168152602001600080191681525090565b8154818355818111156168cb576002028160020283600052602060002091820191016168ca919061690c565b5b505050565b60405180604001604052806000801916815260200160007bffffffffffffffffffffffffffffffffffffffffffffffffffffffff191681525090565b61695791905b8082111561695357600080820160006101000a81549073ffffffffffffffffffffffffffffffffffffffff0219169055600182016000905550600201616912565b5090565b9056fea265627a7a723158204c73415b5f47f1c35811437f09f3fcfc6d60d5ef8f2e1203ffed7334636d9c6a64736f6c634300050d0032",
  "source": "pragma solidity 0.5.13;\n\nimport \"./Avatar.sol\";\nimport \"../globalConstraints/GlobalConstraintInterface.sol\";\n\n/**\n * @title Controller contract\n * @dev A controller controls the organizations tokens, reputation and avatar.\n * It is subject to a set of schemes and constraints that determine its behavior.\n * Each scheme has it own parameters and operation permissions.\n */\ncontract Controller {\n\n    struct Scheme {\n        bytes32 paramsHash;  // a hash \"configuration\" of the scheme\n        bytes4  permissions; // A bitwise flags of permissions,\n                             // All 0: Not registered,\n                             // 1st bit: Flag if the scheme is registered,\n                             // 2nd bit: Scheme can register other schemes\n                             // 3rd bit: Scheme can add/remove global constraints\n                             // 4th bit: Scheme can upgrade the controller\n                             // 5th bit: Scheme can call genericCall on behalf of\n                             //          the organization avatar\n    }\n\n    struct GlobalConstraint {\n        address gcAddress;\n        bytes32 params;\n    }\n\n    struct GlobalConstraintRegister {\n        bool isRegistered; //is registered\n        uint256 index;    //index at globalConstraints\n    }\n\n    mapping(address=>Scheme) public schemes;\n\n    Avatar public avatar;\n    DAOToken public nativeToken;\n    Reputation public nativeReputation;\n  // newController will point to the new controller after the present controller is upgraded\n    address public newController;\n  // globalConstraintsPre that determine pre conditions for all actions on the controller\n\n    GlobalConstraint[] public globalConstraintsPre;\n  // globalConstraintsPost that determine post conditions for all actions on the controller\n    GlobalConstraint[] public globalConstraintsPost;\n  // globalConstraintsRegisterPre indicate if a globalConstraints is registered as a pre global constraint\n    mapping(address=>GlobalConstraintRegister) public globalConstraintsRegisterPre;\n  // globalConstraintsRegisterPost indicate if a globalConstraints is registered as a post global constraint\n    mapping(address=>GlobalConstraintRegister) public globalConstraintsRegisterPost;\n\n    event MintReputation (address indexed _sender, address indexed _to, uint256 _amount);\n    event BurnReputation (address indexed _sender, address indexed _from, uint256 _amount);\n    event MintTokens (address indexed _sender, address indexed _beneficiary, uint256 _amount);\n    event RegisterScheme (address indexed _sender, address indexed _scheme);\n    event UnregisterScheme (address indexed _sender, address indexed _scheme);\n    event UpgradeController(address indexed _oldController, address _newController);\n\n    event AddGlobalConstraint(\n        address indexed _globalConstraint,\n        bytes32 _params,\n        GlobalConstraintInterface.CallPhase _when);\n\n    event RemoveGlobalConstraint(address indexed _globalConstraint, uint256 _index, bool _isPre);\n\n    constructor( Avatar _avatar) public {\n        avatar = _avatar;\n        nativeToken = avatar.nativeToken();\n        nativeReputation = avatar.nativeReputation();\n        schemes[msg.sender] = Scheme({paramsHash: bytes32(0), permissions: bytes4(0x0000001F)});\n        emit RegisterScheme (msg.sender, msg.sender);\n    }\n\n  // Do not allow mistaken calls:\n   // solhint-disable-next-line payable-fallback\n    function() external {\n        revert();\n    }\n\n  // Modifiers:\n    modifier onlyRegisteredScheme() {\n        require(schemes[msg.sender].permissions&bytes4(0x00000001) == bytes4(0x00000001));\n        _;\n    }\n\n    modifier onlyRegisteringSchemes() {\n        require(schemes[msg.sender].permissions&bytes4(0x00000002) == bytes4(0x00000002));\n        _;\n    }\n\n    modifier onlyGlobalConstraintsScheme() {\n        require(schemes[msg.sender].permissions&bytes4(0x00000004) == bytes4(0x00000004));\n        _;\n    }\n\n    modifier onlyUpgradingScheme() {\n        require(schemes[msg.sender].permissions&bytes4(0x00000008) == bytes4(0x00000008));\n        _;\n    }\n\n    modifier onlyGenericCallScheme() {\n        require(schemes[msg.sender].permissions&bytes4(0x00000010) == bytes4(0x00000010));\n        _;\n    }\n\n    modifier onlyMetaDataScheme() {\n        require(schemes[msg.sender].permissions&bytes4(0x00000010) == bytes4(0x00000010));\n        _;\n    }\n\n    modifier onlySubjectToConstraint(bytes32 func) {\n        uint256 idx;\n        for (idx = 0; idx < globalConstraintsPre.length; idx++) {\n            require(\n            (GlobalConstraintInterface(globalConstraintsPre[idx].gcAddress))\n            .pre(msg.sender, globalConstraintsPre[idx].params, func));\n        }\n        _;\n        for (idx = 0; idx < globalConstraintsPost.length; idx++) {\n            require(\n            (GlobalConstraintInterface(globalConstraintsPost[idx].gcAddress))\n            .post(msg.sender, globalConstraintsPost[idx].params, func));\n        }\n    }\n\n    modifier isAvatarValid(address _avatar) {\n        require(_avatar == address(avatar));\n        _;\n    }\n\n    /**\n     * @dev Mint `_amount` of reputation that are assigned to `_to` .\n     * @param  _amount amount of reputation to mint\n     * @param _to beneficiary address\n     * @return bool which represents a success\n     */\n    function mintReputation(uint256 _amount, address _to, address _avatar)\n    external\n    onlyRegisteredScheme\n    onlySubjectToConstraint(\"mintReputation\")\n    isAvatarValid(_avatar)\n    returns(bool)\n    {\n        emit MintReputation(msg.sender, _to, _amount);\n        return nativeReputation.mint(_to, _amount);\n    }\n\n    /**\n     * @dev Burns `_amount` of reputation from `_from`\n     * @param _amount amount of reputation to burn\n     * @param _from The address that will lose the reputation\n     * @return bool which represents a success\n     */\n    function burnReputation(uint256 _amount, address _from, address _avatar)\n    external\n    onlyRegisteredScheme\n    onlySubjectToConstraint(\"burnReputation\")\n    isAvatarValid(_avatar)\n    returns(bool)\n    {\n        emit BurnReputation(msg.sender, _from, _amount);\n        return nativeReputation.burn(_from, _amount);\n    }\n\n    /**\n     * @dev mint tokens .\n     * @param  _amount amount of token to mint\n     * @param _beneficiary beneficiary address\n     * @return bool which represents a success\n     */\n    function mintTokens(uint256 _amount, address _beneficiary, address _avatar)\n    external\n    onlyRegisteredScheme\n    onlySubjectToConstraint(\"mintTokens\")\n    isAvatarValid(_avatar)\n    returns(bool)\n    {\n        emit MintTokens(msg.sender, _beneficiary, _amount);\n        return nativeToken.mint(_beneficiary, _amount);\n    }\n\n  /**\n   * @dev register a scheme\n   * @param _scheme the address of the scheme\n   * @param _paramsHash a hashed configuration of the usage of the scheme\n   * @param _permissions the permissions the new scheme will have\n   * @return bool which represents a success\n   */\n    function registerScheme(address _scheme, bytes32 _paramsHash, bytes4 _permissions, address _avatar)\n    external\n    onlyRegisteringSchemes\n    onlySubjectToConstraint(\"registerScheme\")\n    isAvatarValid(_avatar)\n    returns(bool)\n    {\n\n        Scheme memory scheme = schemes[_scheme];\n\n    // Check scheme has at least the permissions it is changing, and at least the current permissions:\n    // Implementation is a bit messy. One must recall logic-circuits ^^\n\n    // produces non-zero if sender does not have all of the perms that are changing between old and new\n        require(bytes4(0x0000001f)&(_permissions^scheme.permissions)&(~schemes[msg.sender].permissions) == bytes4(0));\n\n    // produces non-zero if sender does not have all of the perms in the old scheme\n        require(bytes4(0x0000001f)&(scheme.permissions&(~schemes[msg.sender].permissions)) == bytes4(0));\n\n    // Add or change the scheme:\n        schemes[_scheme].paramsHash = _paramsHash;\n        schemes[_scheme].permissions = _permissions|bytes4(0x00000001);\n        emit RegisterScheme(msg.sender, _scheme);\n        return true;\n    }\n\n    /**\n     * @dev unregister a scheme\n     * @param _scheme the address of the scheme\n     * @return bool which represents a success\n     */\n    function unregisterScheme( address _scheme, address _avatar)\n    external\n    onlyRegisteringSchemes\n    onlySubjectToConstraint(\"unregisterScheme\")\n    isAvatarValid(_avatar)\n    returns(bool)\n    {\n    //check if the scheme is registered\n        if (_isSchemeRegistered(_scheme) == false) {\n            return false;\n        }\n    // Check the unregistering scheme has enough permissions:\n        require(bytes4(0x0000001f)&(schemes[_scheme].permissions&(~schemes[msg.sender].permissions)) == bytes4(0));\n\n    // Unregister:\n        emit UnregisterScheme(msg.sender, _scheme);\n        delete schemes[_scheme];\n        return true;\n    }\n\n    /**\n     * @dev unregister the caller's scheme\n     * @return bool which represents a success\n     */\n    function unregisterSelf(address _avatar) external isAvatarValid(_avatar) returns(bool) {\n        if (_isSchemeRegistered(msg.sender) == false) {\n            return false;\n        }\n        delete schemes[msg.sender];\n        emit UnregisterScheme(msg.sender, msg.sender);\n        return true;\n    }\n\n    /**\n     * @dev add or update Global Constraint\n     * @param _globalConstraint the address of the global constraint to be added.\n     * @param _params the constraint parameters hash.\n     * @return bool which represents a success\n     */\n    function addGlobalConstraint(address _globalConstraint, bytes32 _params, address _avatar)\n    external\n    onlyGlobalConstraintsScheme\n    isAvatarValid(_avatar)\n    returns(bool)\n    {\n        GlobalConstraintInterface.CallPhase when = GlobalConstraintInterface(_globalConstraint).when();\n        if ((when == GlobalConstraintInterface.CallPhase.Pre)||\n            (when == GlobalConstraintInterface.CallPhase.PreAndPost)) {\n            if (!globalConstraintsRegisterPre[_globalConstraint].isRegistered) {\n                globalConstraintsPre.push(GlobalConstraint(_globalConstraint, _params));\n                globalConstraintsRegisterPre[_globalConstraint] =\n                GlobalConstraintRegister(true, globalConstraintsPre.length-1);\n            }else {\n                globalConstraintsPre[globalConstraintsRegisterPre[_globalConstraint].index].params = _params;\n            }\n        }\n        if ((when == GlobalConstraintInterface.CallPhase.Post)||\n            (when == GlobalConstraintInterface.CallPhase.PreAndPost)) {\n            if (!globalConstraintsRegisterPost[_globalConstraint].isRegistered) {\n                globalConstraintsPost.push(GlobalConstraint(_globalConstraint, _params));\n                globalConstraintsRegisterPost[_globalConstraint] =\n                GlobalConstraintRegister(true, globalConstraintsPost.length-1);\n            }else {\n                globalConstraintsPost[globalConstraintsRegisterPost[_globalConstraint].index].params = _params;\n            }\n        }\n        emit AddGlobalConstraint(_globalConstraint, _params, when);\n        return true;\n    }\n\n    /**\n     * @dev remove Global Constraint\n     * @param _globalConstraint the address of the global constraint to be remove.\n     * @return bool which represents a success\n     */\n     // solhint-disable-next-line code-complexity\n    function removeGlobalConstraint (address _globalConstraint, address _avatar)\n    external\n    onlyGlobalConstraintsScheme\n    isAvatarValid(_avatar)\n    returns(bool)\n    {\n        GlobalConstraintRegister memory globalConstraintRegister;\n        GlobalConstraint memory globalConstraint;\n        GlobalConstraintInterface.CallPhase when = GlobalConstraintInterface(_globalConstraint).when();\n        bool retVal = false;\n\n        if ((when == GlobalConstraintInterface.CallPhase.Pre)||\n            (when == GlobalConstraintInterface.CallPhase.PreAndPost)) {\n            globalConstraintRegister = globalConstraintsRegisterPre[_globalConstraint];\n            if (globalConstraintRegister.isRegistered) {\n                if (globalConstraintRegister.index < globalConstraintsPre.length-1) {\n                    globalConstraint = globalConstraintsPre[globalConstraintsPre.length-1];\n                    globalConstraintsPre[globalConstraintRegister.index] = globalConstraint;\n                    globalConstraintsRegisterPre[globalConstraint.gcAddress].index = globalConstraintRegister.index;\n                }\n                globalConstraintsPre.length--;\n                delete globalConstraintsRegisterPre[_globalConstraint];\n                retVal = true;\n            }\n        }\n        if ((when == GlobalConstraintInterface.CallPhase.Post)||\n            (when == GlobalConstraintInterface.CallPhase.PreAndPost)) {\n            globalConstraintRegister = globalConstraintsRegisterPost[_globalConstraint];\n            if (globalConstraintRegister.isRegistered) {\n                if (globalConstraintRegister.index < globalConstraintsPost.length-1) {\n                    globalConstraint = globalConstraintsPost[globalConstraintsPost.length-1];\n                    globalConstraintsPost[globalConstraintRegister.index] = globalConstraint;\n                    globalConstraintsRegisterPost[globalConstraint.gcAddress].index = globalConstraintRegister.index;\n                }\n                globalConstraintsPost.length--;\n                delete globalConstraintsRegisterPost[_globalConstraint];\n                retVal = true;\n            }\n        }\n        if (retVal) {\n            emit RemoveGlobalConstraint(\n            _globalConstraint,\n            globalConstraintRegister.index,\n            when == GlobalConstraintInterface.CallPhase.Pre\n            );\n        }\n        return retVal;\n    }\n\n  /**\n    * @dev upgrade the Controller\n    *      The function will trigger an event 'UpgradeController'.\n    * @param  _newController the address of the new controller.\n    * @return bool which represents a success\n    */\n    function upgradeController(address _newController, Avatar _avatar)\n    external\n    onlyUpgradingScheme\n    isAvatarValid(address(_avatar))\n    returns(bool)\n    {\n        require(newController == address(0));   // so the upgrade could be done once for a contract.\n        require(_newController != address(0));\n        newController = _newController;\n        avatar.transferOwnership(_newController);\n        require(avatar.owner() == _newController);\n        if (nativeToken.owner() == address(this)) {\n            nativeToken.transferOwnership(_newController);\n            require(nativeToken.owner() == _newController);\n        }\n        if (nativeReputation.owner() == address(this)) {\n            nativeReputation.transferOwnership(_newController);\n            require(nativeReputation.owner() == _newController);\n        }\n        emit UpgradeController(address(this), newController);\n        return true;\n    }\n\n    /**\n    * @dev perform a generic call to an arbitrary contract\n    * @param _contract  the contract's address to call\n    * @param _data ABI-encoded contract call to call `_contract` address.\n    * @param _avatar the controller's avatar address\n    * @param _value value (ETH) to transfer with the transaction\n    * @return bool -success\n    *         bytes  - the return value of the called _contract's function.\n    */\n    function genericCall(address _contract, bytes calldata _data, Avatar _avatar, uint256 _value)\n    external\n    onlyGenericCallScheme\n    onlySubjectToConstraint(\"genericCall\")\n    isAvatarValid(address(_avatar))\n    returns (bool, bytes memory)\n    {\n        return avatar.genericCall(_contract, _data, _value);\n    }\n\n  /**\n   * @dev send some ether\n   * @param _amountInWei the amount of ether (in Wei) to send\n   * @param _to address of the beneficiary\n   * @return bool which represents a success\n   */\n    function sendEther(uint256 _amountInWei, address payable _to, Avatar _avatar)\n    external\n    onlyRegisteredScheme\n    onlySubjectToConstraint(\"sendEther\")\n    isAvatarValid(address(_avatar))\n    returns(bool)\n    {\n        return avatar.sendEther(_amountInWei, _to);\n    }\n\n    /**\n    * @dev send some amount of arbitrary ERC20 Tokens\n    * @param _externalToken the address of the Token Contract\n    * @param _to address of the beneficiary\n    * @param _value the amount of ether (in Wei) to send\n    * @return bool which represents a success\n    */\n    function externalTokenTransfer(IERC20 _externalToken, address _to, uint256 _value, Avatar _avatar)\n    external\n    onlyRegisteredScheme\n    onlySubjectToConstraint(\"externalTokenTransfer\")\n    isAvatarValid(address(_avatar))\n    returns(bool)\n    {\n        return avatar.externalTokenTransfer(_externalToken, _to, _value);\n    }\n\n    /**\n    * @dev transfer token \"from\" address \"to\" address\n    *      One must to approve the amount of tokens which can be spend from the\n    *      \"from\" account.This can be done using externalTokenApprove.\n    * @param _externalToken the address of the Token Contract\n    * @param _from address of the account to send from\n    * @param _to address of the beneficiary\n    * @param _value the amount of ether (in Wei) to send\n    * @return bool which represents a success\n    */\n    function externalTokenTransferFrom(\n    IERC20 _externalToken,\n    address _from,\n    address _to,\n    uint256 _value,\n    Avatar _avatar)\n    external\n    onlyRegisteredScheme\n    onlySubjectToConstraint(\"externalTokenTransferFrom\")\n    isAvatarValid(address(_avatar))\n    returns(bool)\n    {\n        return avatar.externalTokenTransferFrom(_externalToken, _from, _to, _value);\n    }\n\n    /**\n    * @dev externalTokenApproval approve the spender address to spend a specified amount of tokens\n    *      on behalf of msg.sender.\n    * @param _externalToken the address of the Token Contract\n    * @param _spender address\n    * @param _value the amount of ether (in Wei) which the approval is referring to.\n    * @return bool which represents a success\n    */\n    function externalTokenApproval(IERC20 _externalToken, address _spender, uint256 _value, Avatar _avatar)\n    external\n    onlyRegisteredScheme\n    onlySubjectToConstraint(\"externalTokenIncreaseApproval\")\n    isAvatarValid(address(_avatar))\n    returns(bool)\n    {\n        return avatar.externalTokenApproval(_externalToken, _spender, _value);\n    }\n\n    /**\n    * @dev metaData emits an event with a string, should contain the hash of some meta data.\n    * @param _metaData a string representing a hash of the meta data\n    * @param _avatar Avatar\n    * @return bool which represents a success\n    */\n    function metaData(string calldata _metaData, Avatar _avatar)\n        external\n        onlyMetaDataScheme\n        isAvatarValid(address(_avatar))\n        returns(bool)\n        {\n        return avatar.metaData(_metaData);\n    }\n\n    /**\n     * @dev getNativeReputation\n     * @param _avatar the organization avatar.\n     * @return organization native reputation\n     */\n    function getNativeReputation(address _avatar) external isAvatarValid(_avatar) view returns(address) {\n        return address(nativeReputation);\n    }\n\n    function isSchemeRegistered(address _scheme, address _avatar) external isAvatarValid(_avatar) view returns(bool) {\n        return _isSchemeRegistered(_scheme);\n    }\n\n    function getSchemeParameters(address _scheme, address _avatar)\n    external\n    isAvatarValid(_avatar)\n    view\n    returns(bytes32)\n    {\n        return schemes[_scheme].paramsHash;\n    }\n\n    function getSchemePermissions(address _scheme, address _avatar)\n    external\n    isAvatarValid(_avatar)\n    view\n    returns(bytes4)\n    {\n        return schemes[_scheme].permissions;\n    }\n\n    function getGlobalConstraintParameters(address _globalConstraint, address) external view returns(bytes32) {\n\n        GlobalConstraintRegister memory register = globalConstraintsRegisterPre[_globalConstraint];\n\n        if (register.isRegistered) {\n            return globalConstraintsPre[register.index].params;\n        }\n\n        register = globalConstraintsRegisterPost[_globalConstraint];\n\n        if (register.isRegistered) {\n            return globalConstraintsPost[register.index].params;\n        }\n    }\n\n   /**\n    * @dev globalConstraintsCount return the global constraint pre and post count\n    * @return uint256 globalConstraintsPre count.\n    * @return uint256 globalConstraintsPost count.\n    */\n    function globalConstraintsCount(address _avatar)\n        external\n        isAvatarValid(_avatar)\n        view\n        returns(uint, uint)\n        {\n        return (globalConstraintsPre.length, globalConstraintsPost.length);\n    }\n\n    function isGlobalConstraintRegistered(address _globalConstraint, address _avatar)\n        external\n        isAvatarValid(_avatar)\n        view\n        returns(bool)\n        {\n        return (globalConstraintsRegisterPre[_globalConstraint].isRegistered ||\n                globalConstraintsRegisterPost[_globalConstraint].isRegistered);\n    }\n\n    function _isSchemeRegistered(address _scheme) private view returns(bool) {\n        return (schemes[_scheme].permissions&bytes4(0x00000001) != bytes4(0));\n    }\n}\n",
  "sourcePath": "@daostack/arc/contracts/controller/Controller.sol",
  "compiler": {
    "name": "solc",
    "version": "0.5.13+commit.5b0b510c.Emscripten.clang"
  },
  "schemaVersion": "3.0.23",
  "updatedAt": "2020-02-16T02:48:48.692Z",
  "devdoc": {
    "details": "A controller controls the organizations tokens, reputation and avatar. It is subject to a set of schemes and constraints that determine its behavior. Each scheme has it own parameters and operation permissions.",
    "methods": {
      "addGlobalConstraint(address,bytes32,address)": {
        "details": "add or update Global Constraint",
        "params": {
          "_globalConstraint": "the address of the global constraint to be added.",
          "_params": "the constraint parameters hash."
        },
        "return": "bool which represents a success"
      },
      "burnReputation(uint256,address,address)": {
        "details": "Burns `_amount` of reputation from `_from`",
        "params": {
          "_amount": "amount of reputation to burn",
          "_from": "The address that will lose the reputation"
        },
        "return": "bool which represents a success"
      },
      "externalTokenApproval(address,address,uint256,address)": {
        "details": "externalTokenApproval approve the spender address to spend a specified amount of tokens     on behalf of msg.sender.",
        "params": {
          "_externalToken": "the address of the Token Contract",
          "_spender": "address",
          "_value": "the amount of ether (in Wei) which the approval is referring to."
        },
        "return": "bool which represents a success"
      },
      "externalTokenTransfer(address,address,uint256,address)": {
        "details": "send some amount of arbitrary ERC20 Tokens",
        "params": {
          "_externalToken": "the address of the Token Contract",
          "_to": "address of the beneficiary",
          "_value": "the amount of ether (in Wei) to send"
        },
        "return": "bool which represents a success"
      },
      "externalTokenTransferFrom(address,address,address,uint256,address)": {
        "details": "transfer token \"from\" address \"to\" address     One must to approve the amount of tokens which can be spend from the     \"from\" account.This can be done using externalTokenApprove.",
        "params": {
          "_externalToken": "the address of the Token Contract",
          "_from": "address of the account to send from",
          "_to": "address of the beneficiary",
          "_value": "the amount of ether (in Wei) to send"
        },
        "return": "bool which represents a success"
      },
      "genericCall(address,bytes,address,uint256)": {
        "details": "perform a generic call to an arbitrary contract",
        "params": {
          "_avatar": "the controller's avatar address",
          "_contract": "the contract's address to call",
          "_data": "ABI-encoded contract call to call `_contract` address.",
          "_value": "value (ETH) to transfer with the transaction"
        },
        "return": "bool -success        bytes  - the return value of the called _contract's function."
      },
      "getNativeReputation(address)": {
        "details": "getNativeReputation",
        "params": {
          "_avatar": "the organization avatar."
        },
        "return": "organization native reputation"
      },
      "globalConstraintsCount(address)": {
        "details": "globalConstraintsCount return the global constraint pre and post count",
        "return": "uint256 globalConstraintsPre count.uint256 globalConstraintsPost count."
      },
      "metaData(string,address)": {
        "details": "metaData emits an event with a string, should contain the hash of some meta data.",
        "params": {
          "_avatar": "Avatar",
          "_metaData": "a string representing a hash of the meta data"
        },
        "return": "bool which represents a success"
      },
      "mintReputation(uint256,address,address)": {
        "details": "Mint `_amount` of reputation that are assigned to `_to` .",
        "params": {
          "_amount": "amount of reputation to mint",
          "_to": "beneficiary address"
        },
        "return": "bool which represents a success"
      },
      "mintTokens(uint256,address,address)": {
        "details": "mint tokens .",
        "params": {
          "_amount": "amount of token to mint",
          "_beneficiary": "beneficiary address"
        },
        "return": "bool which represents a success"
      },
      "registerScheme(address,bytes32,bytes4,address)": {
        "details": "register a scheme",
        "params": {
          "_paramsHash": "a hashed configuration of the usage of the scheme",
          "_permissions": "the permissions the new scheme will have",
          "_scheme": "the address of the scheme"
        },
        "return": "bool which represents a success"
      },
      "removeGlobalConstraint(address,address)": {
        "details": "remove Global Constraint",
        "params": {
          "_globalConstraint": "the address of the global constraint to be remove."
        },
        "return": "bool which represents a success"
      },
      "sendEther(uint256,address,address)": {
        "details": "send some ether",
        "params": {
          "_amountInWei": "the amount of ether (in Wei) to send",
          "_to": "address of the beneficiary"
        },
        "return": "bool which represents a success"
      },
      "unregisterScheme(address,address)": {
        "details": "unregister a scheme",
        "params": {
          "_scheme": "the address of the scheme"
        },
        "return": "bool which represents a success"
      },
      "unregisterSelf(address)": {
        "details": "unregister the caller's scheme",
        "return": "bool which represents a success"
      },
      "upgradeController(address,address)": {
        "details": "upgrade the Controller     The function will trigger an event 'UpgradeController'.",
        "params": {
          "_newController": "the address of the new controller."
        },
        "return": "bool which represents a success"
      }
    },
    "title": "Controller contract"
  },
  "userdoc": {
    "methods": {}
  }
}