{
  "contractName": "Hourglass",
  "abi": [
    {
      "inputs": [],
      "payable": false,
      "stateMutability": "nonpayable",
      "type": "constructor"
    },
    {
      "anonymous": false,
      "inputs": [
        {
          "indexed": true,
          "internalType": "address",
          "name": "from",
          "type": "address"
        },
        {
          "indexed": true,
          "internalType": "address",
          "name": "to",
          "type": "address"
        },
        {
          "indexed": false,
          "internalType": "uint256",
          "name": "tokens",
          "type": "uint256"
        }
      ],
      "name": "Transfer",
      "type": "event"
    },
    {
      "anonymous": false,
      "inputs": [
        {
          "indexed": true,
          "internalType": "address",
          "name": "customerAddress",
          "type": "address"
        },
        {
          "indexed": false,
          "internalType": "uint256",
          "name": "ethereumReinvested",
          "type": "uint256"
        },
        {
          "indexed": false,
          "internalType": "uint256",
          "name": "tokensMinted",
          "type": "uint256"
        }
      ],
      "name": "onReinvestment",
      "type": "event"
    },
    {
      "anonymous": false,
      "inputs": [
        {
          "indexed": true,
          "internalType": "address",
          "name": "customerAddress",
          "type": "address"
        },
        {
          "indexed": false,
          "internalType": "uint256",
          "name": "incomingEthereum",
          "type": "uint256"
        },
        {
          "indexed": false,
          "internalType": "uint256",
          "name": "tokensMinted",
          "type": "uint256"
        },
        {
          "indexed": true,
          "internalType": "address",
          "name": "referredBy",
          "type": "address"
        }
      ],
      "name": "onTokenPurchase",
      "type": "event"
    },
    {
      "anonymous": false,
      "inputs": [
        {
          "indexed": true,
          "internalType": "address",
          "name": "customerAddress",
          "type": "address"
        },
        {
          "indexed": false,
          "internalType": "uint256",
          "name": "tokensBurned",
          "type": "uint256"
        },
        {
          "indexed": false,
          "internalType": "uint256",
          "name": "ethereumEarned",
          "type": "uint256"
        }
      ],
      "name": "onTokenSell",
      "type": "event"
    },
    {
      "anonymous": false,
      "inputs": [
        {
          "indexed": true,
          "internalType": "address",
          "name": "customerAddress",
          "type": "address"
        },
        {
          "indexed": false,
          "internalType": "uint256",
          "name": "ethereumWithdrawn",
          "type": "uint256"
        }
      ],
      "name": "onWithdraw",
      "type": "event"
    },
    {
      "payable": true,
      "stateMutability": "payable",
      "type": "fallback"
    },
    {
      "constant": true,
      "inputs": [
        {
          "internalType": "address",
          "name": "",
          "type": "address"
        }
      ],
      "name": "administrators",
      "outputs": [
        {
          "internalType": "bool",
          "name": "",
          "type": "bool"
        }
      ],
      "payable": false,
      "stateMutability": "view",
      "type": "function"
    },
    {
      "constant": true,
      "inputs": [],
      "name": "decimals",
      "outputs": [
        {
          "internalType": "uint8",
          "name": "",
          "type": "uint8"
        }
      ],
      "payable": false,
      "stateMutability": "view",
      "type": "function"
    },
    {
      "constant": true,
      "inputs": [],
      "name": "hatchOpen",
      "outputs": [
        {
          "internalType": "bool",
          "name": "",
          "type": "bool"
        }
      ],
      "payable": false,
      "stateMutability": "view",
      "type": "function"
    },
    {
      "constant": true,
      "inputs": [],
      "name": "name",
      "outputs": [
        {
          "internalType": "string",
          "name": "",
          "type": "string"
        }
      ],
      "payable": false,
      "stateMutability": "view",
      "type": "function"
    },
    {
      "constant": true,
      "inputs": [],
      "name": "onlyAmbassadors",
      "outputs": [
        {
          "internalType": "bool",
          "name": "",
          "type": "bool"
        }
      ],
      "payable": false,
      "stateMutability": "view",
      "type": "function"
    },
    {
      "constant": true,
      "inputs": [],
      "name": "symbol",
      "outputs": [
        {
          "internalType": "string",
          "name": "",
          "type": "string"
        }
      ],
      "payable": false,
      "stateMutability": "view",
      "type": "function"
    },
    {
      "constant": false,
      "inputs": [],
      "name": "buy",
      "outputs": [
        {
          "internalType": "uint256",
          "name": "",
          "type": "uint256"
        }
      ],
      "payable": true,
      "stateMutability": "payable",
      "type": "function"
    },
    {
      "constant": false,
      "inputs": [],
      "name": "reinvest",
      "outputs": [],
      "payable": false,
      "stateMutability": "nonpayable",
      "type": "function"
    },
    {
      "constant": false,
      "inputs": [],
      "name": "exit",
      "outputs": [],
      "payable": false,
      "stateMutability": "nonpayable",
      "type": "function"
    },
    {
      "constant": false,
      "inputs": [],
      "name": "withdraw",
      "outputs": [],
      "payable": false,
      "stateMutability": "nonpayable",
      "type": "function"
    },
    {
      "constant": false,
      "inputs": [
        {
          "internalType": "uint256",
          "name": "_amountOfTokens",
          "type": "uint256"
        }
      ],
      "name": "sell",
      "outputs": [],
      "payable": false,
      "stateMutability": "nonpayable",
      "type": "function"
    },
    {
      "constant": false,
      "inputs": [
        {
          "internalType": "address",
          "name": "_toAddress",
          "type": "address"
        },
        {
          "internalType": "uint256",
          "name": "_amountOfTokens",
          "type": "uint256"
        }
      ],
      "name": "transfer",
      "outputs": [
        {
          "internalType": "bool",
          "name": "",
          "type": "bool"
        }
      ],
      "payable": false,
      "stateMutability": "nonpayable",
      "type": "function"
    },
    {
      "constant": false,
      "inputs": [],
      "name": "disableInitialStage",
      "outputs": [],
      "payable": false,
      "stateMutability": "nonpayable",
      "type": "function"
    },
    {
      "constant": false,
      "inputs": [
        {
          "internalType": "address",
          "name": "_identifier",
          "type": "address"
        },
        {
          "internalType": "bool",
          "name": "_status",
          "type": "bool"
        }
      ],
      "name": "setAdministrator",
      "outputs": [],
      "payable": false,
      "stateMutability": "nonpayable",
      "type": "function"
    },
    {
      "constant": false,
      "inputs": [
        {
          "internalType": "string",
          "name": "_name",
          "type": "string"
        }
      ],
      "name": "setName",
      "outputs": [],
      "payable": false,
      "stateMutability": "nonpayable",
      "type": "function"
    },
    {
      "constant": false,
      "inputs": [
        {
          "internalType": "string",
          "name": "_symbol",
          "type": "string"
        }
      ],
      "name": "setSymbol",
      "outputs": [],
      "payable": false,
      "stateMutability": "nonpayable",
      "type": "function"
    },
    {
      "constant": true,
      "inputs": [],
      "name": "totalEthereumBalance",
      "outputs": [
        {
          "internalType": "uint256",
          "name": "",
          "type": "uint256"
        }
      ],
      "payable": false,
      "stateMutability": "view",
      "type": "function"
    },
    {
      "constant": true,
      "inputs": [],
      "name": "totalSupply",
      "outputs": [
        {
          "internalType": "uint256",
          "name": "",
          "type": "uint256"
        }
      ],
      "payable": false,
      "stateMutability": "view",
      "type": "function"
    },
    {
      "constant": true,
      "inputs": [],
      "name": "myTokens",
      "outputs": [
        {
          "internalType": "uint256",
          "name": "",
          "type": "uint256"
        }
      ],
      "payable": false,
      "stateMutability": "view",
      "type": "function"
    },
    {
      "constant": true,
      "inputs": [],
      "name": "myDividends",
      "outputs": [
        {
          "internalType": "uint256",
          "name": "",
          "type": "uint256"
        }
      ],
      "payable": false,
      "stateMutability": "view",
      "type": "function"
    },
    {
      "constant": true,
      "inputs": [
        {
          "internalType": "address",
          "name": "_customerAddress",
          "type": "address"
        }
      ],
      "name": "balanceOf",
      "outputs": [
        {
          "internalType": "uint256",
          "name": "",
          "type": "uint256"
        }
      ],
      "payable": false,
      "stateMutability": "view",
      "type": "function"
    },
    {
      "constant": true,
      "inputs": [
        {
          "internalType": "address",
          "name": "_customerAddress",
          "type": "address"
        }
      ],
      "name": "dividendsOf",
      "outputs": [
        {
          "internalType": "uint256",
          "name": "",
          "type": "uint256"
        }
      ],
      "payable": false,
      "stateMutability": "view",
      "type": "function"
    },
    {
      "constant": true,
      "inputs": [],
      "name": "sellPrice",
      "outputs": [
        {
          "internalType": "uint256",
          "name": "",
          "type": "uint256"
        }
      ],
      "payable": false,
      "stateMutability": "view",
      "type": "function"
    },
    {
      "constant": true,
      "inputs": [],
      "name": "buyPrice",
      "outputs": [
        {
          "internalType": "uint256",
          "name": "",
          "type": "uint256"
        }
      ],
      "payable": false,
      "stateMutability": "view",
      "type": "function"
    },
    {
      "constant": true,
      "inputs": [
        {
          "internalType": "uint256",
          "name": "_ethereumToSpend",
          "type": "uint256"
        }
      ],
      "name": "calculateTokensReceived",
      "outputs": [
        {
          "internalType": "uint256",
          "name": "",
          "type": "uint256"
        }
      ],
      "payable": false,
      "stateMutability": "view",
      "type": "function"
    },
    {
      "constant": true,
      "inputs": [
        {
          "internalType": "uint256",
          "name": "_tokensToSell",
          "type": "uint256"
        }
      ],
      "name": "calculateEthereumReceived",
      "outputs": [
        {
          "internalType": "uint256",
          "name": "",
          "type": "uint256"
        }
      ],
      "payable": false,
      "stateMutability": "view",
      "type": "function"
    }
  ],
  "bytecode": "0x60806040526040518060400160405280601481526020017f486f7573696e6720426f6e64656420546f6b656e0000000000000000000000008152506000908051906020019062000051929190620001be565b506040518060400160405280600381526020017f4842540000000000000000000000000000000000000000000000000000000000815250600190805190602001906200009f929190620001be565b507327ea55b89b667560a6b35b14e8a3476fcaa6aa34600360006101000a81548173ffffffffffffffffffffffffffffffffffffffff021916908373ffffffffffffffffffffffffffffffffffffffff16021790555060006008556000600b60006101000a81548160ff0219169083151502179055506001600b60016101000a81548160ff0219169083151502179055503480156200013d57600080fd5b506001600a6000600360009054906101000a900473ffffffffffffffffffffffffffffffffffffffff1673ffffffffffffffffffffffffffffffffffffffff1673ffffffffffffffffffffffffffffffffffffffff16815260200190815260200160002060006101000a81548160ff0219169083151502179055506200026d565b828054600181600116156101000203166002900490600052602060002090601f016020900481019282601f106200020157805160ff191683800117855562000232565b8280016001018555821562000232579182015b828111156200023157825182559160200191906001019062000214565b5b50905062000241919062000245565b5090565b6200026a91905b80821115620002665760008160009055506001016200024c565b5090565b90565b613b8a806200027d6000396000f3fe6080604052600436106101805760003560e01c806376be1585116100d1578063a8e04f341161008a578063c47f002711610064578063c47f0027146107f4578063e4849b32146108bc578063e9fad8ee146108f7578063fdb5a03e1461090e57610180565b8063a8e04f34146106a2578063a9059cbb146106b9578063b84c82461461072c57610180565b806376be1585146104d85780638620410b1461054157806387c950581461056c578063949e8acd146105c957806395d89b41146105f4578063a6f2ae3a1461068457610180565b806327defa1f1161013e5780633ccfd60b116101185780633ccfd60b146104065780634b7503341461041d5780636b2f46321461044857806370a082311461047357610180565b806327defa1f1461037b578063313ce567146103aa5780633151ecfc146103db57610180565b806265318b1461018e57806306fdde03146101f357806310d0ffdd1461028357806318160ddd146102d2578063204d4618146102fd578063226093731461032c575b61018b346000610925565b50005b34801561019a57600080fd5b506101dd600480360360208110156101b157600080fd5b81019080803573ffffffffffffffffffffffffffffffffffffffff169060200190929190505050611563565b6040518082815260200191505060405180910390f35b3480156101ff57600080fd5b50610208611603565b6040518080602001828103825283818151815260200191508051906020019080838360005b8381101561024857808201518184015260208101905061022d565b50505050905090810190601f1680156102755780820380516001836020036101000a031916815260200191505b509250505060405180910390f35b34801561028f57600080fd5b506102bc600480360360208110156102a657600080fd5b81019080803590602001909291905050506116a1565b6040518082815260200191505060405180910390f35b3480156102de57600080fd5b506102e76116da565b6040518082815260200191505060405180910390f35b34801561030957600080fd5b506103126116e4565b604051808215151515815260200191505060405180910390f35b34801561033857600080fd5b506103656004803603602081101561034f57600080fd5b81019080803590602001909291905050506116f7565b6040518082815260200191505060405180910390f35b34801561038757600080fd5b50610390611740565b604051808215151515815260200191505060405180910390f35b3480156103b657600080fd5b506103bf611753565b604051808260ff1660ff16815260200191505060405180910390f35b3480156103e757600080fd5b506103f0611758565b6040518082815260200191505060405180910390f35b34801561041257600080fd5b5061041b61176d565b005b34801561042957600080fd5b50610432611b4e565b6040518082815260200191505060405180910390f35b34801561045457600080fd5b5061045d611bad565b6040518082815260200191505060405180910390f35b34801561047f57600080fd5b506104c26004803603602081101561049657600080fd5b81019080803573ffffffffffffffffffffffffffffffffffffffff169060200190929190505050611bcc565b6040518082815260200191505060405180910390f35b3480156104e457600080fd5b50610527600480360360208110156104fb57600080fd5b81019080803573ffffffffffffffffffffffffffffffffffffffff169060200190929190505050611c15565b604051808215151515815260200191505060405180910390f35b34801561054d57600080fd5b50610556611c35565b6040518082815260200191505060405180910390f35b34801561057857600080fd5b506105c76004803603604081101561058f57600080fd5b81019080803573ffffffffffffffffffffffffffffffffffffffff169060200190929190803515159060200190929190505050611c94565b005b3480156105d557600080fd5b506105de611d4b565b6040518082815260200191505060405180910390f35b34801561060057600080fd5b50610609611d60565b6040518080602001828103825283818151815260200191508051906020019080838360005b8381101561064957808201518184015260208101905061062e565b50505050905090810190601f1680156106765780820380516001836020036101000a031916815260200191505b509250505060405180910390f35b61068c611dfe565b6040518082815260200191505060405180910390f35b3480156106ae57600080fd5b506106b7611e0f565b005b3480156106c557600080fd5b50610712600480360360408110156106dc57600080fd5b81019080803573ffffffffffffffffffffffffffffffffffffffff16906020019092919080359060200190929190505050611e88565b604051808215151515815260200191505060405180910390f35b34801561073857600080fd5b506107f26004803603602081101561074f57600080fd5b810190808035906020019064010000000081111561076c57600080fd5b82018360208201111561077e57600080fd5b803590602001918460018302840111640100000000831117156107a057600080fd5b91908080601f016020809104026020016040519081016040528093929190818152602001838380828437600081840152601f19601f820116905080830192505050505050509192919290505050612762565b005b34801561080057600080fd5b506108ba6004803603602081101561081757600080fd5b810190808035906020019064010000000081111561083457600080fd5b82018360208201111561084657600080fd5b8035906020019184600183028401116401000000008311171561086857600080fd5b91908080601f016020809104026020016040519081016040528093929190818152602001838380828437600081840152601f19601f8201169050808301925050505050505091929192905050506127d8565b005b3480156108c857600080fd5b506108f5600480360360208110156108df57600080fd5b810190808035906020019092919050505061284e565b005b34801561090357600080fd5b5061090c613381565b005b34801561091a57600080fd5b506109236134f4565b005b6000826000339050600b60009054906101000a900460ff16801561095b57506801158e460913d0000082610957611bad565b0311155b15610ff15760011515600260008373ffffffffffffffffffffffffffffffffffffffff1673ffffffffffffffffffffffffffffffffffffffff16815260200190815260200160002060009054906101000a900460ff161515148015610a095750670de0b6b3a764000082600760008473ffffffffffffffffffffffffffffffffffffffff1673ffffffffffffffffffffffffffffffffffffffff168152602001908152602001600020540111155b610a1257600080fd5b610a5b600760008373ffffffffffffffffffffffffffffffffffffffff1673ffffffffffffffffffffffffffffffffffffffff1681526020019081526020016000205483613664565b600760008373ffffffffffffffffffffffffffffffffffffffff1673ffffffffffffffffffffffffffffffffffffffff1681526020019081526020016000208190555060003390506000610ab387600a60ff166136ec565b90506000610ac582600560ff166136ec565b90506000610ad38383613736565b90506000610ae18a83613736565b90506000610aee82613780565b905060006801000000000000000084029050600082118015610b1c5750600854610b1a83600854613664565b115b610b2557600080fd5b610b9060056000600360009054906101000a900473ffffffffffffffffffffffffffffffffffffffff1673ffffffffffffffffffffffffffffffffffffffff1673ffffffffffffffffffffffffffffffffffffffff1681526020019081526020016000205486613664565b60056000600360009054906101000a900473ffffffffffffffffffffffffffffffffffffffff1673ffffffffffffffffffffffffffffffffffffffff1673ffffffffffffffffffffffffffffffffffffffff1681526020019081526020016000208190555060006008541115610c5c57610c0c60085483613664565b60088190555060085468010000000000000000850281610c2857fe5b0460096000828254019250508190555060085468010000000000000000850281610c4e57fe5b048202810381039050610c64565b816008819055505b610cad600460008973ffffffffffffffffffffffffffffffffffffffff1673ffffffffffffffffffffffffffffffffffffffff1681526020019081526020016000205483613664565b600460008973ffffffffffffffffffffffffffffffffffffffff1673ffffffffffffffffffffffffffffffffffffffff16815260200190815260200160002081905550600360009054906101000a900473ffffffffffffffffffffffffffffffffffffffff1673ffffffffffffffffffffffffffffffffffffffff16638da5cb5b6040518163ffffffff1660e01b815260040160206040518083038186803b158015610d5857600080fd5b505afa158015610d6c573d6000803e3d6000fd5b505050506040513d6020811015610d8257600080fd5b810190808051906020019092919050505073ffffffffffffffffffffffffffffffffffffffff1663eaf994b28389600360009054906101000a900473ffffffffffffffffffffffffffffffffffffffff166040518463ffffffff1660e01b8152600401808481526020018373ffffffffffffffffffffffffffffffffffffffff1673ffffffffffffffffffffffffffffffffffffffff1681526020018273ffffffffffffffffffffffffffffffffffffffff1673ffffffffffffffffffffffffffffffffffffffff1681526020019350505050602060405180830381600087803b158015610e6f57600080fd5b505af1158015610e83573d6000803e3d6000fd5b505050506040513d6020811015610e9957600080fd5b8101908080519060200190929190505050610f1c576040517f08c379a000000000000000000000000000000000000000000000000000000000815260040180806020018281038252601e8152602001807f6d696e742072657075746174696f6e2073686f756c642073756363656564000081525060200191505060405180910390fd5b600081836009540203905080600660008a73ffffffffffffffffffffffffffffffffffffffff1673ffffffffffffffffffffffffffffffffffffffff168152602001908152602001600020600082825401925050819055508b73ffffffffffffffffffffffffffffffffffffffff168873ffffffffffffffffffffffffffffffffffffffff167f022c0d992e4d873a3748436d960d5140c1f9721cf73f7ca5ec679d3d9f4fe2d58f86604051808381526020018281526020019250505060405180910390a3829a50505050505050505061155b565b6000600b60006101000a81548160ff0219169083151502179055506000339050600061102187600a60ff166136ec565b9050600061103382600560ff166136ec565b905060006110418383613736565b9050600061104f8a83613736565b9050600061105c82613780565b90506000680100000000000000008402905060008211801561108a575060085461108883600854613664565b115b61109357600080fd5b6110fe60056000600360009054906101000a900473ffffffffffffffffffffffffffffffffffffffff1673ffffffffffffffffffffffffffffffffffffffff1673ffffffffffffffffffffffffffffffffffffffff1681526020019081526020016000205486613664565b60056000600360009054906101000a900473ffffffffffffffffffffffffffffffffffffffff1673ffffffffffffffffffffffffffffffffffffffff1673ffffffffffffffffffffffffffffffffffffffff16815260200190815260200160002081905550600060085411156111ca5761117a60085483613664565b6008819055506008546801000000000000000085028161119657fe5b04600960008282540192505081905550600854680100000000000000008502816111bc57fe5b0482028103810390506111d2565b816008819055505b61121b600460008973ffffffffffffffffffffffffffffffffffffffff1673ffffffffffffffffffffffffffffffffffffffff1681526020019081526020016000205483613664565b600460008973ffffffffffffffffffffffffffffffffffffffff1673ffffffffffffffffffffffffffffffffffffffff16815260200190815260200160002081905550600360009054906101000a900473ffffffffffffffffffffffffffffffffffffffff1673ffffffffffffffffffffffffffffffffffffffff16638da5cb5b6040518163ffffffff1660e01b815260040160206040518083038186803b1580156112c657600080fd5b505afa1580156112da573d6000803e3d6000fd5b505050506040513d60208110156112f057600080fd5b810190808051906020019092919050505073ffffffffffffffffffffffffffffffffffffffff1663eaf994b28389600360009054906101000a900473ffffffffffffffffffffffffffffffffffffffff166040518463ffffffff1660e01b8152600401808481526020018373ffffffffffffffffffffffffffffffffffffffff1673ffffffffffffffffffffffffffffffffffffffff1681526020018273ffffffffffffffffffffffffffffffffffffffff1673ffffffffffffffffffffffffffffffffffffffff1681526020019350505050602060405180830381600087803b1580156113dd57600080fd5b505af11580156113f1573d6000803e3d6000fd5b505050506040513d602081101561140757600080fd5b810190808051906020019092919050505061148a576040517f08c379a000000000000000000000000000000000000000000000000000000000815260040180806020018281038252601e8152602001807f6d696e742072657075746174696f6e2073686f756c642073756363656564000081525060200191505060405180910390fd5b600081836009540203905080600660008a73ffffffffffffffffffffffffffffffffffffffff1673ffffffffffffffffffffffffffffffffffffffff168152602001908152602001600020600082825401925050819055508b73ffffffffffffffffffffffffffffffffffffffff168873ffffffffffffffffffffffffffffffffffffffff167f022c0d992e4d873a3748436d960d5140c1f9721cf73f7ca5ec679d3d9f4fe2d58f86604051808381526020018281526020019250505060405180910390a3829a5050505050505050505b505092915050565b600068010000000000000000600660008473ffffffffffffffffffffffffffffffffffffffff1673ffffffffffffffffffffffffffffffffffffffff16815260200190815260200160002054600460008573ffffffffffffffffffffffffffffffffffffffff1673ffffffffffffffffffffffffffffffffffffffff168152602001908152602001600020546009540203816115fb57fe5b049050919050565b60008054600181600116156101000203166002900480601f0160208091040260200160405190810160405280929190818152602001828054600181600116156101000203166002900480156116995780601f1061166e57610100808354040283529160200191611699565b820191906000526020600020905b81548152906001019060200180831161167c57829003601f168201915b505050505081565b6000806116b283600a60ff166136ec565b905060006116c08483613736565b905060006116cd82613780565b9050809350505050919050565b6000600854905090565b600b60019054906101000a900460ff1681565b600060085482111561170857600080fd5b60006117138361380b565b9050600061172582600a60ff166136ec565b905060006117338383613736565b9050809350505050919050565b600b60009054906101000a900460ff1681565b601281565b60008033905061176781611563565b91505090565b6000600b60019054906101000a900460ff16156119925769010f0cf064dd5920000081611798611bad565b0310156117f0576040517f08c379a0000000000000000000000000000000000000000000000000000000008152600401808060200182810382526036815260200180613b206036913960400191505060405180910390fd5b60006117fa611758565b1161180457600080fd5b60003390506000611813611758565b9050680100000000000000008102600660008473ffffffffffffffffffffffffffffffffffffffff1673ffffffffffffffffffffffffffffffffffffffff16815260200190815260200160002060008282540192505081905550600560008373ffffffffffffffffffffffffffffffffffffffff1673ffffffffffffffffffffffffffffffffffffffff16815260200190815260200160002054810190506000600560008473ffffffffffffffffffffffffffffffffffffffff1673ffffffffffffffffffffffffffffffffffffffff168152602001908152602001600020819055508173ffffffffffffffffffffffffffffffffffffffff166108fc829081150290604051600060405180830381858888f1935050505015801561193c573d6000803e3d6000fd5b508173ffffffffffffffffffffffffffffffffffffffff167fccad973dcd043c7d680389db4378bd6b9775db7124092e9e0422c9e46d7985dc826040518082815260200191505060405180910390a25050611b4b565b6000600b60016101000a81548160ff02191690831515021790555060006119b7611758565b116119c157600080fd5b600033905060006119d0611758565b9050680100000000000000008102600660008473ffffffffffffffffffffffffffffffffffffffff1673ffffffffffffffffffffffffffffffffffffffff16815260200190815260200160002060008282540192505081905550600560008373ffffffffffffffffffffffffffffffffffffffff1673ffffffffffffffffffffffffffffffffffffffff16815260200190815260200160002054810190506000600560008473ffffffffffffffffffffffffffffffffffffffff1673ffffffffffffffffffffffffffffffffffffffff168152602001908152602001600020819055508173ffffffffffffffffffffffffffffffffffffffff166108fc829081150290604051600060405180830381858888f19350505050158015611af9573d6000803e3d6000fd5b508173ffffffffffffffffffffffffffffffffffffffff167fccad973dcd043c7d680389db4378bd6b9775db7124092e9e0422c9e46d7985dc826040518082815260200191505060405180910390a250505b50565b6000806008541415611b6e576402540be40064174876e800039050611baa565b6000611b81670de0b6b3a764000061380b565b90506000611b9382600a60ff166136ec565b90506000611ba18383613736565b90508093505050505b90565b60003073ffffffffffffffffffffffffffffffffffffffff1631905090565b6000600460008373ffffffffffffffffffffffffffffffffffffffff1673ffffffffffffffffffffffffffffffffffffffff168152602001908152602001600020549050919050565b600a6020528060005260406000206000915054906101000a900460ff1681565b6000806008541415611c55576402540be40064174876e800019050611c91565b6000611c68670de0b6b3a764000061380b565b90506000611c7a82600a60ff166136ec565b90506000611c888383613664565b90508093505050505b90565b6000339050600a60008273ffffffffffffffffffffffffffffffffffffffff1673ffffffffffffffffffffffffffffffffffffffff16815260200190815260200160002060009054906101000a900460ff16611cef57600080fd5b81600a60008573ffffffffffffffffffffffffffffffffffffffff1673ffffffffffffffffffffffffffffffffffffffff16815260200190815260200160002060006101000a81548160ff021916908315150217905550505050565b600080339050611d5a81611bcc565b91505090565b60018054600181600116156101000203166002900480601f016020809104026020016040519081016040528092919081815260200182805460018160011615610100020316600290048015611df65780601f10611dcb57610100808354040283529160200191611df6565b820191906000526020600020905b815481529060010190602001808311611dd957829003601f168201915b505050505081565b6000611e0b346000610925565b5090565b6000339050600a60008273ffffffffffffffffffffffffffffffffffffffff1673ffffffffffffffffffffffffffffffffffffffff16815260200190815260200160002060009054906101000a900460ff16611e6a57600080fd5b6000600b60006101000a81548160ff02191690831515021790555050565b600081600b60019054906101000a900460ff16156123285769010f0cf064dd5920000081611eb4611bad565b031015611f0c576040517f08c379a0000000000000000000000000000000000000000000000000000000008152600401808060200182810382526036815260200180613b206036913960400191505060405180910390fd5b6000611f16611d4b565b11611f2057600080fd5b6000339050600b60009054906101000a900460ff16158015611f815750600460008273ffffffffffffffffffffffffffffffffffffffff1673ffffffffffffffffffffffffffffffffffffffff168152602001908152602001600020548411155b611f8a57600080fd5b6000611f94611758565b1115611fa357611fa261176d565b5b6000611fb385600a60ff166136ec565b90506000611fc18683613736565b90506000611fce8361380b565b90506000611fe082600560ff166136ec565b90506000611fee8383613736565b905061205b60056000600360009054906101000a900473ffffffffffffffffffffffffffffffffffffffff1673ffffffffffffffffffffffffffffffffffffffff1673ffffffffffffffffffffffffffffffffffffffff1681526020019081526020016000205483613664565b60056000600360009054906101000a900473ffffffffffffffffffffffffffffffffffffffff1673ffffffffffffffffffffffffffffffffffffffff1673ffffffffffffffffffffffffffffffffffffffff168152602001908152602001600020819055506120cc60085486613736565b60088190555061211b600460008873ffffffffffffffffffffffffffffffffffffffff1673ffffffffffffffffffffffffffffffffffffffff168152602001908152602001600020548a613736565b600460008873ffffffffffffffffffffffffffffffffffffffff1673ffffffffffffffffffffffffffffffffffffffff168152602001908152602001600020819055506121a7600460008c73ffffffffffffffffffffffffffffffffffffffff1673ffffffffffffffffffffffffffffffffffffffff1681526020019081526020016000205485613664565b600460008c73ffffffffffffffffffffffffffffffffffffffff1673ffffffffffffffffffffffffffffffffffffffff168152602001908152602001600020819055508860095402600660008873ffffffffffffffffffffffffffffffffffffffff1673ffffffffffffffffffffffffffffffffffffffff168152602001908152602001600020600082825403925050819055508360095402600660008c73ffffffffffffffffffffffffffffffffffffffff1673ffffffffffffffffffffffffffffffffffffffff168152602001908152602001600020600082825401925050819055506122ae600954600854680100000000000000008402816122a857fe5b04613664565b6009819055508973ffffffffffffffffffffffffffffffffffffffff168673ffffffffffffffffffffffffffffffffffffffff167fddf252ad1be2c89b69c2b068fc378daa952ba7f163c4a11628f55a4df523b3ef866040518082815260200191505060405180910390a36001975050505050505061275b565b6000600b60016101000a81548160ff021916908315150217905550600061234d611d4b565b1161235757600080fd5b6000339050600b60009054906101000a900460ff161580156123b85750600460008273ffffffffffffffffffffffffffffffffffffffff1673ffffffffffffffffffffffffffffffffffffffff168152602001908152602001600020548411155b6123c157600080fd5b60006123cb611758565b11156123da576123d961176d565b5b60006123ea85600a60ff166136ec565b905060006123f88683613736565b905060006124058361380b565b9050600061241782600560ff166136ec565b905060006124258383613736565b905061249260056000600360009054906101000a900473ffffffffffffffffffffffffffffffffffffffff1673ffffffffffffffffffffffffffffffffffffffff1673ffffffffffffffffffffffffffffffffffffffff1681526020019081526020016000205483613664565b60056000600360009054906101000a900473ffffffffffffffffffffffffffffffffffffffff1673ffffffffffffffffffffffffffffffffffffffff1673ffffffffffffffffffffffffffffffffffffffff1681526020019081526020016000208190555061250360085486613736565b600881905550612552600460008873ffffffffffffffffffffffffffffffffffffffff1673ffffffffffffffffffffffffffffffffffffffff168152602001908152602001600020548a613736565b600460008873ffffffffffffffffffffffffffffffffffffffff1673ffffffffffffffffffffffffffffffffffffffff168152602001908152602001600020819055506125de600460008c73ffffffffffffffffffffffffffffffffffffffff1673ffffffffffffffffffffffffffffffffffffffff1681526020019081526020016000205485613664565b600460008c73ffffffffffffffffffffffffffffffffffffffff1673ffffffffffffffffffffffffffffffffffffffff168152602001908152602001600020819055508860095402600660008873ffffffffffffffffffffffffffffffffffffffff1673ffffffffffffffffffffffffffffffffffffffff168152602001908152602001600020600082825403925050819055508360095402600660008c73ffffffffffffffffffffffffffffffffffffffff1673ffffffffffffffffffffffffffffffffffffffff168152602001908152602001600020600082825401925050819055506126e5600954600854680100000000000000008402816126df57fe5b04613664565b6009819055508973ffffffffffffffffffffffffffffffffffffffff168673ffffffffffffffffffffffffffffffffffffffff167fddf252ad1be2c89b69c2b068fc378daa952ba7f163c4a11628f55a4df523b3ef866040518082815260200191505060405180910390a3600197505050505050505b5092915050565b6000339050600a60008273ffffffffffffffffffffffffffffffffffffffff1673ffffffffffffffffffffffffffffffffffffffff16815260200190815260200160002060009054906101000a900460ff166127bd57600080fd5b81600190805190602001906127d3929190613a7a565b505050565b6000339050600a60008273ffffffffffffffffffffffffffffffffffffffff1673ffffffffffffffffffffffffffffffffffffffff16815260200190815260200160002060009054906101000a900460ff1661283357600080fd5b8160009080519060200190612849929190613a7a565b505050565b80600b60019054906101000a900460ff1615612e1b5769010f0cf064dd5920000081612878611bad565b0310156128d0576040517f08c379a0000000000000000000000000000000000000000000000000000000008152600401808060200182810382526036815260200180613b206036913960400191505060405180910390fd5b60006128da611d4b565b116128e457600080fd5b6000339050600460008273ffffffffffffffffffffffffffffffffffffffff1673ffffffffffffffffffffffffffffffffffffffff1681526020019081526020016000205483111561293557600080fd5b600083905060006129458261380b565b9050600061295782600a60ff166136ec565b9050600061296982600560ff166136ec565b905060006129778383613736565b905060006129858583613736565b90506129f260056000600360009054906101000a900473ffffffffffffffffffffffffffffffffffffffff1673ffffffffffffffffffffffffffffffffffffffff1673ffffffffffffffffffffffffffffffffffffffff1681526020019081526020016000205484613664565b60056000600360009054906101000a900473ffffffffffffffffffffffffffffffffffffffff1673ffffffffffffffffffffffffffffffffffffffff1673ffffffffffffffffffffffffffffffffffffffff16815260200190815260200160002081905550612a6360085487613736565b600881905550612ab2600460008973ffffffffffffffffffffffffffffffffffffffff1673ffffffffffffffffffffffffffffffffffffffff1681526020019081526020016000205487613736565b600460008973ffffffffffffffffffffffffffffffffffffffff1673ffffffffffffffffffffffffffffffffffffffff16815260200190815260200160002081905550600360009054906101000a900473ffffffffffffffffffffffffffffffffffffffff1673ffffffffffffffffffffffffffffffffffffffff16638da5cb5b6040518163ffffffff1660e01b815260040160206040518083038186803b158015612b5d57600080fd5b505afa158015612b71573d6000803e3d6000fd5b505050506040513d6020811015612b8757600080fd5b810190808051906020019092919050505073ffffffffffffffffffffffffffffffffffffffff16636e94d2788789600360009054906101000a900473ffffffffffffffffffffffffffffffffffffffff166040518463ffffffff1660e01b8152600401808481526020018373ffffffffffffffffffffffffffffffffffffffff1673ffffffffffffffffffffffffffffffffffffffff1681526020018273ffffffffffffffffffffffffffffffffffffffff1673ffffffffffffffffffffffffffffffffffffffff1681526020019350505050602060405180830381600087803b158015612c7457600080fd5b505af1158015612c88573d6000803e3d6000fd5b505050506040513d6020811015612c9e57600080fd5b8101908080519060200190929190505050612d21576040517f08c379a000000000000000000000000000000000000000000000000000000000815260040180806020018281038252601e8152602001807f6d696e742072657075746174696f6e2073686f756c642073756363656564000081525060200191505060405180910390fd5b6000680100000000000000008202876009540201905080600660008a73ffffffffffffffffffffffffffffffffffffffff1673ffffffffffffffffffffffffffffffffffffffff1681526020019081526020016000206000828254039250508190555060006008541115612db857612db160095460085468010000000000000000860281612dab57fe5b04613664565b6009819055505b8773ffffffffffffffffffffffffffffffffffffffff167fc4823739c5787d2ca17e404aa47d5569ae71dfb49cbf21b3f6152ed238a311398884604051808381526020018281526020019250505060405180910390a2505050505050505061337d565b6000600b60016101000a81548160ff0219169083151502179055506000612e40611d4b565b11612e4a57600080fd5b6000339050600460008273ffffffffffffffffffffffffffffffffffffffff1673ffffffffffffffffffffffffffffffffffffffff16815260200190815260200160002054831115612e9b57600080fd5b60008390506000612eab8261380b565b90506000612ebd82600a60ff166136ec565b90506000612ecf82600560ff166136ec565b90506000612edd8383613736565b90506000612eeb8583613736565b9050612f5860056000600360009054906101000a900473ffffffffffffffffffffffffffffffffffffffff1673ffffffffffffffffffffffffffffffffffffffff1673ffffffffffffffffffffffffffffffffffffffff1681526020019081526020016000205484613664565b60056000600360009054906101000a900473ffffffffffffffffffffffffffffffffffffffff1673ffffffffffffffffffffffffffffffffffffffff1673ffffffffffffffffffffffffffffffffffffffff16815260200190815260200160002081905550612fc960085487613736565b600881905550613018600460008973ffffffffffffffffffffffffffffffffffffffff1673ffffffffffffffffffffffffffffffffffffffff1681526020019081526020016000205487613736565b600460008973ffffffffffffffffffffffffffffffffffffffff1673ffffffffffffffffffffffffffffffffffffffff16815260200190815260200160002081905550600360009054906101000a900473ffffffffffffffffffffffffffffffffffffffff1673ffffffffffffffffffffffffffffffffffffffff16638da5cb5b6040518163ffffffff1660e01b815260040160206040518083038186803b1580156130c357600080fd5b505afa1580156130d7573d6000803e3d6000fd5b505050506040513d60208110156130ed57600080fd5b810190808051906020019092919050505073ffffffffffffffffffffffffffffffffffffffff16636e94d2788789600360009054906101000a900473ffffffffffffffffffffffffffffffffffffffff166040518463ffffffff1660e01b8152600401808481526020018373ffffffffffffffffffffffffffffffffffffffff1673ffffffffffffffffffffffffffffffffffffffff1681526020018273ffffffffffffffffffffffffffffffffffffffff1673ffffffffffffffffffffffffffffffffffffffff1681526020019350505050602060405180830381600087803b1580156131da57600080fd5b505af11580156131ee573d6000803e3d6000fd5b505050506040513d602081101561320457600080fd5b8101908080519060200190929190505050613287576040517f08c379a000000000000000000000000000000000000000000000000000000000815260040180806020018281038252601e8152602001807f6d696e742072657075746174696f6e2073686f756c642073756363656564000081525060200191505060405180910390fd5b6000680100000000000000008202876009540201905080600660008a73ffffffffffffffffffffffffffffffffffffffff1673ffffffffffffffffffffffffffffffffffffffff168152602001908152602001600020600082825403925050819055506000600854111561331e576133176009546008546801000000000000000086028161331157fe5b04613664565b6009819055505b8773ffffffffffffffffffffffffffffffffffffffff167fc4823739c5787d2ca17e404aa47d5569ae71dfb49cbf21b3f6152ed238a311398884604051808381526020018281526020019250505060405180910390a250505050505050505b5050565b6000600b60019054906101000a900460ff161561346f5769010f0cf064dd59200000816133ac611bad565b031015613404576040517f08c379a0000000000000000000000000000000000000000000000000000000008152600401808060200182810382526036815260200180613b206036913960400191505060405180910390fd5b60003390506000600460008373ffffffffffffffffffffffffffffffffffffffff1673ffffffffffffffffffffffffffffffffffffffff16815260200190815260200160002054905060008111156134605761345f8161284e565b5b61346861176d565b50506134f1565b6000600b60016101000a81548160ff02191690831515021790555060003390506000600460008373ffffffffffffffffffffffffffffffffffffffff1673ffffffffffffffffffffffffffffffffffffffff16815260200190815260200160002054905060008111156134e6576134e58161284e565b5b6134ee61176d565b50505b50565b60006134fe611758565b1161350857600080fd5b6000613512611758565b90506000339050680100000000000000008202600660008373ffffffffffffffffffffffffffffffffffffffff1673ffffffffffffffffffffffffffffffffffffffff16815260200190815260200160002060008282540192505081905550600560008273ffffffffffffffffffffffffffffffffffffffff1673ffffffffffffffffffffffffffffffffffffffff16815260200190815260200160002054820191506000600560008373ffffffffffffffffffffffffffffffffffffffff1673ffffffffffffffffffffffffffffffffffffffff168152602001908152602001600020819055506000613607836000610925565b90508173ffffffffffffffffffffffffffffffffffffffff167fbe339fc14b041c2b0e0f3dd2cd325d0c3668b78378001e53160eab36153264588483604051808381526020018281526020019250505060405180910390a2505050565b6000808284019050838110156136e2576040517f08c379a000000000000000000000000000000000000000000000000000000000815260040180806020018281038252601b8152602001807f536166654d6174683a206164646974696f6e206f766572666c6f77000000000081525060200191505060405180910390fd5b8091505092915050565b600061372e83836040518060400160405280601a81526020017f536166654d6174683a206469766973696f6e206279207a65726f0000000000008152506138af565b905092915050565b600061377883836040518060400160405280601e81526020017f536166654d6174683a207375627472616374696f6e206f766572666c6f770000815250613975565b905092915050565b600080670de0b6b3a764000064174876e80002905060006008546402540be4006137f66137f0600854866402540be400600202020260026008540a60026402540be4000a02670de0b6b3a76400008a02670de0b6b3a76400006402540be40002600202026002890a010101613a35565b85613736565b816137fd57fe5b040390508092505050919050565b600080670de0b6b3a7640000830190506000670de0b6b3a76400006008540190506000670de0b6b3a764000061389a670de0b6b3a764000085036402540be400670de0b6b3a7640000868161385c57fe5b046402540be4000264174876e8000103026002670de0b6b3a7640000876002890a038161388557fe5b046402540be400028161389457fe5b04613736565b816138a157fe5b049050809350505050919050565b6000808311829061395b576040517f08c379a00000000000000000000000000000000000000000000000000000000081526004018080602001828103825283818151815260200191508051906020019080838360005b83811015613920578082015181840152602081019050613905565b50505050905090810190601f16801561394d5780820380516001836020036101000a031916815260200191505b509250505060405180910390fd5b50600083858161396757fe5b049050809150509392505050565b6000838311158290613a22576040517f08c379a00000000000000000000000000000000000000000000000000000000081526004018080602001828103825283818151815260200191508051906020019080838360005b838110156139e75780820151818401526020810190506139cc565b50505050905090810190601f168015613a145780820380516001836020036101000a031916815260200191505b509250505060405180910390fd5b5060008385039050809150509392505050565b60008060026001840181613a4557fe5b0490508291505b81811015613a7457809150600281828581613a6357fe5b040181613a6c57fe5b049050613a4c565b50919050565b828054600181600116156101000203166002900490600052602060002090601f016020900481019282601f10613abb57805160ff1916838001178555613ae9565b82800160010185558215613ae9579182015b82811115613ae8578251825591602001919060010190613acd565b5b509050613af69190613afa565b5090565b613b1c91905b80821115613b18576000816000905550600101613b00565b5090565b9056fe457468657265756d20636f6c6c61746572616c20737570706c7920686173206e6f7420726561636865642068617463682071756f7461a265627a7a723158202dbb4149048ebc09ec66e632c09bbb248675bd882bae46687454680913f99ce864736f6c634300050d0032",
  "source": "/**\n *Submitted for verification at Etherscan.io on 2018-02-25\n*/\n\npragma solidity ^0.5.13;\n\nimport \"@daostack/arc/contracts/controller/Controller.sol\";\nimport \"openzeppelin-solidity/contracts/math/SafeMath.sol\";\n\n/*\n* Team JUST presents..\n* ====================================*\n* _____     _ _ _ _____    ___ ____   * \n*|  _  |___| | | |  |  |  |_  |    \\  *\n*|   __| . | | | |     |  |_  |  |  | * \n*|__|  |___|_____|__|__|  |___|____/  *\n*                                     *\n* ====================================*\n* -> What?\n* The original autonomous pyramid, improved:\n* [x] More stable than ever, having withstood severe testnet abuse and attack attempts from our community!.\n* [x] Audited, tested, and approved by known community security specialists such as tocsick and Arc.\n* [X] New functionality; you can now perform partial sell orders. If you succumb to weak hands, you don't have to dump all of your bags!\n* [x] New functionality; you can now transfer tokens between wallets. Trading is now possible from within the contract!\n* [x] New Feature: PoS Masternodes! The first implementation of Ethereum Staking in the world! Vitalik is mad.\n* [x] Masternodes: Holding 100 PoWH3D Tokens allow you to generate a Masternode link, Masternode links are used as unique entry points to the contract!\n* [x] Masternodes: All players who enter the contract through your Masternode have 30% of their 10% dividends fee rerouted from the master-node, to the node-master!\n*\n* -> What about the last projects?\n* Every programming member of the old dev team has been fired and/or killed by 232.\n* The new dev team consists of seasoned, professional developers and has been audited by veteran solidity experts.\n* Additionally, two independent testnet iterations have been used by hundreds of people; not a single point of failure was found.\n* \n* -> Who worked on this project?\n* - PonziBot (math/memes/main site/master)\n* - Mantso (lead solidity dev/lead web3 dev)\n* - swagg (concept design/feedback/management)\n* - Anonymous#1 (main site/web3/test cases)\n* - Anonymous#2 (math formulae/whitepaper)\n*\n* -> Who has audited & approved the projected:\n* - Arc\n* - tocisck\n* - sumpunk\n*/\n\ncontract Hourglass {\n    /*=================================\n    =            MODIFIERS            =\n    =================================*/\n    // only people with tokens\n    modifier onlyBagholders() {\n        require(myTokens() > 0);\n        _;\n    }\n\n    // only people with profits\n    modifier onlyStronghands() {\n        require(myDividends() > 0);\n        _;\n    }\n\n    // administrators can:\n    // -> change the name of the contract\n    // -> change the name of the token\n    // -> change the PoS difficulty (How many tokens it costs to hold a masternode, in case it gets crazy high later)\n    // they CANNOT:\n    // -> take funds\n    // -> disable withdrawals\n    // -> kill the contract\n    // -> change the price of tokens\n    modifier onlyAdministrator() {\n        address _customerAddress = msg.sender;\n        require(administrators[_customerAddress]);\n        _;\n    }\n\n    // no one can sell or transfer token until we've passed the hatch amount\n    modifier hasHatched(uint256 _amountOfEthereum) {\n        if (hatchOpen) {\n            require(\n                (totalEthereumBalance() - _amountOfEthereum) >= hatchQuota_,\n                \"Ethereum collateral supply has not reached hatch quota\"\n            );\n            _;\n        } else {\n            // in case the ether count drops low, the hatch phase won't reinitiate\n            hatchOpen = false;\n            _;\n        }\n    }\n\n    // ensures that the first tokens in the contract will be equally distributed\n    // meaning, no divine dump will be ever possible\n    // result: healthy longevity.\n    modifier antiEarlyWhale(uint256 _amountOfEthereum) {\n        address _customerAddress = msg.sender;\n\n        // are we still in the vulnerable phase?\n        // if so, enact anti early whale protocol\n        if (\n            onlyAmbassadors &&\n            ((totalEthereumBalance() - _amountOfEthereum) <= ambassadorQuota_)\n        ) {\n            require(\n                // is the customer in the ambassador list?\n                ambassadors_[_customerAddress] == true &&\n                    // does the customer purchase exceed the max ambassador quota?\n                    (ambassadorAccumulatedQuota_[_customerAddress] +\n                        _amountOfEthereum) <=\n                    ambassadorMaxPurchase_\n            );\n\n            // updated the accumulated quota\n            ambassadorAccumulatedQuota_[_customerAddress] = SafeMath.add(\n                ambassadorAccumulatedQuota_[_customerAddress],\n                _amountOfEthereum\n            );\n\n            // execute\n            _;\n        } else {\n            // in case the ether count drops low, the ambassador phase won't reinitiate\n            onlyAmbassadors = false;\n            _;\n        }\n\n    }\n\n    /*==============================\n    =            EVENTS            =\n    ==============================*/\n    event onTokenPurchase(\n        address indexed customerAddress,\n        uint256 incomingEthereum,\n        uint256 tokensMinted,\n        address indexed referredBy\n    );\n\n    event onTokenSell(\n        address indexed customerAddress,\n        uint256 tokensBurned,\n        uint256 ethereumEarned\n    );\n\n    event onReinvestment(\n        address indexed customerAddress,\n        uint256 ethereumReinvested,\n        uint256 tokensMinted\n    );\n\n    event onWithdraw(\n        address indexed customerAddress,\n        uint256 ethereumWithdrawn\n    );\n\n    // ERC20\n    event Transfer(address indexed from, address indexed to, uint256 tokens);\n\n    /*=====================================\n    =            CONFIGURABLES            =\n    =====================================*/\n    string public name = \"Housing Bonded Token\";\n    string public symbol = \"HBT\";\n    uint8 public constant decimals = 18;\n    uint8 internal constant dividendFee_ = 10;\n    uint8 internal constant operationalFee_ = 5;\n    uint256 internal constant tokenPriceInitial_ = 0.0000001 ether;\n    uint256 internal constant tokenPriceIncremental_ = 0.00000001 ether;\n    uint256 internal constant magnitude = 2**64;\n\n    // hatch requirements\n    uint256 internal constant hatchQuota_ = 5000 ether;\n\n    // ambassador program\n    mapping(address => bool) internal ambassadors_;\n    uint256 internal constant ambassadorMaxPurchase_ = 1 ether;\n    uint256 internal constant ambassadorQuota_ = 20 ether;\n\n    // DAO address\n    address payable DAOaddress = 0x27eA55b89B667560A6b35b14e8a3476Fcaa6aa34;\n\n    /*================================\n    =            DATASETS            =\n    ================================*/\n    // amount of shares for each address (scaled number)\n    mapping(address => uint256) internal tokenBalanceLedger_;\n    mapping(address => uint256) internal operationalBalance_;\n    mapping(address => int256) internal payoutsTo_;\n    mapping(address => uint256) internal ambassadorAccumulatedQuota_;\n    uint256 internal tokenSupply_ = 0;\n    uint256 internal profitPerShare_;\n\n    // administrator list (see above on what they can do)\n    mapping(address => bool) public administrators;\n\n    // when this is set to true, only ambassadors can purchase tokens (this prevents a whale premine, it ensures a fairly distributed upper pyramid)\n    bool public onlyAmbassadors = false;\n\n    // prevent sells and transfers before hatch closes\n    bool public hatchOpen = true;\n\n    using SafeMath for uint256;\n\n    /*=======================================\n    =            PUBLIC FUNCTIONS            =\n    =======================================*/\n    /*\n    * -- APPLICATION ENTRY POINTS --  \n    */\n    constructor() public {\n        // add administrators here\n        administrators[DAOaddress] = true;\n\n        // // add the ambassadors here.\n        // // mantso - lead solidity dev & lead web dev.\n        // ambassadors_[0x8b4DA1827932D71759687f925D17F81Fc94e3A9D] = true;\n\n        // // ponzibot - mathematics & website, and undisputed meme god.\n        // ambassadors_[0x8e0d985f3Ec1857BEc39B76aAabDEa6B31B67d53] = true;\n\n        // // swagg - concept design, feedback, management.\n        // ambassadors_[0x7563A35d5610eE7c9CD330E255Da0e779a644C19] = true;\n\n        // // k-dawgz - shilling machine, meme maestro, bizman.\n        // ambassadors_[0x215e3C713BADb158A457e61f99325bBB5d278E57] = true;\n\n        // // elmojo - all those pretty .GIFs & memes you see? you can thank this man for that.\n        // ambassadors_[0xaFF8B5CDCB339eEf5e1100597740a394C7B9c6cA] = true;\n\n        // // capex - community moderator.\n        // ambassadors_[0x8dc6569c28521560EAF1890bC41b2F3FC2010E1b] = true;\n\n        // // jrmungandr - pentests & twitter trendsetter.\n        // ambassadors_[0xf14BE3662FE4c9215c27698166759Db6967De94f] = true;\n\n        // // inventor - the source behind the non-intrusive referral model.\n        // ambassadors_[0x18E90Fc6F70344f53EBd4f6070bf6Aa23e2D748C] = true;\n\n        // // tocsick - pentesting, contract auditing.\n        // ambassadors_[0x49Aae4D923207e80Fc91E626BCb6532502264dfC] = true;\n\n        // // arc - pentesting, contract auditing.\n        // ambassadors_[0x3a0cca1A832644B60730E5D4c27947C5De609d62] = true;\n\n        // // sumpunk - contract auditing.\n        // ambassadors_[0x7ac74Fcc1a71b106F12c55ee8F802C9F672Ce40C] = true;\n\n        // // randall - charts & sheets, data dissector, advisor.\n        // ambassadors_[0x2b219C2178f099dE4E9A3667d5cCc2cc64da0763] = true;\n\n        // // ambius - 3d chart visualization.\n        // ambassadors_[0x2A04C7335f90a6bd4e9c4F713DD792200e27F2E6] = true;\n\n        // // contributors that need to remain private out of security concerns.\n        // ambassadors_[0x35668818ba8F768D4C21787a6f45C86C69394dfD] = true; //dp\n        // ambassadors_[0xa3120da52e604aC3Fc80A63813Ef15476e0B6AbD] = true; //tc\n        // ambassadors_[0x924E71bA600372e2410285423F1Fe66799b717EC] = true; //ja\n        // ambassadors_[0x6Ed450e062C20F929CB7Ee72fCc53e9697980a18] = true; //sf\n        // ambassadors_[0x18864A6682c8EB79EEA5B899F11bC94ef9a85ADb] = true; //tb\n        // ambassadors_[0x9cC1BdC994b7a847705D19106287C0BF94EF04B5] = true; //sm\n        // ambassadors_[0x6926572813ec1438088963f208C61847df435a74] = true; //mc\n        // ambassadors_[0xE16Ab764a02Ae03681E351Ac58FE79717c0eE8C6] = true; //et\n        // ambassadors_[0x276F4a79F22D1BfC51Bd8dc5b27Bfd934C823932] = true; //sn\n        // ambassadors_[0xA2b4ed3E2f4beF09FB35101B76Ef4cB9D3eeCaCf] = true; //bt\n        // ambassadors_[0x147fc6b04c95BCE47D013c8d7a200ee434323669] = true; //al\n\n    }\n\n    /**\n     * Converts all incoming ethereum to tokens for the caller, and passes down the referral addy (if any)\n     */\n    function buy() public payable returns (uint256) {\n        purchaseTokens(msg.value, address(0));\n    }\n\n    /**\n     * Fallback function to handle ethereum that was send straight to the contract\n     * Unfortunately we cannot use a referral address this way.\n     */\n    function() external payable {\n        purchaseTokens(msg.value, address(0));\n    }\n\n    /**\n     * Converts all of caller's dividends to tokens.\n     */\n    function reinvest() public onlyStronghands() {\n        // fetch dividends\n        uint256 _dividends = myDividends(); // get operational bonus later in the code if customer is DAO\n\n        // pay out the dividends virtually\n        address _customerAddress = msg.sender;\n        payoutsTo_[_customerAddress] += (int256)(_dividends * magnitude);\n\n        // retrieve operational bonus\n        _dividends += operationalBalance_[_customerAddress];\n        operationalBalance_[_customerAddress] = 0;\n\n        // dispatch a buy order with the virtualized \"withdrawn dividends\"\n        uint256 _tokens = purchaseTokens(_dividends, address(0));\n\n        // fire event\n        emit onReinvestment(_customerAddress, _dividends, _tokens);\n    }\n\n    /**\n     * Alias of sell() and withdraw().\n     */\n    function exit() public hasHatched(0) {\n        // get token count for caller & sell them all\n        address _customerAddress = msg.sender;\n        uint256 _tokens = tokenBalanceLedger_[_customerAddress];\n        if (_tokens > 0) sell(_tokens);\n\n        // lambo delivery service\n        withdraw();\n    }\n\n    /**\n     * Withdraws all of the callers earnings.\n     */\n    function withdraw() public hasHatched(0) onlyStronghands() {\n        // setup data\n        address payable _customerAddress = msg.sender;\n        uint256 _dividends = myDividends(); // get operational bonus later in the code if customer is DAO\n\n        // update dividend tracker\n        payoutsTo_[_customerAddress] += (int256)(_dividends * magnitude);\n\n        // add operational bonus bonus\n        _dividends += operationalBalance_[_customerAddress];\n        operationalBalance_[_customerAddress] = 0;\n\n        // lambo delivery service\n        _customerAddress.transfer(_dividends);\n\n        // fire event\n        emit onWithdraw(_customerAddress, _dividends);\n    }\n\n    /**\n     * Liquifies tokens to ethereum.\n     */\n    function sell(uint256 _amountOfTokens)\n        public\n        hasHatched(_amountOfTokens)\n        onlyBagholders()\n    {\n        // setup data\n        address _customerAddress = msg.sender;\n        // russian hackers BTFO\n        require(_amountOfTokens <= tokenBalanceLedger_[_customerAddress]);\n        uint256 _tokens = _amountOfTokens;\n        uint256 _ethereum = tokensToEthereum_(_tokens);\n        uint256 _undividedDividends = SafeMath.div(_ethereum, dividendFee_);\n        uint256 _operationalCost = SafeMath.div(\n            _undividedDividends,\n            operationalFee_\n        );\n        uint256 _dividends = SafeMath.sub(\n            _undividedDividends,\n            _operationalCost\n        );\n        uint256 _taxedEthereum = SafeMath.sub(_ethereum, _dividends);\n\n        // DAO takes a cut for operation fees\n        operationalBalance_[DAOaddress] = SafeMath.add(\n            operationalBalance_[DAOaddress],\n            _operationalCost\n        );\n\n        // burn the sold tokens\n        tokenSupply_ = SafeMath.sub(tokenSupply_, _tokens);\n        tokenBalanceLedger_[_customerAddress] = SafeMath.sub(\n            tokenBalanceLedger_[_customerAddress],\n            _tokens\n        );\n\n        // call the dao to burn reputation...\n        require(\n            Controller(Avatar(DAOaddress).owner()).burnReputation(\n                _tokens,\n                _customerAddress,\n                address(DAOaddress)\n            ),\n            \"mint reputation should succeed\"\n        );\n\n        // update dividends tracker\n        int256 _updatedPayouts = (int256)(\n            profitPerShare_ * _tokens + (_taxedEthereum * magnitude)\n        );\n        payoutsTo_[_customerAddress] -= _updatedPayouts;\n\n        // dividing by zero is a bad idea\n        if (tokenSupply_ > 0) {\n            // update the amount of dividends per token\n            profitPerShare_ = SafeMath.add(\n                profitPerShare_,\n                (_dividends * magnitude) / tokenSupply_\n            );\n        }\n\n        // fire event\n        emit onTokenSell(_customerAddress, _tokens, _taxedEthereum);\n    }\n\n    /**\n     * Transfer tokens from the caller to a new holder.\n     * Remember, there's a 10% fee here as well.\n     */\n    function transfer(address _toAddress, uint256 _amountOfTokens)\n        public\n        hasHatched(_amountOfTokens)\n        onlyBagholders()\n        returns (bool)\n    {\n        // setup\n        address _customerAddress = msg.sender;\n\n        // make sure we have the requested tokens\n        // also disables transfers until ambassador phase is over\n        // ( we dont want whale premines )\n        require(\n            !onlyAmbassadors &&\n                _amountOfTokens <= tokenBalanceLedger_[_customerAddress]\n        );\n\n        // withdraw all outstanding dividends first\n        if (myDividends() > 0) withdraw();\n\n        // liquify 10% of the tokens that are transfered\n        // these are dispersed to shareholders\n        uint256 _tokenFee = SafeMath.div(_amountOfTokens, dividendFee_);\n        uint256 _taxedTokens = SafeMath.sub(_amountOfTokens, _tokenFee);\n        uint256 _undividedDividends = tokensToEthereum_(_tokenFee);\n        uint256 _operationalCost = SafeMath.div(\n            _undividedDividends,\n            operationalFee_\n        );\n        uint256 _dividends = SafeMath.sub(\n            _undividedDividends,\n            _operationalCost\n        );\n\n        // DAO takes a cut for operation fees\n        operationalBalance_[DAOaddress] = SafeMath.add(\n            operationalBalance_[DAOaddress],\n            _operationalCost\n        );\n\n        // burn the fee tokens\n        tokenSupply_ = SafeMath.sub(tokenSupply_, _tokenFee);\n\n        // exchange tokens\n        tokenBalanceLedger_[_customerAddress] = SafeMath.sub(\n            tokenBalanceLedger_[_customerAddress],\n            _amountOfTokens\n        );\n        tokenBalanceLedger_[_toAddress] = SafeMath.add(\n            tokenBalanceLedger_[_toAddress],\n            _taxedTokens\n        );\n\n        // update dividend trackers\n        payoutsTo_[_customerAddress] -= (int256)(\n            profitPerShare_ * _amountOfTokens\n        );\n        payoutsTo_[_toAddress] += (int256)(profitPerShare_ * _taxedTokens);\n\n        // disperse dividends among holders\n        profitPerShare_ = SafeMath.add(\n            profitPerShare_,\n            (_dividends * magnitude) / tokenSupply_\n        );\n\n        // fire event\n        emit Transfer(_customerAddress, _toAddress, _taxedTokens);\n\n        // ERC20\n        return true;\n\n    }\n\n    /*----------  ADMINISTRATOR ONLY FUNCTIONS  ----------*/\n    /**\n     * In case the amassador quota is not met, the administrator can manually disable the ambassador phase.\n     */\n    function disableInitialStage() public onlyAdministrator() {\n        onlyAmbassadors = false;\n    }\n\n    /**\n     * In case one of us dies, we need to replace ourselves.\n     */\n    function setAdministrator(address _identifier, bool _status)\n        public\n        onlyAdministrator()\n    {\n        administrators[_identifier] = _status;\n    }\n\n    /**\n     * If we want to rebrand, we can.\n     */\n    function setName(string memory _name) public onlyAdministrator() {\n        name = _name;\n    }\n\n    /**\n     * If we want to rebrand, we can.\n     */\n    function setSymbol(string memory _symbol) public onlyAdministrator() {\n        symbol = _symbol;\n    }\n\n    /*----------  HELPERS AND CALCULATORS  ----------*/\n    /**\n     * Method to view the current Ethereum stored in the contract\n     * Example: totalEthereumBalance()\n     */\n    function totalEthereumBalance() public view returns (uint256) {\n        return address(this).balance;\n    }\n\n    /**\n     * Retrieve the total token supply.\n     */\n    function totalSupply() public view returns (uint256) {\n        return tokenSupply_;\n    }\n\n    /**\n     * Retrieve the tokens owned by the caller.\n     */\n    function myTokens() public view returns (uint256) {\n        address _customerAddress = msg.sender;\n        return balanceOf(_customerAddress);\n    }\n\n    /**\n     * Retrieve the dividends owned by the caller.\n     * If `_includeReferralBonus` is to to 1/true, the referral bonus will be included in the calculations.\n     * The reason for this, is that in the frontend, we will want to get the total divs (global + ref)\n     * But in the internal calculations, we want them separate. \n     */\n\n    function myDividends() public view returns (uint256) {\n        address _customerAddress = msg.sender;\n        return dividendsOf(_customerAddress);\n    }\n\n    /**\n     * Retrieve the token balance of any single address.\n     */\n    function balanceOf(address _customerAddress) public view returns (uint256) {\n        return tokenBalanceLedger_[_customerAddress];\n    }\n\n    /**\n     * Retrieve the dividend balance of any single address.\n     */\n    function dividendsOf(address _customerAddress)\n        public\n        view\n        returns (uint256)\n    {\n        return\n            (uint256)(\n                (int256)(\n                    profitPerShare_ * tokenBalanceLedger_[_customerAddress]\n                ) -\n                    payoutsTo_[_customerAddress]\n            ) /\n            magnitude;\n    }\n\n    /**\n     * Return the buy price of 1 individual token.\n     */\n    function sellPrice() public view returns (uint256) {\n        // our calculation relies on the token supply, so we need supply. Doh.\n        if (tokenSupply_ == 0) {\n            return tokenPriceInitial_ - tokenPriceIncremental_;\n        } else {\n            uint256 _ethereum = tokensToEthereum_(1e18);\n            uint256 _dividends = SafeMath.div(_ethereum, dividendFee_);\n            uint256 _taxedEthereum = SafeMath.sub(_ethereum, _dividends);\n            return _taxedEthereum;\n        }\n    }\n\n    /**\n     * Return the sell price of 1 individual token.\n     */\n    function buyPrice() public view returns (uint256) {\n        // our calculation relies on the token supply, so we need supply. Doh.\n        if (tokenSupply_ == 0) {\n            return tokenPriceInitial_ + tokenPriceIncremental_;\n        } else {\n            uint256 _ethereum = tokensToEthereum_(1e18);\n            uint256 _dividends = SafeMath.div(_ethereum, dividendFee_);\n            uint256 _taxedEthereum = SafeMath.add(_ethereum, _dividends);\n            return _taxedEthereum;\n        }\n    }\n\n    /**\n     * Function for the frontend to dynamically retrieve the price scaling of buy orders.\n     */\n    function calculateTokensReceived(uint256 _ethereumToSpend)\n        public\n        view\n        returns (uint256)\n    {\n        uint256 _dividends = SafeMath.div(_ethereumToSpend, dividendFee_);\n        uint256 _taxedEthereum = SafeMath.sub(_ethereumToSpend, _dividends);\n        uint256 _amountOfTokens = ethereumToTokens_(_taxedEthereum);\n\n        return _amountOfTokens;\n    }\n\n    /**\n     * Function for the frontend to dynamically retrieve the price scaling of sell orders.\n     */\n    function calculateEthereumReceived(uint256 _tokensToSell)\n        public\n        view\n        returns (uint256)\n    {\n        require(_tokensToSell <= tokenSupply_);\n        uint256 _ethereum = tokensToEthereum_(_tokensToSell);\n        uint256 _dividends = SafeMath.div(_ethereum, dividendFee_);\n        uint256 _taxedEthereum = SafeMath.sub(_ethereum, _dividends);\n        return _taxedEthereum;\n    }\n\n    /*==========================================\n    =            INTERNAL FUNCTIONS            =\n    ==========================================*/\n    function purchaseTokens(uint256 _incomingEthereum, address _referredBy)\n        internal\n        antiEarlyWhale(_incomingEthereum)\n        returns (uint256)\n    {\n        // data setup\n        address _customerAddress = msg.sender;\n        uint256 _undividedDividends = SafeMath.div(\n            _incomingEthereum,\n            dividendFee_\n        );\n        uint256 _operationalCost = SafeMath.div(\n            _undividedDividends,\n            operationalFee_\n        );\n        uint256 _dividends = SafeMath.sub(\n            _undividedDividends,\n            _operationalCost\n        );\n        uint256 _taxedEthereum = SafeMath.sub(_incomingEthereum, _dividends);\n        uint256 _amountOfTokens = ethereumToTokens_(_taxedEthereum);\n        uint256 _fee = _dividends * magnitude;\n\n        // prevents overflow in the case that the pyramid somehow magically starts being used by everyone in the world\n        // (or hackers)\n        // and yes we know that the safemath function automatically rules out the \"greater then\" equasion.\n        require(\n            _amountOfTokens > 0 &&\n                (SafeMath.add(_amountOfTokens, tokenSupply_) > tokenSupply_)\n        );\n\n        // DAO takes a cut for operation fees\n        operationalBalance_[DAOaddress] = SafeMath.add(\n            operationalBalance_[DAOaddress],\n            _operationalCost\n        );\n\n        // we can't give people infinite ethereum\n        if (tokenSupply_ > 0) {\n            // add tokens to the pool\n            tokenSupply_ = SafeMath.add(tokenSupply_, _amountOfTokens);\n\n            // take the amount of dividends gained through this transaction, and allocates them evenly to each shareholder\n            profitPerShare_ += ((_dividends * magnitude) / (tokenSupply_));\n\n            // calculate the amount of tokens the customer receives over his purchase\n            _fee =\n                _fee -\n                (_fee -\n                    (_amountOfTokens *\n                        ((_dividends * magnitude) / (tokenSupply_))));\n\n        } else {\n            // add tokens to the pool\n            tokenSupply_ = _amountOfTokens;\n        }\n\n        // update circulating supply & the ledger address for the customer\n        tokenBalanceLedger_[_customerAddress] = SafeMath.add(\n            tokenBalanceLedger_[_customerAddress],\n            _amountOfTokens\n        );\n\n        // call the dao to mint reputation...\n        require(\n            Controller(Avatar(DAOaddress).owner()).mintReputation(\n                _amountOfTokens,\n                _customerAddress,\n                address(DAOaddress)\n            ),\n            \"mint reputation should succeed\"\n        );\n        //\n\n        // Tells the contract that the buyer doesn't deserve dividends for the tokens before they owned them;\n        //really i know you think you do but you don't\n        int256 _updatedPayouts = (int256)(\n            (profitPerShare_ * _amountOfTokens) - _fee\n        );\n        payoutsTo_[_customerAddress] += _updatedPayouts;\n\n        // fire event\n        emit onTokenPurchase(\n            _customerAddress,\n            _incomingEthereum,\n            _amountOfTokens,\n            _referredBy\n        );\n\n        return _amountOfTokens;\n    }\n\n    /**\n     * Calculate Token price based on an amount of incoming ethereum\n     * It's an algorithm, hopefully we gave you the whitepaper with it in scientific notation;\n     * Some conversions occurred to prevent decimal errors or underflows / overflows in solidity code.\n     */\n    function ethereumToTokens_(uint256 _ethereum)\n        internal\n        view\n        returns (uint256)\n    {\n        uint256 _tokenPriceInitial = tokenPriceInitial_ * 1e18;\n        uint256 _tokensReceived = ((\n            // underflow attempts BTFO\n            SafeMath.sub(\n                (\n                    sqrt(\n                        (_tokenPriceInitial**2) +\n                            (2 *\n                                (tokenPriceIncremental_ * 1e18) *\n                                (_ethereum * 1e18)) +\n                            (((tokenPriceIncremental_)**2) *\n                                (tokenSupply_**2)) +\n                            (2 *\n                                (tokenPriceIncremental_) *\n                                _tokenPriceInitial *\n                                tokenSupply_)\n                    )\n                ),\n                _tokenPriceInitial\n            )\n        ) /\n            (tokenPriceIncremental_)) -\n            (tokenSupply_);\n\n        return _tokensReceived;\n    }\n\n    /**\n     * Calculate token sell value.\n     * It's an algorithm, hopefully we gave you the whitepaper with it in scientific notation;\n     * Some conversions occurred to prevent decimal errors or underflows / overflows in solidity code.\n     */\n    function tokensToEthereum_(uint256 _tokens)\n        internal\n        view\n        returns (uint256)\n    {\n        uint256 tokens_ = (_tokens + 1e18);\n        uint256 _tokenSupply = (tokenSupply_ + 1e18);\n        uint256 _etherReceived = (// underflow attempts BTFO\n        SafeMath.sub(\n            (((tokenPriceInitial_ +\n                (tokenPriceIncremental_ * (_tokenSupply / 1e18))) -\n                tokenPriceIncremental_) *\n                (tokens_ - 1e18)),\n            (tokenPriceIncremental_ * ((tokens_**2 - tokens_) / 1e18)) / 2\n        ) /\n            1e18);\n        return _etherReceived;\n    }\n\n    //This is where all your gas goes, sorry\n    //Not sorry, you probably only paid 1 gwei\n    function sqrt(uint256 x) internal pure returns (uint256 y) {\n        uint256 z = (x + 1) / 2;\n        y = x;\n        while (z < y) {\n            y = z;\n            z = (x / z + z) / 2;\n        }\n    }\n}\n",
  "sourcePath": "/Users/anar/Documents/Ethereum/ETHDenver/2020/housing-dao/contracts/Hourglass.sol",
  "compiler": {
    "name": "solc",
    "version": "0.5.13+commit.5b0b510c.Emscripten.clang"
  },
  "schemaVersion": "3.0.23",
  "updatedAt": "2020-02-16T02:48:48.664Z",
  "devdoc": {
    "methods": {}
  },
  "userdoc": {
    "methods": {
      "balanceOf(address)": {
        "notice": "Retrieve the token balance of any single address."
      },
      "buy()": {
        "notice": "Converts all incoming ethereum to tokens for the caller, and passes down the referral addy (if any)"
      },
      "buyPrice()": {
        "notice": "Return the sell price of 1 individual token."
      },
      "calculateEthereumReceived(uint256)": {
        "notice": "Function for the frontend to dynamically retrieve the price scaling of sell orders."
      },
      "calculateTokensReceived(uint256)": {
        "notice": "Function for the frontend to dynamically retrieve the price scaling of buy orders."
      },
      "disableInitialStage()": {
        "notice": "In case the amassador quota is not met, the administrator can manually disable the ambassador phase."
      },
      "dividendsOf(address)": {
        "notice": "Retrieve the dividend balance of any single address."
      },
      "exit()": {
        "notice": "Alias of sell() and withdraw()."
      },
      "myDividends()": {
        "notice": "Retrieve the dividends owned by the caller. If `_includeReferralBonus` is to to 1/true, the referral bonus will be included in the calculations. The reason for this, is that in the frontend, we will want to get the total divs (global + ref) But in the internal calculations, we want them separate. "
      },
      "myTokens()": {
        "notice": "Retrieve the tokens owned by the caller."
      },
      "reinvest()": {
        "notice": "Converts all of caller's dividends to tokens."
      },
      "sell(uint256)": {
        "notice": "Liquifies tokens to ethereum."
      },
      "sellPrice()": {
        "notice": "Return the buy price of 1 individual token."
      },
      "setAdministrator(address,bool)": {
        "notice": "In case one of us dies, we need to replace ourselves."
      },
      "setName(string)": {
        "notice": "If we want to rebrand, we can."
      },
      "setSymbol(string)": {
        "notice": "If we want to rebrand, we can."
      },
      "totalEthereumBalance()": {
        "notice": "Method to view the current Ethereum stored in the contract Example: totalEthereumBalance()"
      },
      "totalSupply()": {
        "notice": "Retrieve the total token supply."
      },
      "transfer(address,uint256)": {
        "notice": "Transfer tokens from the caller to a new holder. Remember, there's a 10% fee here as well."
      },
      "withdraw()": {
        "notice": "Withdraws all of the callers earnings."
      }
    }
  }
}