{
  "contractName": "Hourglass",
  "abi": [
    {
      "inputs": [],
      "payable": false,
      "stateMutability": "nonpayable",
      "type": "constructor"
    },
    {
      "anonymous": false,
      "inputs": [
        {
          "indexed": true,
          "internalType": "address",
          "name": "from",
          "type": "address"
        },
        {
          "indexed": true,
          "internalType": "address",
          "name": "to",
          "type": "address"
        },
        {
          "indexed": false,
          "internalType": "uint256",
          "name": "tokens",
          "type": "uint256"
        }
      ],
      "name": "Transfer",
      "type": "event"
    },
    {
      "anonymous": false,
      "inputs": [
        {
          "indexed": true,
          "internalType": "address",
          "name": "customerAddress",
          "type": "address"
        },
        {
          "indexed": false,
          "internalType": "uint256",
          "name": "ethereumReinvested",
          "type": "uint256"
        },
        {
          "indexed": false,
          "internalType": "uint256",
          "name": "tokensMinted",
          "type": "uint256"
        }
      ],
      "name": "onReinvestment",
      "type": "event"
    },
    {
      "anonymous": false,
      "inputs": [
        {
          "indexed": true,
          "internalType": "address",
          "name": "customerAddress",
          "type": "address"
        },
        {
          "indexed": false,
          "internalType": "uint256",
          "name": "incomingEthereum",
          "type": "uint256"
        },
        {
          "indexed": false,
          "internalType": "uint256",
          "name": "tokensMinted",
          "type": "uint256"
        },
        {
          "indexed": true,
          "internalType": "address",
          "name": "referredBy",
          "type": "address"
        }
      ],
      "name": "onTokenPurchase",
      "type": "event"
    },
    {
      "anonymous": false,
      "inputs": [
        {
          "indexed": true,
          "internalType": "address",
          "name": "customerAddress",
          "type": "address"
        },
        {
          "indexed": false,
          "internalType": "uint256",
          "name": "tokensBurned",
          "type": "uint256"
        },
        {
          "indexed": false,
          "internalType": "uint256",
          "name": "ethereumEarned",
          "type": "uint256"
        }
      ],
      "name": "onTokenSell",
      "type": "event"
    },
    {
      "anonymous": false,
      "inputs": [
        {
          "indexed": true,
          "internalType": "address",
          "name": "customerAddress",
          "type": "address"
        },
        {
          "indexed": false,
          "internalType": "uint256",
          "name": "ethereumWithdrawn",
          "type": "uint256"
        }
      ],
      "name": "onWithdraw",
      "type": "event"
    },
    {
      "payable": true,
      "stateMutability": "payable",
      "type": "fallback"
    },
    {
      "constant": true,
      "inputs": [
        {
          "internalType": "address",
          "name": "",
          "type": "address"
        }
      ],
      "name": "administrators",
      "outputs": [
        {
          "internalType": "bool",
          "name": "",
          "type": "bool"
        }
      ],
      "payable": false,
      "stateMutability": "view",
      "type": "function"
    },
    {
      "constant": true,
      "inputs": [],
      "name": "decimals",
      "outputs": [
        {
          "internalType": "uint8",
          "name": "",
          "type": "uint8"
        }
      ],
      "payable": false,
      "stateMutability": "view",
      "type": "function"
    },
    {
      "constant": true,
      "inputs": [],
      "name": "hatchOpen",
      "outputs": [
        {
          "internalType": "bool",
          "name": "",
          "type": "bool"
        }
      ],
      "payable": false,
      "stateMutability": "view",
      "type": "function"
    },
    {
      "constant": true,
      "inputs": [],
      "name": "name",
      "outputs": [
        {
          "internalType": "string",
          "name": "",
          "type": "string"
        }
      ],
      "payable": false,
      "stateMutability": "view",
      "type": "function"
    },
    {
      "constant": true,
      "inputs": [],
      "name": "onlyAmbassadors",
      "outputs": [
        {
          "internalType": "bool",
          "name": "",
          "type": "bool"
        }
      ],
      "payable": false,
      "stateMutability": "view",
      "type": "function"
    },
    {
      "constant": true,
      "inputs": [],
      "name": "symbol",
      "outputs": [
        {
          "internalType": "string",
          "name": "",
          "type": "string"
        }
      ],
      "payable": false,
      "stateMutability": "view",
      "type": "function"
    },
    {
      "constant": false,
      "inputs": [
        {
          "internalType": "address",
          "name": "_referredBy",
          "type": "address"
        }
      ],
      "name": "buy",
      "outputs": [
        {
          "internalType": "uint256",
          "name": "",
          "type": "uint256"
        }
      ],
      "payable": true,
      "stateMutability": "payable",
      "type": "function"
    },
    {
      "constant": false,
      "inputs": [],
      "name": "reinvest",
      "outputs": [],
      "payable": false,
      "stateMutability": "nonpayable",
      "type": "function"
    },
    {
      "constant": false,
      "inputs": [],
      "name": "exit",
      "outputs": [],
      "payable": false,
      "stateMutability": "nonpayable",
      "type": "function"
    },
    {
      "constant": false,
      "inputs": [],
      "name": "withdraw",
      "outputs": [],
      "payable": false,
      "stateMutability": "nonpayable",
      "type": "function"
    },
    {
      "constant": false,
      "inputs": [
        {
          "internalType": "uint256",
          "name": "_amountOfTokens",
          "type": "uint256"
        }
      ],
      "name": "sell",
      "outputs": [],
      "payable": false,
      "stateMutability": "nonpayable",
      "type": "function"
    },
    {
      "constant": false,
      "inputs": [
        {
          "internalType": "address",
          "name": "_toAddress",
          "type": "address"
        },
        {
          "internalType": "uint256",
          "name": "_amountOfTokens",
          "type": "uint256"
        }
      ],
      "name": "transfer",
      "outputs": [
        {
          "internalType": "bool",
          "name": "",
          "type": "bool"
        }
      ],
      "payable": false,
      "stateMutability": "nonpayable",
      "type": "function"
    },
    {
      "constant": false,
      "inputs": [],
      "name": "disableInitialStage",
      "outputs": [],
      "payable": false,
      "stateMutability": "nonpayable",
      "type": "function"
    },
    {
      "constant": false,
      "inputs": [
        {
          "internalType": "address",
          "name": "_identifier",
          "type": "address"
        },
        {
          "internalType": "bool",
          "name": "_status",
          "type": "bool"
        }
      ],
      "name": "setAdministrator",
      "outputs": [],
      "payable": false,
      "stateMutability": "nonpayable",
      "type": "function"
    },
    {
      "constant": false,
      "inputs": [
        {
          "internalType": "string",
          "name": "_name",
          "type": "string"
        }
      ],
      "name": "setName",
      "outputs": [],
      "payable": false,
      "stateMutability": "nonpayable",
      "type": "function"
    },
    {
      "constant": false,
      "inputs": [
        {
          "internalType": "string",
          "name": "_symbol",
          "type": "string"
        }
      ],
      "name": "setSymbol",
      "outputs": [],
      "payable": false,
      "stateMutability": "nonpayable",
      "type": "function"
    },
    {
      "constant": true,
      "inputs": [],
      "name": "totalEthereumBalance",
      "outputs": [
        {
          "internalType": "uint256",
          "name": "",
          "type": "uint256"
        }
      ],
      "payable": false,
      "stateMutability": "view",
      "type": "function"
    },
    {
      "constant": true,
      "inputs": [],
      "name": "totalSupply",
      "outputs": [
        {
          "internalType": "uint256",
          "name": "",
          "type": "uint256"
        }
      ],
      "payable": false,
      "stateMutability": "view",
      "type": "function"
    },
    {
      "constant": true,
      "inputs": [],
      "name": "myTokens",
      "outputs": [
        {
          "internalType": "uint256",
          "name": "",
          "type": "uint256"
        }
      ],
      "payable": false,
      "stateMutability": "view",
      "type": "function"
    },
    {
      "constant": true,
      "inputs": [],
      "name": "myDividends",
      "outputs": [
        {
          "internalType": "uint256",
          "name": "",
          "type": "uint256"
        }
      ],
      "payable": false,
      "stateMutability": "view",
      "type": "function"
    },
    {
      "constant": true,
      "inputs": [
        {
          "internalType": "address",
          "name": "_customerAddress",
          "type": "address"
        }
      ],
      "name": "balanceOf",
      "outputs": [
        {
          "internalType": "uint256",
          "name": "",
          "type": "uint256"
        }
      ],
      "payable": false,
      "stateMutability": "view",
      "type": "function"
    },
    {
      "constant": true,
      "inputs": [
        {
          "internalType": "address",
          "name": "_customerAddress",
          "type": "address"
        }
      ],
      "name": "dividendsOf",
      "outputs": [
        {
          "internalType": "uint256",
          "name": "",
          "type": "uint256"
        }
      ],
      "payable": false,
      "stateMutability": "view",
      "type": "function"
    },
    {
      "constant": true,
      "inputs": [],
      "name": "sellPrice",
      "outputs": [
        {
          "internalType": "uint256",
          "name": "",
          "type": "uint256"
        }
      ],
      "payable": false,
      "stateMutability": "view",
      "type": "function"
    },
    {
      "constant": true,
      "inputs": [],
      "name": "buyPrice",
      "outputs": [
        {
          "internalType": "uint256",
          "name": "",
          "type": "uint256"
        }
      ],
      "payable": false,
      "stateMutability": "view",
      "type": "function"
    },
    {
      "constant": true,
      "inputs": [
        {
          "internalType": "uint256",
          "name": "_ethereumToSpend",
          "type": "uint256"
        }
      ],
      "name": "calculateTokensReceived",
      "outputs": [
        {
          "internalType": "uint256",
          "name": "",
          "type": "uint256"
        }
      ],
      "payable": false,
      "stateMutability": "view",
      "type": "function"
    },
    {
      "constant": true,
      "inputs": [
        {
          "internalType": "uint256",
          "name": "_tokensToSell",
          "type": "uint256"
        }
      ],
      "name": "calculateEthereumReceived",
      "outputs": [
        {
          "internalType": "uint256",
          "name": "",
          "type": "uint256"
        }
      ],
      "payable": false,
      "stateMutability": "view",
      "type": "function"
    }
  ],
  "bytecode": "0x60806040526040518060400160405280601481526020017f486f7573696e6720426f6e64656420546f6b656e0000000000000000000000008152506000908051906020019062000051929190620001be565b506040518060400160405280600381526020017f4842540000000000000000000000000000000000000000000000000000000000815250600190805190602001906200009f929190620001be565b507327ea55b89b667560a6b35b14e8a3476fcaa6aa34600360006101000a81548173ffffffffffffffffffffffffffffffffffffffff021916908373ffffffffffffffffffffffffffffffffffffffff16021790555060006008556000600b60006101000a81548160ff0219169083151502179055506001600b60016101000a81548160ff0219169083151502179055503480156200013d57600080fd5b506001600a6000600360009054906101000a900473ffffffffffffffffffffffffffffffffffffffff1673ffffffffffffffffffffffffffffffffffffffff1673ffffffffffffffffffffffffffffffffffffffff16815260200190815260200160002060006101000a81548160ff0219169083151502179055506200026d565b828054600181600116156101000203166002900490600052602060002090601f016020900481019282601f106200020157805160ff191683800117855562000232565b8280016001018555821562000232579182015b828111156200023157825182559160200191906001019062000214565b5b50905062000241919062000245565b5090565b6200026a91905b80821115620002665760008160009055506001016200024c565b5090565b90565b61376d806200027d6000396000f3fe6080604052600436106101805760003560e01c806376be1585116100d1578063a9059cbb1161008a578063e4849b3211610064578063e4849b321461089e578063e9fad8ee146108d9578063f088d547146108f0578063fdb5a03e1461094857610180565b8063a9059cbb1461069b578063b84c82461461070e578063c47f0027146107d657610180565b806376be1585146104d85780638620410b1461054157806387c950581461056c578063949e8acd146105c957806395d89b41146105f4578063a8e04f341461068457610180565b806327defa1f1161013e5780633ccfd60b116101185780633ccfd60b146104065780634b7503341461041d5780636b2f46321461044857806370a082311461047357610180565b806327defa1f1461037b578063313ce567146103aa5780633151ecfc146103db57610180565b806265318b1461018e57806306fdde03146101f357806310d0ffdd1461028357806318160ddd146102d2578063204d4618146102fd578063226093731461032c575b61018b34600061095f565b50005b34801561019a57600080fd5b506101dd600480360360208110156101b157600080fd5b81019080803573ffffffffffffffffffffffffffffffffffffffff16906020019092919050505061159d565b6040518082815260200191505060405180910390f35b3480156101ff57600080fd5b5061020861163d565b6040518080602001828103825283818151815260200191508051906020019080838360005b8381101561024857808201518184015260208101905061022d565b50505050905090810190601f1680156102755780820380516001836020036101000a031916815260200191505b509250505060405180910390f35b34801561028f57600080fd5b506102bc600480360360208110156102a657600080fd5b81019080803590602001909291905050506116db565b6040518082815260200191505060405180910390f35b3480156102de57600080fd5b506102e7611714565b6040518082815260200191505060405180910390f35b34801561030957600080fd5b5061031261171e565b604051808215151515815260200191505060405180910390f35b34801561033857600080fd5b506103656004803603602081101561034f57600080fd5b8101908080359060200190929190505050611731565b6040518082815260200191505060405180910390f35b34801561038757600080fd5b5061039061177a565b604051808215151515815260200191505060405180910390f35b3480156103b657600080fd5b506103bf61178d565b604051808260ff1660ff16815260200191505060405180910390f35b3480156103e757600080fd5b506103f0611792565b6040518082815260200191505060405180910390f35b34801561041257600080fd5b5061041b6117a7565b005b34801561042957600080fd5b50610432611b88565b6040518082815260200191505060405180910390f35b34801561045457600080fd5b5061045d611be7565b6040518082815260200191505060405180910390f35b34801561047f57600080fd5b506104c26004803603602081101561049657600080fd5b81019080803573ffffffffffffffffffffffffffffffffffffffff169060200190929190505050611c06565b6040518082815260200191505060405180910390f35b3480156104e457600080fd5b50610527600480360360208110156104fb57600080fd5b81019080803573ffffffffffffffffffffffffffffffffffffffff169060200190929190505050611c4f565b604051808215151515815260200191505060405180910390f35b34801561054d57600080fd5b50610556611c6f565b6040518082815260200191505060405180910390f35b34801561057857600080fd5b506105c76004803603604081101561058f57600080fd5b81019080803573ffffffffffffffffffffffffffffffffffffffff169060200190929190803515159060200190929190505050611cce565b005b3480156105d557600080fd5b506105de611d85565b6040518082815260200191505060405180910390f35b34801561060057600080fd5b50610609611d9a565b6040518080602001828103825283818151815260200191508051906020019080838360005b8381101561064957808201518184015260208101905061062e565b50505050905090810190601f1680156106765780820380516001836020036101000a031916815260200191505b509250505060405180910390f35b34801561069057600080fd5b50610699611e38565b005b3480156106a757600080fd5b506106f4600480360360408110156106be57600080fd5b81019080803573ffffffffffffffffffffffffffffffffffffffff16906020019092919080359060200190929190505050611eb1565b604051808215151515815260200191505060405180910390f35b34801561071a57600080fd5b506107d46004803603602081101561073157600080fd5b810190808035906020019064010000000081111561074e57600080fd5b82018360208201111561076057600080fd5b8035906020019184600183028401116401000000008311171561078257600080fd5b91908080601f016020809104026020016040519081016040528093929190818152602001838380828437600081840152601f19601f82011690508083019250505050505050919291929050505061278b565b005b3480156107e257600080fd5b5061089c600480360360208110156107f957600080fd5b810190808035906020019064010000000081111561081657600080fd5b82018360208201111561082857600080fd5b8035906020019184600183028401116401000000008311171561084a57600080fd5b91908080601f016020809104026020016040519081016040528093929190818152602001838380828437600081840152601f19601f820116905080830192505050505050509192919290505050612801565b005b3480156108aa57600080fd5b506108d7600480360360208110156108c157600080fd5b8101908080359060200190929190505050612877565b005b3480156108e557600080fd5b506108ee612f52565b005b6109326004803603602081101561090657600080fd5b81019080803573ffffffffffffffffffffffffffffffffffffffff1690602001909291905050506130c5565b6040518082815260200191505060405180910390f35b34801561095457600080fd5b5061095d6130d7565b005b6000826000339050600b60009054906101000a900460ff16801561099557506801158e460913d0000082610991611be7565b0311155b1561102b5760011515600260008373ffffffffffffffffffffffffffffffffffffffff1673ffffffffffffffffffffffffffffffffffffffff16815260200190815260200160002060009054906101000a900460ff161515148015610a435750670de0b6b3a764000082600760008473ffffffffffffffffffffffffffffffffffffffff1673ffffffffffffffffffffffffffffffffffffffff168152602001908152602001600020540111155b610a4c57600080fd5b610a95600760008373ffffffffffffffffffffffffffffffffffffffff1673ffffffffffffffffffffffffffffffffffffffff1681526020019081526020016000205483613247565b600760008373ffffffffffffffffffffffffffffffffffffffff1673ffffffffffffffffffffffffffffffffffffffff1681526020019081526020016000208190555060003390506000610aed87600a60ff166132cf565b90506000610aff82600560ff166132cf565b90506000610b0d8383613319565b90506000610b1b8a83613319565b90506000610b2882613363565b905060006801000000000000000084029050600082118015610b565750600854610b5483600854613247565b115b610b5f57600080fd5b610bca60056000600360009054906101000a900473ffffffffffffffffffffffffffffffffffffffff1673ffffffffffffffffffffffffffffffffffffffff1673ffffffffffffffffffffffffffffffffffffffff1681526020019081526020016000205486613247565b60056000600360009054906101000a900473ffffffffffffffffffffffffffffffffffffffff1673ffffffffffffffffffffffffffffffffffffffff1673ffffffffffffffffffffffffffffffffffffffff1681526020019081526020016000208190555060006008541115610c9657610c4660085483613247565b60088190555060085468010000000000000000850281610c6257fe5b0460096000828254019250508190555060085468010000000000000000850281610c8857fe5b048202810381039050610c9e565b816008819055505b610ce7600460008973ffffffffffffffffffffffffffffffffffffffff1673ffffffffffffffffffffffffffffffffffffffff1681526020019081526020016000205483613247565b600460008973ffffffffffffffffffffffffffffffffffffffff1673ffffffffffffffffffffffffffffffffffffffff16815260200190815260200160002081905550600360009054906101000a900473ffffffffffffffffffffffffffffffffffffffff1673ffffffffffffffffffffffffffffffffffffffff16638da5cb5b6040518163ffffffff1660e01b815260040160206040518083038186803b158015610d9257600080fd5b505afa158015610da6573d6000803e3d6000fd5b505050506040513d6020811015610dbc57600080fd5b810190808051906020019092919050505073ffffffffffffffffffffffffffffffffffffffff1663eaf994b28389600360009054906101000a900473ffffffffffffffffffffffffffffffffffffffff166040518463ffffffff1660e01b8152600401808481526020018373ffffffffffffffffffffffffffffffffffffffff1673ffffffffffffffffffffffffffffffffffffffff1681526020018273ffffffffffffffffffffffffffffffffffffffff1673ffffffffffffffffffffffffffffffffffffffff1681526020019350505050602060405180830381600087803b158015610ea957600080fd5b505af1158015610ebd573d6000803e3d6000fd5b505050506040513d6020811015610ed357600080fd5b8101908080519060200190929190505050610f56576040517f08c379a000000000000000000000000000000000000000000000000000000000815260040180806020018281038252601e8152602001807f6d696e742072657075746174696f6e2073686f756c642073756363656564000081525060200191505060405180910390fd5b600081836009540203905080600660008a73ffffffffffffffffffffffffffffffffffffffff1673ffffffffffffffffffffffffffffffffffffffff168152602001908152602001600020600082825401925050819055508b73ffffffffffffffffffffffffffffffffffffffff168873ffffffffffffffffffffffffffffffffffffffff167f022c0d992e4d873a3748436d960d5140c1f9721cf73f7ca5ec679d3d9f4fe2d58f86604051808381526020018281526020019250505060405180910390a3829a505050505050505050611595565b6000600b60006101000a81548160ff0219169083151502179055506000339050600061105b87600a60ff166132cf565b9050600061106d82600560ff166132cf565b9050600061107b8383613319565b905060006110898a83613319565b9050600061109682613363565b9050600068010000000000000000840290506000821180156110c457506008546110c283600854613247565b115b6110cd57600080fd5b61113860056000600360009054906101000a900473ffffffffffffffffffffffffffffffffffffffff1673ffffffffffffffffffffffffffffffffffffffff1673ffffffffffffffffffffffffffffffffffffffff1681526020019081526020016000205486613247565b60056000600360009054906101000a900473ffffffffffffffffffffffffffffffffffffffff1673ffffffffffffffffffffffffffffffffffffffff1673ffffffffffffffffffffffffffffffffffffffff1681526020019081526020016000208190555060006008541115611204576111b460085483613247565b600881905550600854680100000000000000008502816111d057fe5b04600960008282540192505081905550600854680100000000000000008502816111f657fe5b04820281038103905061120c565b816008819055505b611255600460008973ffffffffffffffffffffffffffffffffffffffff1673ffffffffffffffffffffffffffffffffffffffff1681526020019081526020016000205483613247565b600460008973ffffffffffffffffffffffffffffffffffffffff1673ffffffffffffffffffffffffffffffffffffffff16815260200190815260200160002081905550600360009054906101000a900473ffffffffffffffffffffffffffffffffffffffff1673ffffffffffffffffffffffffffffffffffffffff16638da5cb5b6040518163ffffffff1660e01b815260040160206040518083038186803b15801561130057600080fd5b505afa158015611314573d6000803e3d6000fd5b505050506040513d602081101561132a57600080fd5b810190808051906020019092919050505073ffffffffffffffffffffffffffffffffffffffff1663eaf994b28389600360009054906101000a900473ffffffffffffffffffffffffffffffffffffffff166040518463ffffffff1660e01b8152600401808481526020018373ffffffffffffffffffffffffffffffffffffffff1673ffffffffffffffffffffffffffffffffffffffff1681526020018273ffffffffffffffffffffffffffffffffffffffff1673ffffffffffffffffffffffffffffffffffffffff1681526020019350505050602060405180830381600087803b15801561141757600080fd5b505af115801561142b573d6000803e3d6000fd5b505050506040513d602081101561144157600080fd5b81019080805190602001909291905050506114c4576040517f08c379a000000000000000000000000000000000000000000000000000000000815260040180806020018281038252601e8152602001807f6d696e742072657075746174696f6e2073686f756c642073756363656564000081525060200191505060405180910390fd5b600081836009540203905080600660008a73ffffffffffffffffffffffffffffffffffffffff1673ffffffffffffffffffffffffffffffffffffffff168152602001908152602001600020600082825401925050819055508b73ffffffffffffffffffffffffffffffffffffffff168873ffffffffffffffffffffffffffffffffffffffff167f022c0d992e4d873a3748436d960d5140c1f9721cf73f7ca5ec679d3d9f4fe2d58f86604051808381526020018281526020019250505060405180910390a3829a5050505050505050505b505092915050565b600068010000000000000000600660008473ffffffffffffffffffffffffffffffffffffffff1673ffffffffffffffffffffffffffffffffffffffff16815260200190815260200160002054600460008573ffffffffffffffffffffffffffffffffffffffff1673ffffffffffffffffffffffffffffffffffffffff1681526020019081526020016000205460095402038161163557fe5b049050919050565b60008054600181600116156101000203166002900480601f0160208091040260200160405190810160405280929190818152602001828054600181600116156101000203166002900480156116d35780601f106116a8576101008083540402835291602001916116d3565b820191906000526020600020905b8154815290600101906020018083116116b657829003601f168201915b505050505081565b6000806116ec83600a60ff166132cf565b905060006116fa8483613319565b9050600061170782613363565b9050809350505050919050565b6000600854905090565b600b60019054906101000a900460ff1681565b600060085482111561174257600080fd5b600061174d836133ee565b9050600061175f82600a60ff166132cf565b9050600061176d8383613319565b9050809350505050919050565b600b60009054906101000a900460ff1681565b601281565b6000803390506117a18161159d565b91505090565b6000600b60019054906101000a900460ff16156119cc5769010f0cf064dd59200000816117d2611be7565b03101561182a576040517f08c379a00000000000000000000000000000000000000000000000000000000081526004018080602001828103825260368152602001806137036036913960400191505060405180910390fd5b6000611834611792565b1161183e57600080fd5b6000339050600061184d611792565b9050680100000000000000008102600660008473ffffffffffffffffffffffffffffffffffffffff1673ffffffffffffffffffffffffffffffffffffffff16815260200190815260200160002060008282540192505081905550600560008373ffffffffffffffffffffffffffffffffffffffff1673ffffffffffffffffffffffffffffffffffffffff16815260200190815260200160002054810190506000600560008473ffffffffffffffffffffffffffffffffffffffff1673ffffffffffffffffffffffffffffffffffffffff168152602001908152602001600020819055508173ffffffffffffffffffffffffffffffffffffffff166108fc829081150290604051600060405180830381858888f19350505050158015611976573d6000803e3d6000fd5b508173ffffffffffffffffffffffffffffffffffffffff167fccad973dcd043c7d680389db4378bd6b9775db7124092e9e0422c9e46d7985dc826040518082815260200191505060405180910390a25050611b85565b6000600b60016101000a81548160ff02191690831515021790555060006119f1611792565b116119fb57600080fd5b60003390506000611a0a611792565b9050680100000000000000008102600660008473ffffffffffffffffffffffffffffffffffffffff1673ffffffffffffffffffffffffffffffffffffffff16815260200190815260200160002060008282540192505081905550600560008373ffffffffffffffffffffffffffffffffffffffff1673ffffffffffffffffffffffffffffffffffffffff16815260200190815260200160002054810190506000600560008473ffffffffffffffffffffffffffffffffffffffff1673ffffffffffffffffffffffffffffffffffffffff168152602001908152602001600020819055508173ffffffffffffffffffffffffffffffffffffffff166108fc829081150290604051600060405180830381858888f19350505050158015611b33573d6000803e3d6000fd5b508173ffffffffffffffffffffffffffffffffffffffff167fccad973dcd043c7d680389db4378bd6b9775db7124092e9e0422c9e46d7985dc826040518082815260200191505060405180910390a250505b50565b6000806008541415611ba8576402540be40064174876e800039050611be4565b6000611bbb670de0b6b3a76400006133ee565b90506000611bcd82600a60ff166132cf565b90506000611bdb8383613319565b90508093505050505b90565b60003073ffffffffffffffffffffffffffffffffffffffff1631905090565b6000600460008373ffffffffffffffffffffffffffffffffffffffff1673ffffffffffffffffffffffffffffffffffffffff168152602001908152602001600020549050919050565b600a6020528060005260406000206000915054906101000a900460ff1681565b6000806008541415611c8f576402540be40064174876e800019050611ccb565b6000611ca2670de0b6b3a76400006133ee565b90506000611cb482600a60ff166132cf565b90506000611cc28383613247565b90508093505050505b90565b6000339050600a60008273ffffffffffffffffffffffffffffffffffffffff1673ffffffffffffffffffffffffffffffffffffffff16815260200190815260200160002060009054906101000a900460ff16611d2957600080fd5b81600a60008573ffffffffffffffffffffffffffffffffffffffff1673ffffffffffffffffffffffffffffffffffffffff16815260200190815260200160002060006101000a81548160ff021916908315150217905550505050565b600080339050611d9481611c06565b91505090565b60018054600181600116156101000203166002900480601f016020809104026020016040519081016040528092919081815260200182805460018160011615610100020316600290048015611e305780601f10611e0557610100808354040283529160200191611e30565b820191906000526020600020905b815481529060010190602001808311611e1357829003601f168201915b505050505081565b6000339050600a60008273ffffffffffffffffffffffffffffffffffffffff1673ffffffffffffffffffffffffffffffffffffffff16815260200190815260200160002060009054906101000a900460ff16611e9357600080fd5b6000600b60006101000a81548160ff02191690831515021790555050565b600081600b60019054906101000a900460ff16156123515769010f0cf064dd5920000081611edd611be7565b031015611f35576040517f08c379a00000000000000000000000000000000000000000000000000000000081526004018080602001828103825260368152602001806137036036913960400191505060405180910390fd5b6000611f3f611d85565b11611f4957600080fd5b6000339050600b60009054906101000a900460ff16158015611faa5750600460008273ffffffffffffffffffffffffffffffffffffffff1673ffffffffffffffffffffffffffffffffffffffff168152602001908152602001600020548411155b611fb357600080fd5b6000611fbd611792565b1115611fcc57611fcb6117a7565b5b6000611fdc85600a60ff166132cf565b90506000611fea8683613319565b90506000611ff7836133ee565b9050600061200982600560ff166132cf565b905060006120178383613319565b905061208460056000600360009054906101000a900473ffffffffffffffffffffffffffffffffffffffff1673ffffffffffffffffffffffffffffffffffffffff1673ffffffffffffffffffffffffffffffffffffffff1681526020019081526020016000205483613247565b60056000600360009054906101000a900473ffffffffffffffffffffffffffffffffffffffff1673ffffffffffffffffffffffffffffffffffffffff1673ffffffffffffffffffffffffffffffffffffffff168152602001908152602001600020819055506120f560085486613319565b600881905550612144600460008873ffffffffffffffffffffffffffffffffffffffff1673ffffffffffffffffffffffffffffffffffffffff168152602001908152602001600020548a613319565b600460008873ffffffffffffffffffffffffffffffffffffffff1673ffffffffffffffffffffffffffffffffffffffff168152602001908152602001600020819055506121d0600460008c73ffffffffffffffffffffffffffffffffffffffff1673ffffffffffffffffffffffffffffffffffffffff1681526020019081526020016000205485613247565b600460008c73ffffffffffffffffffffffffffffffffffffffff1673ffffffffffffffffffffffffffffffffffffffff168152602001908152602001600020819055508860095402600660008873ffffffffffffffffffffffffffffffffffffffff1673ffffffffffffffffffffffffffffffffffffffff168152602001908152602001600020600082825403925050819055508360095402600660008c73ffffffffffffffffffffffffffffffffffffffff1673ffffffffffffffffffffffffffffffffffffffff168152602001908152602001600020600082825401925050819055506122d7600954600854680100000000000000008402816122d157fe5b04613247565b6009819055508973ffffffffffffffffffffffffffffffffffffffff168673ffffffffffffffffffffffffffffffffffffffff167fddf252ad1be2c89b69c2b068fc378daa952ba7f163c4a11628f55a4df523b3ef866040518082815260200191505060405180910390a360019750505050505050612784565b6000600b60016101000a81548160ff0219169083151502179055506000612376611d85565b1161238057600080fd5b6000339050600b60009054906101000a900460ff161580156123e15750600460008273ffffffffffffffffffffffffffffffffffffffff1673ffffffffffffffffffffffffffffffffffffffff168152602001908152602001600020548411155b6123ea57600080fd5b60006123f4611792565b1115612403576124026117a7565b5b600061241385600a60ff166132cf565b905060006124218683613319565b9050600061242e836133ee565b9050600061244082600560ff166132cf565b9050600061244e8383613319565b90506124bb60056000600360009054906101000a900473ffffffffffffffffffffffffffffffffffffffff1673ffffffffffffffffffffffffffffffffffffffff1673ffffffffffffffffffffffffffffffffffffffff1681526020019081526020016000205483613247565b60056000600360009054906101000a900473ffffffffffffffffffffffffffffffffffffffff1673ffffffffffffffffffffffffffffffffffffffff1673ffffffffffffffffffffffffffffffffffffffff1681526020019081526020016000208190555061252c60085486613319565b60088190555061257b600460008873ffffffffffffffffffffffffffffffffffffffff1673ffffffffffffffffffffffffffffffffffffffff168152602001908152602001600020548a613319565b600460008873ffffffffffffffffffffffffffffffffffffffff1673ffffffffffffffffffffffffffffffffffffffff16815260200190815260200160002081905550612607600460008c73ffffffffffffffffffffffffffffffffffffffff1673ffffffffffffffffffffffffffffffffffffffff1681526020019081526020016000205485613247565b600460008c73ffffffffffffffffffffffffffffffffffffffff1673ffffffffffffffffffffffffffffffffffffffff168152602001908152602001600020819055508860095402600660008873ffffffffffffffffffffffffffffffffffffffff1673ffffffffffffffffffffffffffffffffffffffff168152602001908152602001600020600082825403925050819055508360095402600660008c73ffffffffffffffffffffffffffffffffffffffff1673ffffffffffffffffffffffffffffffffffffffff1681526020019081526020016000206000828254019250508190555061270e6009546008546801000000000000000084028161270857fe5b04613247565b6009819055508973ffffffffffffffffffffffffffffffffffffffff168673ffffffffffffffffffffffffffffffffffffffff167fddf252ad1be2c89b69c2b068fc378daa952ba7f163c4a11628f55a4df523b3ef866040518082815260200191505060405180910390a3600197505050505050505b5092915050565b6000339050600a60008273ffffffffffffffffffffffffffffffffffffffff1673ffffffffffffffffffffffffffffffffffffffff16815260200190815260200160002060009054906101000a900460ff166127e657600080fd5b81600190805190602001906127fc92919061365d565b505050565b6000339050600a60008273ffffffffffffffffffffffffffffffffffffffff1673ffffffffffffffffffffffffffffffffffffffff16815260200190815260200160002060009054906101000a900460ff1661285c57600080fd5b816000908051906020019061287292919061365d565b505050565b80600b60019054906101000a900460ff1615612c185769010f0cf064dd59200000816128a1611be7565b0310156128f9576040517f08c379a00000000000000000000000000000000000000000000000000000000081526004018080602001828103825260368152602001806137036036913960400191505060405180910390fd5b6000612903611d85565b1161290d57600080fd5b6000339050600460008273ffffffffffffffffffffffffffffffffffffffff1673ffffffffffffffffffffffffffffffffffffffff1681526020019081526020016000205483111561295e57600080fd5b6000839050600061296e826133ee565b9050600061298082600a60ff166132cf565b9050600061299282600560ff166132cf565b905060006129a08383613319565b905060006129ae8583613319565b9050612a1b60056000600360009054906101000a900473ffffffffffffffffffffffffffffffffffffffff1673ffffffffffffffffffffffffffffffffffffffff1673ffffffffffffffffffffffffffffffffffffffff1681526020019081526020016000205484613247565b60056000600360009054906101000a900473ffffffffffffffffffffffffffffffffffffffff1673ffffffffffffffffffffffffffffffffffffffff1673ffffffffffffffffffffffffffffffffffffffff16815260200190815260200160002081905550612a8c60085487613319565b600881905550612adb600460008973ffffffffffffffffffffffffffffffffffffffff1673ffffffffffffffffffffffffffffffffffffffff1681526020019081526020016000205487613319565b600460008973ffffffffffffffffffffffffffffffffffffffff1673ffffffffffffffffffffffffffffffffffffffff168152602001908152602001600020819055506000680100000000000000008202876009540201905080600660008a73ffffffffffffffffffffffffffffffffffffffff1673ffffffffffffffffffffffffffffffffffffffff1681526020019081526020016000206000828254039250508190555060006008541115612bb557612bae60095460085468010000000000000000860281612ba857fe5b04613247565b6009819055505b8773ffffffffffffffffffffffffffffffffffffffff167fc4823739c5787d2ca17e404aa47d5569ae71dfb49cbf21b3f6152ed238a311398884604051808381526020018281526020019250505060405180910390a25050505050505050612f4e565b6000600b60016101000a81548160ff0219169083151502179055506000612c3d611d85565b11612c4757600080fd5b6000339050600460008273ffffffffffffffffffffffffffffffffffffffff1673ffffffffffffffffffffffffffffffffffffffff16815260200190815260200160002054831115612c9857600080fd5b60008390506000612ca8826133ee565b90506000612cba82600a60ff166132cf565b90506000612ccc82600560ff166132cf565b90506000612cda8383613319565b90506000612ce88583613319565b9050612d5560056000600360009054906101000a900473ffffffffffffffffffffffffffffffffffffffff1673ffffffffffffffffffffffffffffffffffffffff1673ffffffffffffffffffffffffffffffffffffffff1681526020019081526020016000205484613247565b60056000600360009054906101000a900473ffffffffffffffffffffffffffffffffffffffff1673ffffffffffffffffffffffffffffffffffffffff1673ffffffffffffffffffffffffffffffffffffffff16815260200190815260200160002081905550612dc660085487613319565b600881905550612e15600460008973ffffffffffffffffffffffffffffffffffffffff1673ffffffffffffffffffffffffffffffffffffffff1681526020019081526020016000205487613319565b600460008973ffffffffffffffffffffffffffffffffffffffff1673ffffffffffffffffffffffffffffffffffffffff168152602001908152602001600020819055506000680100000000000000008202876009540201905080600660008a73ffffffffffffffffffffffffffffffffffffffff1673ffffffffffffffffffffffffffffffffffffffff1681526020019081526020016000206000828254039250508190555060006008541115612eef57612ee860095460085468010000000000000000860281612ee257fe5b04613247565b6009819055505b8773ffffffffffffffffffffffffffffffffffffffff167fc4823739c5787d2ca17e404aa47d5569ae71dfb49cbf21b3f6152ed238a311398884604051808381526020018281526020019250505060405180910390a250505050505050505b5050565b6000600b60019054906101000a900460ff16156130405769010f0cf064dd5920000081612f7d611be7565b031015612fd5576040517f08c379a00000000000000000000000000000000000000000000000000000000081526004018080602001828103825260368152602001806137036036913960400191505060405180910390fd5b60003390506000600460008373ffffffffffffffffffffffffffffffffffffffff1673ffffffffffffffffffffffffffffffffffffffff16815260200190815260200160002054905060008111156130315761303081612877565b5b6130396117a7565b50506130c2565b6000600b60016101000a81548160ff02191690831515021790555060003390506000600460008373ffffffffffffffffffffffffffffffffffffffff1673ffffffffffffffffffffffffffffffffffffffff16815260200190815260200160002054905060008111156130b7576130b681612877565b5b6130bf6117a7565b50505b50565b60006130d1348361095f565b50919050565b60006130e1611792565b116130eb57600080fd5b60006130f5611792565b90506000339050680100000000000000008202600660008373ffffffffffffffffffffffffffffffffffffffff1673ffffffffffffffffffffffffffffffffffffffff16815260200190815260200160002060008282540192505081905550600560008273ffffffffffffffffffffffffffffffffffffffff1673ffffffffffffffffffffffffffffffffffffffff16815260200190815260200160002054820191506000600560008373ffffffffffffffffffffffffffffffffffffffff1673ffffffffffffffffffffffffffffffffffffffff1681526020019081526020016000208190555060006131ea83600061095f565b90508173ffffffffffffffffffffffffffffffffffffffff167fbe339fc14b041c2b0e0f3dd2cd325d0c3668b78378001e53160eab36153264588483604051808381526020018281526020019250505060405180910390a2505050565b6000808284019050838110156132c5576040517f08c379a000000000000000000000000000000000000000000000000000000000815260040180806020018281038252601b8152602001807f536166654d6174683a206164646974696f6e206f766572666c6f77000000000081525060200191505060405180910390fd5b8091505092915050565b600061331183836040518060400160405280601a81526020017f536166654d6174683a206469766973696f6e206279207a65726f000000000000815250613492565b905092915050565b600061335b83836040518060400160405280601e81526020017f536166654d6174683a207375627472616374696f6e206f766572666c6f770000815250613558565b905092915050565b600080670de0b6b3a764000064174876e80002905060006008546402540be4006133d96133d3600854866402540be400600202020260026008540a60026402540be4000a02670de0b6b3a76400008a02670de0b6b3a76400006402540be40002600202026002890a010101613618565b85613319565b816133e057fe5b040390508092505050919050565b600080670de0b6b3a7640000830190506000670de0b6b3a76400006008540190506000670de0b6b3a764000061347d670de0b6b3a764000085036402540be400670de0b6b3a7640000868161343f57fe5b046402540be4000264174876e8000103026002670de0b6b3a7640000876002890a038161346857fe5b046402540be400028161347757fe5b04613319565b8161348457fe5b049050809350505050919050565b6000808311829061353e576040517f08c379a00000000000000000000000000000000000000000000000000000000081526004018080602001828103825283818151815260200191508051906020019080838360005b838110156135035780820151818401526020810190506134e8565b50505050905090810190601f1680156135305780820380516001836020036101000a031916815260200191505b509250505060405180910390fd5b50600083858161354a57fe5b049050809150509392505050565b6000838311158290613605576040517f08c379a00000000000000000000000000000000000000000000000000000000081526004018080602001828103825283818151815260200191508051906020019080838360005b838110156135ca5780820151818401526020810190506135af565b50505050905090810190601f1680156135f75780820380516001836020036101000a031916815260200191505b509250505060405180910390fd5b5060008385039050809150509392505050565b6000806002600184018161362857fe5b0490508291505b818110156136575780915060028182858161364657fe5b04018161364f57fe5b04905061362f565b50919050565b828054600181600116156101000203166002900490600052602060002090601f016020900481019282601f1061369e57805160ff19168380011785556136cc565b828001600101855582156136cc579182015b828111156136cb5782518255916020019190600101906136b0565b5b5090506136d991906136dd565b5090565b6136ff91905b808211156136fb5760008160009055506001016136e3565b5090565b9056fe457468657265756d20636f6c6c61746572616c20737570706c7920686173206e6f7420726561636865642068617463682071756f7461a265627a7a7231582081f24e4d2ff0bb23246c17bc6d1a82c5a5c2f8ac7825129c2db54f4a169b3a6764736f6c634300050d0032",
  "source": "/**\n *Submitted for verification at Etherscan.io on 2018-02-25\n*/\n\npragma solidity ^0.5.13;\n\nimport \"@daostack/arc/contracts/controller/Controller.sol\";\nimport \"openzeppelin-solidity/contracts/math/SafeMath.sol\";\n\n/*\n* Team JUST presents..\n* ====================================*\n* _____     _ _ _ _____    ___ ____   * \n*|  _  |___| | | |  |  |  |_  |    \\  *\n*|   __| . | | | |     |  |_  |  |  | * \n*|__|  |___|_____|__|__|  |___|____/  *\n*                                     *\n* ====================================*\n* -> What?\n* The original autonomous pyramid, improved:\n* [x] More stable than ever, having withstood severe testnet abuse and attack attempts from our community!.\n* [x] Audited, tested, and approved by known community security specialists such as tocsick and Arc.\n* [X] New functionality; you can now perform partial sell orders. If you succumb to weak hands, you don't have to dump all of your bags!\n* [x] New functionality; you can now transfer tokens between wallets. Trading is now possible from within the contract!\n* [x] New Feature: PoS Masternodes! The first implementation of Ethereum Staking in the world! Vitalik is mad.\n* [x] Masternodes: Holding 100 PoWH3D Tokens allow you to generate a Masternode link, Masternode links are used as unique entry points to the contract!\n* [x] Masternodes: All players who enter the contract through your Masternode have 30% of their 10% dividends fee rerouted from the master-node, to the node-master!\n*\n* -> What about the last projects?\n* Every programming member of the old dev team has been fired and/or killed by 232.\n* The new dev team consists of seasoned, professional developers and has been audited by veteran solidity experts.\n* Additionally, two independent testnet iterations have been used by hundreds of people; not a single point of failure was found.\n* \n* -> Who worked on this project?\n* - PonziBot (math/memes/main site/master)\n* - Mantso (lead solidity dev/lead web3 dev)\n* - swagg (concept design/feedback/management)\n* - Anonymous#1 (main site/web3/test cases)\n* - Anonymous#2 (math formulae/whitepaper)\n*\n* -> Who has audited & approved the projected:\n* - Arc\n* - tocisck\n* - sumpunk\n*/\n\ncontract Hourglass {\n    /*=================================\n    =            MODIFIERS            =\n    =================================*/\n    // only people with tokens\n    modifier onlyBagholders() {\n        require(myTokens() > 0);\n        _;\n    }\n\n    // only people with profits\n    modifier onlyStronghands() {\n        require(myDividends() > 0);\n        _;\n    }\n\n    // administrators can:\n    // -> change the name of the contract\n    // -> change the name of the token\n    // -> change the PoS difficulty (How many tokens it costs to hold a masternode, in case it gets crazy high later)\n    // they CANNOT:\n    // -> take funds\n    // -> disable withdrawals\n    // -> kill the contract\n    // -> change the price of tokens\n    modifier onlyAdministrator() {\n        address _customerAddress = msg.sender;\n        require(administrators[_customerAddress]);\n        _;\n    }\n\n    // no one can sell or transfer token until we've passed the hatch amount\n    modifier hasHatched(uint256 _amountOfEthereum) {\n        if (hatchOpen) {\n            require(\n                (totalEthereumBalance() - _amountOfEthereum) >= hatchQuota_,\n                \"Ethereum collateral supply has not reached hatch quota\"\n            );\n            _;\n        } else {\n            // in case the ether count drops low, the hatch phase won't reinitiate\n            hatchOpen = false;\n            _;\n        }\n    }\n\n    // ensures that the first tokens in the contract will be equally distributed\n    // meaning, no divine dump will be ever possible\n    // result: healthy longevity.\n    modifier antiEarlyWhale(uint256 _amountOfEthereum) {\n        address _customerAddress = msg.sender;\n\n        // are we still in the vulnerable phase?\n        // if so, enact anti early whale protocol\n        if (\n            onlyAmbassadors &&\n            ((totalEthereumBalance() - _amountOfEthereum) <= ambassadorQuota_)\n        ) {\n            require(\n                // is the customer in the ambassador list?\n                ambassadors_[_customerAddress] == true &&\n                    // does the customer purchase exceed the max ambassador quota?\n                    (ambassadorAccumulatedQuota_[_customerAddress] +\n                        _amountOfEthereum) <=\n                    ambassadorMaxPurchase_\n            );\n\n            // updated the accumulated quota\n            ambassadorAccumulatedQuota_[_customerAddress] = SafeMath.add(\n                ambassadorAccumulatedQuota_[_customerAddress],\n                _amountOfEthereum\n            );\n\n            // execute\n            _;\n        } else {\n            // in case the ether count drops low, the ambassador phase won't reinitiate\n            onlyAmbassadors = false;\n            _;\n        }\n\n    }\n\n    /*==============================\n    =            EVENTS            =\n    ==============================*/\n    event onTokenPurchase(\n        address indexed customerAddress,\n        uint256 incomingEthereum,\n        uint256 tokensMinted,\n        address indexed referredBy\n    );\n\n    event onTokenSell(\n        address indexed customerAddress,\n        uint256 tokensBurned,\n        uint256 ethereumEarned\n    );\n\n    event onReinvestment(\n        address indexed customerAddress,\n        uint256 ethereumReinvested,\n        uint256 tokensMinted\n    );\n\n    event onWithdraw(\n        address indexed customerAddress,\n        uint256 ethereumWithdrawn\n    );\n\n    // ERC20\n    event Transfer(address indexed from, address indexed to, uint256 tokens);\n\n    /*=====================================\n    =            CONFIGURABLES            =\n    =====================================*/\n    string public name = \"Housing Bonded Token\";\n    string public symbol = \"HBT\";\n    uint8 public constant decimals = 18;\n    uint8 internal constant dividendFee_ = 10;\n    uint8 internal constant operationalFee_ = 5;\n    uint256 internal constant tokenPriceInitial_ = 0.0000001 ether;\n    uint256 internal constant tokenPriceIncremental_ = 0.00000001 ether;\n    uint256 internal constant magnitude = 2**64;\n\n    // hatch requirements\n    uint256 internal constant hatchQuota_ = 5000 ether;\n\n    // ambassador program\n    mapping(address => bool) internal ambassadors_;\n    uint256 internal constant ambassadorMaxPurchase_ = 1 ether;\n    uint256 internal constant ambassadorQuota_ = 20 ether;\n\n    // DAO address\n    address payable DAOaddress = 0x27eA55b89B667560A6b35b14e8a3476Fcaa6aa34;\n\n    /*================================\n    =            DATASETS            =\n    ================================*/\n    // amount of shares for each address (scaled number)\n    mapping(address => uint256) internal tokenBalanceLedger_;\n    mapping(address => uint256) internal operationalBalance_;\n    mapping(address => int256) internal payoutsTo_;\n    mapping(address => uint256) internal ambassadorAccumulatedQuota_;\n    uint256 internal tokenSupply_ = 0;\n    uint256 internal profitPerShare_;\n\n    // administrator list (see above on what they can do)\n    mapping(address => bool) public administrators;\n\n    // when this is set to true, only ambassadors can purchase tokens (this prevents a whale premine, it ensures a fairly distributed upper pyramid)\n    bool public onlyAmbassadors = false;\n\n    // prevent sells and transfers before hatch closes\n    bool public hatchOpen = true;\n\n    using SafeMath for uint256;\n\n    /*=======================================\n    =            PUBLIC FUNCTIONS            =\n    =======================================*/\n    /*\n    * -- APPLICATION ENTRY POINTS --  \n    */\n    constructor() public {\n        // add administrators here\n        administrators[DAOaddress] = true;\n\n        // // add the ambassadors here.\n        // // mantso - lead solidity dev & lead web dev.\n        // ambassadors_[0x8b4DA1827932D71759687f925D17F81Fc94e3A9D] = true;\n\n        // // ponzibot - mathematics & website, and undisputed meme god.\n        // ambassadors_[0x8e0d985f3Ec1857BEc39B76aAabDEa6B31B67d53] = true;\n\n        // // swagg - concept design, feedback, management.\n        // ambassadors_[0x7563A35d5610eE7c9CD330E255Da0e779a644C19] = true;\n\n        // // k-dawgz - shilling machine, meme maestro, bizman.\n        // ambassadors_[0x215e3C713BADb158A457e61f99325bBB5d278E57] = true;\n\n        // // elmojo - all those pretty .GIFs & memes you see? you can thank this man for that.\n        // ambassadors_[0xaFF8B5CDCB339eEf5e1100597740a394C7B9c6cA] = true;\n\n        // // capex - community moderator.\n        // ambassadors_[0x8dc6569c28521560EAF1890bC41b2F3FC2010E1b] = true;\n\n        // // jrmungandr - pentests & twitter trendsetter.\n        // ambassadors_[0xf14BE3662FE4c9215c27698166759Db6967De94f] = true;\n\n        // // inventor - the source behind the non-intrusive referral model.\n        // ambassadors_[0x18E90Fc6F70344f53EBd4f6070bf6Aa23e2D748C] = true;\n\n        // // tocsick - pentesting, contract auditing.\n        // ambassadors_[0x49Aae4D923207e80Fc91E626BCb6532502264dfC] = true;\n\n        // // arc - pentesting, contract auditing.\n        // ambassadors_[0x3a0cca1A832644B60730E5D4c27947C5De609d62] = true;\n\n        // // sumpunk - contract auditing.\n        // ambassadors_[0x7ac74Fcc1a71b106F12c55ee8F802C9F672Ce40C] = true;\n\n        // // randall - charts & sheets, data dissector, advisor.\n        // ambassadors_[0x2b219C2178f099dE4E9A3667d5cCc2cc64da0763] = true;\n\n        // // ambius - 3d chart visualization.\n        // ambassadors_[0x2A04C7335f90a6bd4e9c4F713DD792200e27F2E6] = true;\n\n        // // contributors that need to remain private out of security concerns.\n        // ambassadors_[0x35668818ba8F768D4C21787a6f45C86C69394dfD] = true; //dp\n        // ambassadors_[0xa3120da52e604aC3Fc80A63813Ef15476e0B6AbD] = true; //tc\n        // ambassadors_[0x924E71bA600372e2410285423F1Fe66799b717EC] = true; //ja\n        // ambassadors_[0x6Ed450e062C20F929CB7Ee72fCc53e9697980a18] = true; //sf\n        // ambassadors_[0x18864A6682c8EB79EEA5B899F11bC94ef9a85ADb] = true; //tb\n        // ambassadors_[0x9cC1BdC994b7a847705D19106287C0BF94EF04B5] = true; //sm\n        // ambassadors_[0x6926572813ec1438088963f208C61847df435a74] = true; //mc\n        // ambassadors_[0xE16Ab764a02Ae03681E351Ac58FE79717c0eE8C6] = true; //et\n        // ambassadors_[0x276F4a79F22D1BfC51Bd8dc5b27Bfd934C823932] = true; //sn\n        // ambassadors_[0xA2b4ed3E2f4beF09FB35101B76Ef4cB9D3eeCaCf] = true; //bt\n        // ambassadors_[0x147fc6b04c95BCE47D013c8d7a200ee434323669] = true; //al\n\n    }\n\n    /**\n     * Converts all incoming ethereum to tokens for the caller, and passes down the referral addy (if any)\n     */\n    function buy(address _referredBy) public payable returns (uint256) {\n        purchaseTokens(msg.value, _referredBy);\n    }\n\n    /**\n     * Fallback function to handle ethereum that was send straight to the contract\n     * Unfortunately we cannot use a referral address this way.\n     */\n    function() external payable {\n        purchaseTokens(msg.value, address(0));\n    }\n\n    /**\n     * Converts all of caller's dividends to tokens.\n     */\n    function reinvest() public onlyStronghands() {\n        // fetch dividends\n        uint256 _dividends = myDividends(); // get operational bonus later in the code if customer is DAO\n\n        // pay out the dividends virtually\n        address _customerAddress = msg.sender;\n        payoutsTo_[_customerAddress] += (int256)(_dividends * magnitude);\n\n        // retrieve operational bonus\n        _dividends += operationalBalance_[_customerAddress];\n        operationalBalance_[_customerAddress] = 0;\n\n        // dispatch a buy order with the virtualized \"withdrawn dividends\"\n        uint256 _tokens = purchaseTokens(_dividends, address(0));\n\n        // fire event\n        emit onReinvestment(_customerAddress, _dividends, _tokens);\n    }\n\n    /**\n     * Alias of sell() and withdraw().\n     */\n    function exit() public hasHatched(0) {\n        // get token count for caller & sell them all\n        address _customerAddress = msg.sender;\n        uint256 _tokens = tokenBalanceLedger_[_customerAddress];\n        if (_tokens > 0) sell(_tokens);\n\n        // lambo delivery service\n        withdraw();\n    }\n\n    /**\n     * Withdraws all of the callers earnings.\n     */\n    function withdraw() public hasHatched(0) onlyStronghands() {\n        // setup data\n        address payable _customerAddress = msg.sender;\n        uint256 _dividends = myDividends(); // get operational bonus later in the code if customer is DAO\n\n        // update dividend tracker\n        payoutsTo_[_customerAddress] += (int256)(_dividends * magnitude);\n\n        // add operational bonus bonus\n        _dividends += operationalBalance_[_customerAddress];\n        operationalBalance_[_customerAddress] = 0;\n\n        // lambo delivery service\n        _customerAddress.transfer(_dividends);\n\n        // fire event\n        emit onWithdraw(_customerAddress, _dividends);\n    }\n\n    /**\n     * Liquifies tokens to ethereum.\n     */\n    function sell(uint256 _amountOfTokens)\n        public\n        hasHatched(_amountOfTokens)\n        onlyBagholders()\n    {\n        // setup data\n        address _customerAddress = msg.sender;\n        // russian hackers BTFO\n        require(_amountOfTokens <= tokenBalanceLedger_[_customerAddress]);\n        uint256 _tokens = _amountOfTokens;\n        uint256 _ethereum = tokensToEthereum_(_tokens);\n        uint256 _undividedDividends = SafeMath.div(_ethereum, dividendFee_);\n        uint256 _operationalCost = SafeMath.div(\n            _undividedDividends,\n            operationalFee_\n        );\n        uint256 _dividends = SafeMath.sub(\n            _undividedDividends,\n            _operationalCost\n        );\n        uint256 _taxedEthereum = SafeMath.sub(_ethereum, _dividends);\n\n        // DAO takes a cut for operation fees\n        operationalBalance_[DAOaddress] = SafeMath.add(\n            operationalBalance_[DAOaddress],\n            _operationalCost\n        );\n\n        // burn the sold tokens\n        tokenSupply_ = SafeMath.sub(tokenSupply_, _tokens);\n        tokenBalanceLedger_[_customerAddress] = SafeMath.sub(\n            tokenBalanceLedger_[_customerAddress],\n            _tokens\n        );\n\n        // update dividends tracker\n        int256 _updatedPayouts = (int256)(\n            profitPerShare_ * _tokens + (_taxedEthereum * magnitude)\n        );\n        payoutsTo_[_customerAddress] -= _updatedPayouts;\n\n        // dividing by zero is a bad idea\n        if (tokenSupply_ > 0) {\n            // update the amount of dividends per token\n            profitPerShare_ = SafeMath.add(\n                profitPerShare_,\n                (_dividends * magnitude) / tokenSupply_\n            );\n        }\n\n        // fire event\n        emit onTokenSell(_customerAddress, _tokens, _taxedEthereum);\n    }\n\n    /**\n     * Transfer tokens from the caller to a new holder.\n     * Remember, there's a 10% fee here as well.\n     */\n    function transfer(address _toAddress, uint256 _amountOfTokens)\n        public\n        hasHatched(_amountOfTokens)\n        onlyBagholders()\n        returns (bool)\n    {\n        // setup\n        address _customerAddress = msg.sender;\n\n        // make sure we have the requested tokens\n        // also disables transfers until ambassador phase is over\n        // ( we dont want whale premines )\n        require(\n            !onlyAmbassadors &&\n                _amountOfTokens <= tokenBalanceLedger_[_customerAddress]\n        );\n\n        // withdraw all outstanding dividends first\n        if (myDividends() > 0) withdraw();\n\n        // liquify 10% of the tokens that are transfered\n        // these are dispersed to shareholders\n        uint256 _tokenFee = SafeMath.div(_amountOfTokens, dividendFee_);\n        uint256 _taxedTokens = SafeMath.sub(_amountOfTokens, _tokenFee);\n        uint256 _undividedDividends = tokensToEthereum_(_tokenFee);\n        uint256 _operationalCost = SafeMath.div(\n            _undividedDividends,\n            operationalFee_\n        );\n        uint256 _dividends = SafeMath.sub(\n            _undividedDividends,\n            _operationalCost\n        );\n\n        // DAO takes a cut for operation fees\n        operationalBalance_[DAOaddress] = SafeMath.add(\n            operationalBalance_[DAOaddress],\n            _operationalCost\n        );\n\n        // burn the fee tokens\n        tokenSupply_ = SafeMath.sub(tokenSupply_, _tokenFee);\n\n        // exchange tokens\n        tokenBalanceLedger_[_customerAddress] = SafeMath.sub(\n            tokenBalanceLedger_[_customerAddress],\n            _amountOfTokens\n        );\n        tokenBalanceLedger_[_toAddress] = SafeMath.add(\n            tokenBalanceLedger_[_toAddress],\n            _taxedTokens\n        );\n\n        // update dividend trackers\n        payoutsTo_[_customerAddress] -= (int256)(\n            profitPerShare_ * _amountOfTokens\n        );\n        payoutsTo_[_toAddress] += (int256)(profitPerShare_ * _taxedTokens);\n\n        // disperse dividends among holders\n        profitPerShare_ = SafeMath.add(\n            profitPerShare_,\n            (_dividends * magnitude) / tokenSupply_\n        );\n\n        // fire event\n        emit Transfer(_customerAddress, _toAddress, _taxedTokens);\n\n        // ERC20\n        return true;\n\n    }\n\n    /*----------  ADMINISTRATOR ONLY FUNCTIONS  ----------*/\n    /**\n     * In case the amassador quota is not met, the administrator can manually disable the ambassador phase.\n     */\n    function disableInitialStage() public onlyAdministrator() {\n        onlyAmbassadors = false;\n    }\n\n    /**\n     * In case one of us dies, we need to replace ourselves.\n     */\n    function setAdministrator(address _identifier, bool _status)\n        public\n        onlyAdministrator()\n    {\n        administrators[_identifier] = _status;\n    }\n\n    /**\n     * If we want to rebrand, we can.\n     */\n    function setName(string memory _name) public onlyAdministrator() {\n        name = _name;\n    }\n\n    /**\n     * If we want to rebrand, we can.\n     */\n    function setSymbol(string memory _symbol) public onlyAdministrator() {\n        symbol = _symbol;\n    }\n\n    /*----------  HELPERS AND CALCULATORS  ----------*/\n    /**\n     * Method to view the current Ethereum stored in the contract\n     * Example: totalEthereumBalance()\n     */\n    function totalEthereumBalance() public view returns (uint256) {\n        return address(this).balance;\n    }\n\n    /**\n     * Retrieve the total token supply.\n     */\n    function totalSupply() public view returns (uint256) {\n        return tokenSupply_;\n    }\n\n    /**\n     * Retrieve the tokens owned by the caller.\n     */\n    function myTokens() public view returns (uint256) {\n        address _customerAddress = msg.sender;\n        return balanceOf(_customerAddress);\n    }\n\n    /**\n     * Retrieve the dividends owned by the caller.\n     * If `_includeReferralBonus` is to to 1/true, the referral bonus will be included in the calculations.\n     * The reason for this, is that in the frontend, we will want to get the total divs (global + ref)\n     * But in the internal calculations, we want them separate. \n     */\n\n    function myDividends() public view returns (uint256) {\n        address _customerAddress = msg.sender;\n        return dividendsOf(_customerAddress);\n    }\n\n    /**\n     * Retrieve the token balance of any single address.\n     */\n    function balanceOf(address _customerAddress) public view returns (uint256) {\n        return tokenBalanceLedger_[_customerAddress];\n    }\n\n    /**\n     * Retrieve the dividend balance of any single address.\n     */\n    function dividendsOf(address _customerAddress)\n        public\n        view\n        returns (uint256)\n    {\n        return\n            (uint256)(\n                (int256)(\n                    profitPerShare_ * tokenBalanceLedger_[_customerAddress]\n                ) -\n                    payoutsTo_[_customerAddress]\n            ) /\n            magnitude;\n    }\n\n    /**\n     * Return the buy price of 1 individual token.\n     */\n    function sellPrice() public view returns (uint256) {\n        // our calculation relies on the token supply, so we need supply. Doh.\n        if (tokenSupply_ == 0) {\n            return tokenPriceInitial_ - tokenPriceIncremental_;\n        } else {\n            uint256 _ethereum = tokensToEthereum_(1e18);\n            uint256 _dividends = SafeMath.div(_ethereum, dividendFee_);\n            uint256 _taxedEthereum = SafeMath.sub(_ethereum, _dividends);\n            return _taxedEthereum;\n        }\n    }\n\n    /**\n     * Return the sell price of 1 individual token.\n     */\n    function buyPrice() public view returns (uint256) {\n        // our calculation relies on the token supply, so we need supply. Doh.\n        if (tokenSupply_ == 0) {\n            return tokenPriceInitial_ + tokenPriceIncremental_;\n        } else {\n            uint256 _ethereum = tokensToEthereum_(1e18);\n            uint256 _dividends = SafeMath.div(_ethereum, dividendFee_);\n            uint256 _taxedEthereum = SafeMath.add(_ethereum, _dividends);\n            return _taxedEthereum;\n        }\n    }\n\n    /**\n     * Function for the frontend to dynamically retrieve the price scaling of buy orders.\n     */\n    function calculateTokensReceived(uint256 _ethereumToSpend)\n        public\n        view\n        returns (uint256)\n    {\n        uint256 _dividends = SafeMath.div(_ethereumToSpend, dividendFee_);\n        uint256 _taxedEthereum = SafeMath.sub(_ethereumToSpend, _dividends);\n        uint256 _amountOfTokens = ethereumToTokens_(_taxedEthereum);\n\n        return _amountOfTokens;\n    }\n\n    /**\n     * Function for the frontend to dynamically retrieve the price scaling of sell orders.\n     */\n    function calculateEthereumReceived(uint256 _tokensToSell)\n        public\n        view\n        returns (uint256)\n    {\n        require(_tokensToSell <= tokenSupply_);\n        uint256 _ethereum = tokensToEthereum_(_tokensToSell);\n        uint256 _dividends = SafeMath.div(_ethereum, dividendFee_);\n        uint256 _taxedEthereum = SafeMath.sub(_ethereum, _dividends);\n        return _taxedEthereum;\n    }\n\n    /*==========================================\n    =            INTERNAL FUNCTIONS            =\n    ==========================================*/\n    function purchaseTokens(uint256 _incomingEthereum, address _referredBy)\n        internal\n        antiEarlyWhale(_incomingEthereum)\n        returns (uint256)\n    {\n        // data setup\n        address _customerAddress = msg.sender;\n        uint256 _undividedDividends = SafeMath.div(\n            _incomingEthereum,\n            dividendFee_\n        );\n        uint256 _operationalCost = SafeMath.div(\n            _undividedDividends,\n            operationalFee_\n        );\n        uint256 _dividends = SafeMath.sub(\n            _undividedDividends,\n            _operationalCost\n        );\n        uint256 _taxedEthereum = SafeMath.sub(_incomingEthereum, _dividends);\n        uint256 _amountOfTokens = ethereumToTokens_(_taxedEthereum);\n        uint256 _fee = _dividends * magnitude;\n\n        // prevents overflow in the case that the pyramid somehow magically starts being used by everyone in the world\n        // (or hackers)\n        // and yes we know that the safemath function automatically rules out the \"greater then\" equasion.\n        require(\n            _amountOfTokens > 0 &&\n                (SafeMath.add(_amountOfTokens, tokenSupply_) > tokenSupply_)\n        );\n\n        // DAO takes a cut for operation fees\n        operationalBalance_[DAOaddress] = SafeMath.add(\n            operationalBalance_[DAOaddress],\n            _operationalCost\n        );\n\n        // we can't give people infinite ethereum\n        if (tokenSupply_ > 0) {\n            // add tokens to the pool\n            tokenSupply_ = SafeMath.add(tokenSupply_, _amountOfTokens);\n\n            // take the amount of dividends gained through this transaction, and allocates them evenly to each shareholder\n            profitPerShare_ += ((_dividends * magnitude) / (tokenSupply_));\n\n            // calculate the amount of tokens the customer receives over his purchase\n            _fee =\n                _fee -\n                (_fee -\n                    (_amountOfTokens *\n                        ((_dividends * magnitude) / (tokenSupply_))));\n\n        } else {\n            // add tokens to the pool\n            tokenSupply_ = _amountOfTokens;\n        }\n\n        // update circulating supply & the ledger address for the customer\n        tokenBalanceLedger_[_customerAddress] = SafeMath.add(\n            tokenBalanceLedger_[_customerAddress],\n            _amountOfTokens\n        );\n\n        // call the dao to mint reputation...\n        require(\n            Controller(Avatar(DAOaddress).owner()).mintReputation(\n                _amountOfTokens,\n                _customerAddress,\n                address(DAOaddress)\n            ),\n            \"mint reputation should succeed\"\n        );\n        //\n\n        // Tells the contract that the buyer doesn't deserve dividends for the tokens before they owned them;\n        //really i know you think you do but you don't\n        int256 _updatedPayouts = (int256)(\n            (profitPerShare_ * _amountOfTokens) - _fee\n        );\n        payoutsTo_[_customerAddress] += _updatedPayouts;\n\n        // fire event\n        emit onTokenPurchase(\n            _customerAddress,\n            _incomingEthereum,\n            _amountOfTokens,\n            _referredBy\n        );\n\n        return _amountOfTokens;\n    }\n\n    /**\n     * Calculate Token price based on an amount of incoming ethereum\n     * It's an algorithm, hopefully we gave you the whitepaper with it in scientific notation;\n     * Some conversions occurred to prevent decimal errors or underflows / overflows in solidity code.\n     */\n    function ethereumToTokens_(uint256 _ethereum)\n        internal\n        view\n        returns (uint256)\n    {\n        uint256 _tokenPriceInitial = tokenPriceInitial_ * 1e18;\n        uint256 _tokensReceived = ((\n            // underflow attempts BTFO\n            SafeMath.sub(\n                (\n                    sqrt(\n                        (_tokenPriceInitial**2) +\n                            (2 *\n                                (tokenPriceIncremental_ * 1e18) *\n                                (_ethereum * 1e18)) +\n                            (((tokenPriceIncremental_)**2) *\n                                (tokenSupply_**2)) +\n                            (2 *\n                                (tokenPriceIncremental_) *\n                                _tokenPriceInitial *\n                                tokenSupply_)\n                    )\n                ),\n                _tokenPriceInitial\n            )\n        ) /\n            (tokenPriceIncremental_)) -\n            (tokenSupply_);\n\n        return _tokensReceived;\n    }\n\n    /**\n     * Calculate token sell value.\n     * It's an algorithm, hopefully we gave you the whitepaper with it in scientific notation;\n     * Some conversions occurred to prevent decimal errors or underflows / overflows in solidity code.\n     */\n    function tokensToEthereum_(uint256 _tokens)\n        internal\n        view\n        returns (uint256)\n    {\n        uint256 tokens_ = (_tokens + 1e18);\n        uint256 _tokenSupply = (tokenSupply_ + 1e18);\n        uint256 _etherReceived = (// underflow attempts BTFO\n        SafeMath.sub(\n            (((tokenPriceInitial_ +\n                (tokenPriceIncremental_ * (_tokenSupply / 1e18))) -\n                tokenPriceIncremental_) *\n                (tokens_ - 1e18)),\n            (tokenPriceIncremental_ * ((tokens_**2 - tokens_) / 1e18)) / 2\n        ) /\n            1e18);\n        return _etherReceived;\n    }\n\n    //This is where all your gas goes, sorry\n    //Not sorry, you probably only paid 1 gwei\n    function sqrt(uint256 x) internal pure returns (uint256 y) {\n        uint256 z = (x + 1) / 2;\n        y = x;\n        while (z < y) {\n            y = z;\n            z = (x / z + z) / 2;\n        }\n    }\n}\n\n// /**\n//  * @title SafeMath\n//  * @dev Math operations with safety checks that throw on error\n//  */\n// library SafeMath {\n//     /**\n//     * @dev Multiplies two numbers, throws on overflow.\n//     */\n//     function mul(uint256 a, uint256 b) internal pure returns (uint256) {\n//         if (a == 0) {\n//             return 0;\n//         }\n//         uint256 c = a * b;\n//         assert(c / a == b);\n//         return c;\n//     }\n\n//     /**\n//     * @dev Integer division of two numbers, truncating the quotient.\n//     */\n//     function div(uint256 a, uint256 b) internal pure returns (uint256) {\n//         // assert(b > 0); // Solidity automatically throws when dividing by 0\n//         uint256 c = a / b;\n//         // assert(a == b * c + a % b); // There is no case in which this doesn't hold\n//         return c;\n//     }\n\n//     /**\n//     * @dev Substracts two numbers, throws on overflow (i.e. if subtrahend is greater than minuend).\n//     */\n//     function sub(uint256 a, uint256 b) internal pure returns (uint256) {\n//         assert(b <= a);\n//         return a - b;\n//     }\n\n//     /**\n//     * @dev Adds two numbers, throws on overflow.\n//     */\n//     function add(uint256 a, uint256 b) internal pure returns (uint256) {\n//         uint256 c = a + b;\n//         assert(c >= a);\n//         return c;\n//     }\n// }\n\n",
  "sourcePath": "/Users/anar/Documents/Ethereum/ETHDenver/2020/housing-dao/contracts/Hourglass.sol",
  "compiler": {
    "name": "solc",
    "version": "0.5.13+commit.5b0b510c.Emscripten.clang"
  },
  "schemaVersion": "3.0.23",
  "updatedAt": "2020-02-16T01:25:54.544Z",
  "devdoc": {
    "methods": {}
  },
  "userdoc": {
    "methods": {
      "balanceOf(address)": {
        "notice": "Retrieve the token balance of any single address."
      },
      "buy(address)": {
        "notice": "Converts all incoming ethereum to tokens for the caller, and passes down the referral addy (if any)"
      },
      "buyPrice()": {
        "notice": "Return the sell price of 1 individual token."
      },
      "calculateEthereumReceived(uint256)": {
        "notice": "Function for the frontend to dynamically retrieve the price scaling of sell orders."
      },
      "calculateTokensReceived(uint256)": {
        "notice": "Function for the frontend to dynamically retrieve the price scaling of buy orders."
      },
      "disableInitialStage()": {
        "notice": "In case the amassador quota is not met, the administrator can manually disable the ambassador phase."
      },
      "dividendsOf(address)": {
        "notice": "Retrieve the dividend balance of any single address."
      },
      "exit()": {
        "notice": "Alias of sell() and withdraw()."
      },
      "myDividends()": {
        "notice": "Retrieve the dividends owned by the caller. If `_includeReferralBonus` is to to 1/true, the referral bonus will be included in the calculations. The reason for this, is that in the frontend, we will want to get the total divs (global + ref) But in the internal calculations, we want them separate. "
      },
      "myTokens()": {
        "notice": "Retrieve the tokens owned by the caller."
      },
      "reinvest()": {
        "notice": "Converts all of caller's dividends to tokens."
      },
      "sell(uint256)": {
        "notice": "Liquifies tokens to ethereum."
      },
      "sellPrice()": {
        "notice": "Return the buy price of 1 individual token."
      },
      "setAdministrator(address,bool)": {
        "notice": "In case one of us dies, we need to replace ourselves."
      },
      "setName(string)": {
        "notice": "If we want to rebrand, we can."
      },
      "setSymbol(string)": {
        "notice": "If we want to rebrand, we can."
      },
      "totalEthereumBalance()": {
        "notice": "Method to view the current Ethereum stored in the contract Example: totalEthereumBalance()"
      },
      "totalSupply()": {
        "notice": "Retrieve the total token supply."
      },
      "transfer(address,uint256)": {
        "notice": "Transfer tokens from the caller to a new holder. Remember, there's a 10% fee here as well."
      },
      "withdraw()": {
        "notice": "Withdraws all of the callers earnings."
      }
    }
  }
}